{
	"500 problems/disputeScenarioEscrow.sol": {
		"Escrow": {
			"abi": [
				{
					"inputs": [
						{
							"internalType": "address",
							"name": "_seller",
							"type": "address"
						},
						{
							"internalType": "address",
							"name": "_arbitrator",
							"type": "address"
						}
					],
					"stateMutability": "nonpayable",
					"type": "constructor"
				},
				{
					"anonymous": false,
					"inputs": [
						{
							"indexed": true,
							"internalType": "address",
							"name": "buyer",
							"type": "address"
						},
						{
							"indexed": false,
							"internalType": "uint256",
							"name": "amount",
							"type": "uint256"
						}
					],
					"name": "Deposited",
					"type": "event"
				},
				{
					"anonymous": false,
					"inputs": [
						{
							"indexed": true,
							"internalType": "address",
							"name": "buyer",
							"type": "address"
						}
					],
					"name": "DisputeRaised",
					"type": "event"
				},
				{
					"anonymous": false,
					"inputs": [
						{
							"indexed": true,
							"internalType": "address",
							"name": "buyer",
							"type": "address"
						},
						{
							"indexed": false,
							"internalType": "uint256",
							"name": "amount",
							"type": "uint256"
						}
					],
					"name": "Refunded",
					"type": "event"
				},
				{
					"anonymous": false,
					"inputs": [
						{
							"indexed": true,
							"internalType": "address",
							"name": "seller",
							"type": "address"
						},
						{
							"indexed": false,
							"internalType": "uint256",
							"name": "amount",
							"type": "uint256"
						}
					],
					"name": "Released",
					"type": "event"
				},
				{
					"inputs": [],
					"name": "arbitrator",
					"outputs": [
						{
							"internalType": "address",
							"name": "",
							"type": "address"
						}
					],
					"stateMutability": "view",
					"type": "function"
				},
				{
					"inputs": [],
					"name": "buyer",
					"outputs": [
						{
							"internalType": "address",
							"name": "",
							"type": "address"
						}
					],
					"stateMutability": "view",
					"type": "function"
				},
				{
					"inputs": [],
					"name": "deposit",
					"outputs": [],
					"stateMutability": "payable",
					"type": "function"
				},
				{
					"inputs": [],
					"name": "getBalance",
					"outputs": [
						{
							"internalType": "uint256",
							"name": "",
							"type": "uint256"
						}
					],
					"stateMutability": "view",
					"type": "function"
				},
				{
					"inputs": [],
					"name": "raiseDisput",
					"outputs": [],
					"stateMutability": "nonpayable",
					"type": "function"
				},
				{
					"inputs": [],
					"name": "refoundBuyer",
					"outputs": [],
					"stateMutability": "nonpayable",
					"type": "function"
				},
				{
					"inputs": [],
					"name": "releasePayment",
					"outputs": [],
					"stateMutability": "nonpayable",
					"type": "function"
				},
				{
					"inputs": [],
					"name": "resolveToSeller",
					"outputs": [],
					"stateMutability": "nonpayable",
					"type": "function"
				},
				{
					"inputs": [],
					"name": "seller",
					"outputs": [
						{
							"internalType": "address",
							"name": "",
							"type": "address"
						}
					],
					"stateMutability": "view",
					"type": "function"
				},
				{
					"inputs": [],
					"name": "status",
					"outputs": [
						{
							"internalType": "enum Escrow.Status",
							"name": "",
							"type": "uint8"
						}
					],
					"stateMutability": "view",
					"type": "function"
				}
			],
			"devdoc": {
				"kind": "dev",
				"methods": {},
				"version": 1
			},
			"evm": {
				"assembly": "    /* \"500 problems/disputeScenarioEscrow.sol\":61:2793  contract Escrow {... */\n  mstore(0x40, 0x80)\n    /* \"500 problems/disputeScenarioEscrow.sol\":909:1119  constructor(address _seller, address _arbitrator) {... */\n  callvalue\n  dup1\n  iszero\n  tag_1\n  jumpi\n  0x00\n  dup1\n  revert\ntag_1:\n  pop\n  mload(0x40)\n  sub(codesize, bytecodeSize)\n  dup1\n  bytecodeSize\n  dup4\n  codecopy\n  dup2\n  dup2\n  add\n  0x40\n  mstore\n  dup2\n  add\n  swap1\n  tag_2\n  swap2\n  swap1\n  tag_3\n  jump\t// in\ntag_2:\n    /* \"500 problems/disputeScenarioEscrow.sol\":978:988  msg.sender */\n  caller\n    /* \"500 problems/disputeScenarioEscrow.sol\":970:975  buyer */\n  0x00\n  dup1\n    /* \"500 problems/disputeScenarioEscrow.sol\":970:988  buyer = msg.sender */\n  0x0100\n  exp\n  dup2\n  sload\n  dup2\n  0xffffffffffffffffffffffffffffffffffffffff\n  mul\n  not\n  and\n  swap1\n  dup4\n  0xffffffffffffffffffffffffffffffffffffffff\n  and\n  mul\n  or\n  swap1\n  sstore\n  pop\n    /* \"500 problems/disputeScenarioEscrow.sol\":1008:1015  _seller */\n  dup2\n    /* \"500 problems/disputeScenarioEscrow.sol\":999:1005  seller */\n  0x01\n  0x00\n    /* \"500 problems/disputeScenarioEscrow.sol\":999:1015  seller = _seller */\n  0x0100\n  exp\n  dup2\n  sload\n  dup2\n  0xffffffffffffffffffffffffffffffffffffffff\n  mul\n  not\n  and\n  swap1\n  dup4\n  0xffffffffffffffffffffffffffffffffffffffff\n  and\n  mul\n  or\n  swap1\n  sstore\n  pop\n    /* \"500 problems/disputeScenarioEscrow.sol\":1039:1050  _arbitrator */\n  dup1\n    /* \"500 problems/disputeScenarioEscrow.sol\":1026:1036  arbitrator */\n  0x02\n  0x00\n    /* \"500 problems/disputeScenarioEscrow.sol\":1026:1050  arbitrator = _arbitrator */\n  0x0100\n  exp\n  dup2\n  sload\n  dup2\n  0xffffffffffffffffffffffffffffffffffffffff\n  mul\n  not\n  and\n  swap1\n  dup4\n  0xffffffffffffffffffffffffffffffffffffffff\n  and\n  mul\n  or\n  swap1\n  sstore\n  pop\n    /* \"500 problems/disputeScenarioEscrow.sol\":1072:1095  Status.AWAITING_PAYMENT */\n  0x00\n    /* \"500 problems/disputeScenarioEscrow.sol\":1063:1069  status */\n  0x02\n  0x14\n    /* \"500 problems/disputeScenarioEscrow.sol\":1063:1095  status = Status.AWAITING_PAYMENT */\n  0x0100\n  exp\n  dup2\n  sload\n  dup2\n  0xff\n  mul\n  not\n  and\n  swap1\n  dup4\n  0x04\n  dup2\n  gt\n  iszero\n  tag_6\n  jumpi\n  tag_7\n  tag_8\n  jump\t// in\ntag_7:\ntag_6:\n  mul\n  or\n  swap1\n  sstore\n  pop\n    /* \"500 problems/disputeScenarioEscrow.sol\":909:1119  constructor(address _seller, address _arbitrator) {... */\n  pop\n  pop\n    /* \"500 problems/disputeScenarioEscrow.sol\":61:2793  contract Escrow {... */\n  jump(tag_9)\n    /* \"#utility.yul\":88:205   */\ntag_11:\n    /* \"#utility.yul\":197:198   */\n  0x00\n    /* \"#utility.yul\":194:195   */\n  dup1\n    /* \"#utility.yul\":187:199   */\n  revert\n    /* \"#utility.yul\":334:460   */\ntag_13:\n    /* \"#utility.yul\":371:378   */\n  0x00\n    /* \"#utility.yul\":411:453   */\n  0xffffffffffffffffffffffffffffffffffffffff\n    /* \"#utility.yul\":404:409   */\n  dup3\n    /* \"#utility.yul\":400:454   */\n  and\n    /* \"#utility.yul\":389:454   */\n  swap1\n  pop\n    /* \"#utility.yul\":334:460   */\n  swap2\n  swap1\n  pop\n  jump\t// out\n    /* \"#utility.yul\":466:562   */\ntag_14:\n    /* \"#utility.yul\":503:510   */\n  0x00\n    /* \"#utility.yul\":532:556   */\n  tag_23\n    /* \"#utility.yul\":550:555   */\n  dup3\n    /* \"#utility.yul\":532:556   */\n  tag_13\n  jump\t// in\ntag_23:\n    /* \"#utility.yul\":521:556   */\n  swap1\n  pop\n    /* \"#utility.yul\":466:562   */\n  swap2\n  swap1\n  pop\n  jump\t// out\n    /* \"#utility.yul\":568:690   */\ntag_15:\n    /* \"#utility.yul\":641:665   */\n  tag_25\n    /* \"#utility.yul\":659:664   */\n  dup2\n    /* \"#utility.yul\":641:665   */\n  tag_14\n  jump\t// in\ntag_25:\n    /* \"#utility.yul\":634:639   */\n  dup2\n    /* \"#utility.yul\":631:666   */\n  eq\n    /* \"#utility.yul\":621:684   */\n  tag_26\n  jumpi\n    /* \"#utility.yul\":680:681   */\n  0x00\n    /* \"#utility.yul\":677:678   */\n  dup1\n    /* \"#utility.yul\":670:682   */\n  revert\n    /* \"#utility.yul\":621:684   */\ntag_26:\n    /* \"#utility.yul\":568:690   */\n  pop\n  jump\t// out\n    /* \"#utility.yul\":696:839   */\ntag_16:\n    /* \"#utility.yul\":753:758   */\n  0x00\n    /* \"#utility.yul\":784:790   */\n  dup2\n    /* \"#utility.yul\":778:791   */\n  mload\n    /* \"#utility.yul\":769:791   */\n  swap1\n  pop\n    /* \"#utility.yul\":800:833   */\n  tag_28\n    /* \"#utility.yul\":827:832   */\n  dup2\n    /* \"#utility.yul\":800:833   */\n  tag_15\n  jump\t// in\ntag_28:\n    /* \"#utility.yul\":696:839   */\n  swap3\n  swap2\n  pop\n  pop\n  jump\t// out\n    /* \"#utility.yul\":845:1352   */\ntag_3:\n    /* \"#utility.yul\":924:930   */\n  0x00\n    /* \"#utility.yul\":932:938   */\n  dup1\n    /* \"#utility.yul\":981:983   */\n  0x40\n    /* \"#utility.yul\":969:978   */\n  dup4\n    /* \"#utility.yul\":960:967   */\n  dup6\n    /* \"#utility.yul\":956:979   */\n  sub\n    /* \"#utility.yul\":952:984   */\n  slt\n    /* \"#utility.yul\":949:1068   */\n  iszero\n  tag_30\n  jumpi\n    /* \"#utility.yul\":987:1066   */\n  tag_31\n  tag_11\n  jump\t// in\ntag_31:\n    /* \"#utility.yul\":949:1068   */\ntag_30:\n    /* \"#utility.yul\":1107:1108   */\n  0x00\n    /* \"#utility.yul\":1132:1196   */\n  tag_32\n    /* \"#utility.yul\":1188:1195   */\n  dup6\n    /* \"#utility.yul\":1179:1185   */\n  dup3\n    /* \"#utility.yul\":1168:1177   */\n  dup7\n    /* \"#utility.yul\":1164:1186   */\n  add\n    /* \"#utility.yul\":1132:1196   */\n  tag_16\n  jump\t// in\ntag_32:\n    /* \"#utility.yul\":1122:1196   */\n  swap3\n  pop\n    /* \"#utility.yul\":1078:1206   */\n  pop\n    /* \"#utility.yul\":1245:1247   */\n  0x20\n    /* \"#utility.yul\":1271:1335   */\n  tag_33\n    /* \"#utility.yul\":1327:1334   */\n  dup6\n    /* \"#utility.yul\":1318:1324   */\n  dup3\n    /* \"#utility.yul\":1307:1316   */\n  dup7\n    /* \"#utility.yul\":1303:1325   */\n  add\n    /* \"#utility.yul\":1271:1335   */\n  tag_16\n  jump\t// in\ntag_33:\n    /* \"#utility.yul\":1261:1335   */\n  swap2\n  pop\n    /* \"#utility.yul\":1216:1345   */\n  pop\n    /* \"#utility.yul\":845:1352   */\n  swap3\n  pop\n  swap3\n  swap1\n  pop\n  jump\t// out\n    /* \"#utility.yul\":1358:1538   */\ntag_8:\n    /* \"#utility.yul\":1406:1483   */\n  0x4e487b7100000000000000000000000000000000000000000000000000000000\n    /* \"#utility.yul\":1403:1404   */\n  0x00\n    /* \"#utility.yul\":1396:1484   */\n  mstore\n    /* \"#utility.yul\":1503:1507   */\n  0x21\n    /* \"#utility.yul\":1500:1501   */\n  0x04\n    /* \"#utility.yul\":1493:1508   */\n  mstore\n    /* \"#utility.yul\":1527:1531   */\n  0x24\n    /* \"#utility.yul\":1524:1525   */\n  0x00\n    /* \"#utility.yul\":1517:1532   */\n  revert\n    /* \"500 problems/disputeScenarioEscrow.sol\":61:2793  contract Escrow {... */\ntag_9:\n  dataSize(sub_0)\n  dup1\n  dataOffset(sub_0)\n  0x00\n  codecopy\n  0x00\n  return\nstop\n\nsub_0: assembly {\n        /* \"500 problems/disputeScenarioEscrow.sol\":61:2793  contract Escrow {... */\n      mstore(0x40, 0x80)\n      jumpi(tag_1, lt(calldatasize, 0x04))\n      shr(0xe0, calldataload(0x00))\n      dup1\n      0x7150d8ae\n      gt\n      tag_12\n      jumpi\n      dup1\n      0x7150d8ae\n      eq\n      tag_7\n      jumpi\n      dup1\n      0xcb704e2c\n      eq\n      tag_8\n      jumpi\n      dup1\n      0xd0e30db0\n      eq\n      tag_9\n      jumpi\n      dup1\n      0xd116c8c4\n      eq\n      tag_10\n      jumpi\n      dup1\n      0xf4ccf5b5\n      eq\n      tag_11\n      jumpi\n      jump(tag_1)\n    tag_12:\n      dup1\n      0x08551a53\n      eq\n      tag_2\n      jumpi\n      dup1\n      0x12065fe0\n      eq\n      tag_3\n      jumpi\n      dup1\n      0x1569072c\n      eq\n      tag_4\n      jumpi\n      dup1\n      0x200d2ed2\n      eq\n      tag_5\n      jumpi\n      dup1\n      0x6cc6cde1\n      eq\n      tag_6\n      jumpi\n    tag_1:\n      0x00\n      dup1\n      revert\n        /* \"500 problems/disputeScenarioEscrow.sol\":252:273  address public seller */\n    tag_2:\n      callvalue\n      dup1\n      iszero\n      tag_13\n      jumpi\n      0x00\n      dup1\n      revert\n    tag_13:\n      pop\n      tag_14\n      tag_15\n      jump\t// in\n    tag_14:\n      mload(0x40)\n      tag_16\n      swap2\n      swap1\n      tag_17\n      jump\t// in\n    tag_16:\n      mload(0x40)\n      dup1\n      swap2\n      sub\n      swap1\n      return\n        /* \"500 problems/disputeScenarioEscrow.sol\":2678:2778  function getBalance() external view returns(uint256) {... */\n    tag_3:\n      callvalue\n      dup1\n      iszero\n      tag_18\n      jumpi\n      0x00\n      dup1\n      revert\n    tag_18:\n      pop\n      tag_19\n      tag_20\n      jump\t// in\n    tag_19:\n      mload(0x40)\n      tag_21\n      swap2\n      swap1\n      tag_22\n      jump\t// in\n    tag_21:\n      mload(0x40)\n      dup1\n      swap2\n      sub\n      swap1\n      return\n        /* \"500 problems/disputeScenarioEscrow.sol\":1973:2318  function resolveToSeller() external onlyArbitrator {... */\n    tag_4:\n      callvalue\n      dup1\n      iszero\n      tag_23\n      jumpi\n      0x00\n      dup1\n      revert\n    tag_23:\n      pop\n      tag_24\n      tag_25\n      jump\t// in\n    tag_24:\n      stop\n        /* \"500 problems/disputeScenarioEscrow.sol\":314:334  Status public status */\n    tag_5:\n      callvalue\n      dup1\n      iszero\n      tag_26\n      jumpi\n      0x00\n      dup1\n      revert\n    tag_26:\n      pop\n      tag_27\n      tag_28\n      jump\t// in\n    tag_27:\n      mload(0x40)\n      tag_29\n      swap2\n      swap1\n      tag_30\n      jump\t// in\n    tag_29:\n      mload(0x40)\n      dup1\n      swap2\n      sub\n      swap1\n      return\n        /* \"500 problems/disputeScenarioEscrow.sol\":280:305  address public arbitrator */\n    tag_6:\n      callvalue\n      dup1\n      iszero\n      tag_31\n      jumpi\n      0x00\n      dup1\n      revert\n    tag_31:\n      pop\n      tag_32\n      tag_33\n      jump\t// in\n    tag_32:\n      mload(0x40)\n      tag_34\n      swap2\n      swap1\n      tag_17\n      jump\t// in\n    tag_34:\n      mload(0x40)\n      dup1\n      swap2\n      sub\n      swap1\n      return\n        /* \"500 problems/disputeScenarioEscrow.sol\":225:245  address public buyer */\n    tag_7:\n      callvalue\n      dup1\n      iszero\n      tag_35\n      jumpi\n      0x00\n      dup1\n      revert\n    tag_35:\n      pop\n      tag_36\n      tag_37\n      jump\t// in\n    tag_36:\n      mload(0x40)\n      tag_38\n      swap2\n      swap1\n      tag_17\n      jump\t// in\n    tag_38:\n      mload(0x40)\n      dup1\n      swap2\n      sub\n      swap1\n      return\n        /* \"500 problems/disputeScenarioEscrow.sol\":1764:1965  function raiseDisput() external onlyBuyer {... */\n    tag_8:\n      callvalue\n      dup1\n      iszero\n      tag_39\n      jumpi\n      0x00\n      dup1\n      revert\n    tag_39:\n      pop\n      tag_40\n      tag_41\n      jump\t// in\n    tag_40:\n      stop\n        /* \"500 problems/disputeScenarioEscrow.sol\":1127:1400  function deposit() external payable onlyBuyer {... */\n    tag_9:\n      tag_42\n      tag_43\n      jump\t// in\n    tag_42:\n      stop\n        /* \"500 problems/disputeScenarioEscrow.sol\":1408:1756  function releasePayment() external onlyBuyer {... */\n    tag_10:\n      callvalue\n      dup1\n      iszero\n      tag_44\n      jumpi\n      0x00\n      dup1\n      revert\n    tag_44:\n      pop\n      tag_45\n      tag_46\n      jump\t// in\n    tag_45:\n      stop\n        /* \"500 problems/disputeScenarioEscrow.sol\":2326:2670  function refoundBuyer() external onlyArbitrator {... */\n    tag_11:\n      callvalue\n      dup1\n      iszero\n      tag_47\n      jumpi\n      0x00\n      dup1\n      revert\n    tag_47:\n      pop\n      tag_48\n      tag_49\n      jump\t// in\n    tag_48:\n      stop\n        /* \"500 problems/disputeScenarioEscrow.sol\":252:273  address public seller */\n    tag_15:\n      0x01\n      0x00\n      swap1\n      sload\n      swap1\n      0x0100\n      exp\n      swap1\n      div\n      0xffffffffffffffffffffffffffffffffffffffff\n      and\n      dup2\n      jump\t// out\n        /* \"500 problems/disputeScenarioEscrow.sol\":2678:2778  function getBalance() external view returns(uint256) {... */\n    tag_20:\n        /* \"500 problems/disputeScenarioEscrow.sol\":2722:2729  uint256 */\n      0x00\n        /* \"500 problems/disputeScenarioEscrow.sol\":2749:2770  address(this).balance */\n      selfbalance\n        /* \"500 problems/disputeScenarioEscrow.sol\":2742:2770  return address(this).balance */\n      swap1\n      pop\n        /* \"500 problems/disputeScenarioEscrow.sol\":2678:2778  function getBalance() external view returns(uint256) {... */\n      swap1\n      jump\t// out\n        /* \"500 problems/disputeScenarioEscrow.sol\":1973:2318  function resolveToSeller() external onlyArbitrator {... */\n    tag_25:\n        /* \"500 problems/disputeScenarioEscrow.sol\":852:862  arbitrator */\n      0x02\n      0x00\n      swap1\n      sload\n      swap1\n      0x0100\n      exp\n      swap1\n      div\n      0xffffffffffffffffffffffffffffffffffffffff\n      and\n        /* \"500 problems/disputeScenarioEscrow.sol\":838:862  msg.sender == arbitrator */\n      0xffffffffffffffffffffffffffffffffffffffff\n      and\n        /* \"500 problems/disputeScenarioEscrow.sol\":838:848  msg.sender */\n      caller\n        /* \"500 problems/disputeScenarioEscrow.sol\":838:862  msg.sender == arbitrator */\n      0xffffffffffffffffffffffffffffffffffffffff\n      and\n      eq\n        /* \"500 problems/disputeScenarioEscrow.sol\":830:881  require(msg.sender == arbitrator,\"Only arbitrator\") */\n      tag_52\n      jumpi\n      mload(0x40)\n      0x08c379a000000000000000000000000000000000000000000000000000000000\n      dup2\n      mstore\n      0x04\n      add\n      tag_53\n      swap1\n      tag_54\n      jump\t// in\n    tag_53:\n      mload(0x40)\n      dup1\n      swap2\n      sub\n      swap1\n      revert\n    tag_52:\n        /* \"500 problems/disputeScenarioEscrow.sol\":2053:2068  Status.DISPUTED */\n      0x02\n        /* \"500 problems/disputeScenarioEscrow.sol\":2043:2068  status == Status.DISPUTED */\n      0x04\n      dup2\n      gt\n      iszero\n      tag_56\n      jumpi\n      tag_57\n      tag_58\n      jump\t// in\n    tag_57:\n    tag_56:\n        /* \"500 problems/disputeScenarioEscrow.sol\":2043:2049  status */\n      0x02\n      0x14\n      swap1\n      sload\n      swap1\n      0x0100\n      exp\n      swap1\n      div\n      0xff\n      and\n        /* \"500 problems/disputeScenarioEscrow.sol\":2043:2068  status == Status.DISPUTED */\n      0x04\n      dup2\n      gt\n      iszero\n      tag_59\n      jumpi\n      tag_60\n      tag_58\n      jump\t// in\n    tag_60:\n    tag_59:\n      eq\n        /* \"500 problems/disputeScenarioEscrow.sol\":2035:2082  require(status == Status.DISPUTED,\"No dispute\") */\n      tag_61\n      jumpi\n      mload(0x40)\n      0x08c379a000000000000000000000000000000000000000000000000000000000\n      dup2\n      mstore\n      0x04\n      add\n      tag_62\n      swap1\n      tag_63\n      jump\t// in\n    tag_62:\n      mload(0x40)\n      dup1\n      swap2\n      sub\n      swap1\n      revert\n    tag_61:\n        /* \"500 problems/disputeScenarioEscrow.sol\":2104:2119  Status.COMPLETE */\n      0x03\n        /* \"500 problems/disputeScenarioEscrow.sol\":2095:2101  status */\n      0x02\n      0x14\n        /* \"500 problems/disputeScenarioEscrow.sol\":2095:2119  status = Status.COMPLETE */\n      0x0100\n      exp\n      dup2\n      sload\n      dup2\n      0xff\n      mul\n      not\n      and\n      swap1\n      dup4\n      0x04\n      dup2\n      gt\n      iszero\n      tag_64\n      jumpi\n      tag_65\n      tag_58\n      jump\t// in\n    tag_65:\n    tag_64:\n      mul\n      or\n      swap1\n      sstore\n      pop\n        /* \"500 problems/disputeScenarioEscrow.sol\":2132:2146  uint256 amount */\n      0x00\n        /* \"500 problems/disputeScenarioEscrow.sol\":2149:2170  address(this).balance */\n      selfbalance\n        /* \"500 problems/disputeScenarioEscrow.sol\":2132:2170  uint256 amount = address(this).balance */\n      swap1\n      pop\n        /* \"500 problems/disputeScenarioEscrow.sol\":2182:2194  bool success */\n      0x00\n        /* \"500 problems/disputeScenarioEscrow.sol\":2207:2213  seller */\n      0x01\n      0x00\n      swap1\n      sload\n      swap1\n      0x0100\n      exp\n      swap1\n      div\n      0xffffffffffffffffffffffffffffffffffffffff\n      and\n        /* \"500 problems/disputeScenarioEscrow.sol\":2199:2219  payable(seller).call */\n      0xffffffffffffffffffffffffffffffffffffffff\n      and\n        /* \"500 problems/disputeScenarioEscrow.sol\":2226:2232  amount */\n      dup3\n        /* \"500 problems/disputeScenarioEscrow.sol\":2199:2237  payable(seller).call{value:amount}(\"\") */\n      mload(0x40)\n      tag_66\n      swap1\n      tag_67\n      jump\t// in\n    tag_66:\n      0x00\n      mload(0x40)\n      dup1\n      dup4\n      sub\n      dup2\n      dup6\n      dup8\n      gas\n      call\n      swap3\n      pop\n      pop\n      pop\n      returndatasize\n      dup1\n      0x00\n      dup2\n      eq\n      tag_70\n      jumpi\n      mload(0x40)\n      swap2\n      pop\n      and(add(returndatasize, 0x3f), not(0x1f))\n      dup3\n      add\n      0x40\n      mstore\n      returndatasize\n      dup3\n      mstore\n      returndatasize\n      0x00\n      0x20\n      dup5\n      add\n      returndatacopy\n      jump(tag_69)\n    tag_70:\n      0x60\n      swap2\n      pop\n    tag_69:\n      pop\n        /* \"500 problems/disputeScenarioEscrow.sol\":2181:2237  (bool success,) = payable(seller).call{value:amount}(\"\") */\n      pop\n      swap1\n      pop\n        /* \"500 problems/disputeScenarioEscrow.sol\":2256:2263  success */\n      dup1\n        /* \"500 problems/disputeScenarioEscrow.sol\":2248:2264  require(success) */\n      tag_71\n      jumpi\n      0x00\n      dup1\n      revert\n    tag_71:\n        /* \"500 problems/disputeScenarioEscrow.sol\":2291:2297  seller */\n      0x01\n      0x00\n      swap1\n      sload\n      swap1\n      0x0100\n      exp\n      swap1\n      div\n      0xffffffffffffffffffffffffffffffffffffffff\n      and\n        /* \"500 problems/disputeScenarioEscrow.sol\":2282:2306  Released(seller, amount) */\n      0xffffffffffffffffffffffffffffffffffffffff\n      and\n      0xb21fb52d5749b80f3182f8c6992236b5e5576681880914484d7f4c9b062e619e\n        /* \"500 problems/disputeScenarioEscrow.sol\":2299:2305  amount */\n      dup4\n        /* \"500 problems/disputeScenarioEscrow.sol\":2282:2306  Released(seller, amount) */\n      mload(0x40)\n      tag_72\n      swap2\n      swap1\n      tag_22\n      jump\t// in\n    tag_72:\n      mload(0x40)\n      dup1\n      swap2\n      sub\n      swap1\n      log2\n        /* \"500 problems/disputeScenarioEscrow.sol\":2024:2318  {... */\n      pop\n      pop\n        /* \"500 problems/disputeScenarioEscrow.sol\":1973:2318  function resolveToSeller() external onlyArbitrator {... */\n      jump\t// out\n        /* \"500 problems/disputeScenarioEscrow.sol\":314:334  Status public status */\n    tag_28:\n      0x02\n      0x14\n      swap1\n      sload\n      swap1\n      0x0100\n      exp\n      swap1\n      div\n      0xff\n      and\n      dup2\n      jump\t// out\n        /* \"500 problems/disputeScenarioEscrow.sol\":280:305  address public arbitrator */\n    tag_33:\n      0x02\n      0x00\n      swap1\n      sload\n      swap1\n      0x0100\n      exp\n      swap1\n      div\n      0xffffffffffffffffffffffffffffffffffffffff\n      and\n      dup2\n      jump\t// out\n        /* \"500 problems/disputeScenarioEscrow.sol\":225:245  address public buyer */\n    tag_37:\n      0x00\n      dup1\n      sload\n      swap1\n      0x0100\n      exp\n      swap1\n      div\n      0xffffffffffffffffffffffffffffffffffffffff\n      and\n      dup2\n      jump\t// out\n        /* \"500 problems/disputeScenarioEscrow.sol\":1764:1965  function raiseDisput() external onlyBuyer {... */\n    tag_41:\n        /* \"500 problems/disputeScenarioEscrow.sol\":632:637  buyer */\n      0x00\n      dup1\n      sload\n      swap1\n      0x0100\n      exp\n      swap1\n      div\n      0xffffffffffffffffffffffffffffffffffffffff\n      and\n        /* \"500 problems/disputeScenarioEscrow.sol\":618:637  msg.sender == buyer */\n      0xffffffffffffffffffffffffffffffffffffffff\n      and\n        /* \"500 problems/disputeScenarioEscrow.sol\":618:628  msg.sender */\n      caller\n        /* \"500 problems/disputeScenarioEscrow.sol\":618:637  msg.sender == buyer */\n      0xffffffffffffffffffffffffffffffffffffffff\n      and\n      eq\n        /* \"500 problems/disputeScenarioEscrow.sol\":610:651  require(msg.sender == buyer,\"Only buyer\") */\n      tag_74\n      jumpi\n      mload(0x40)\n      0x08c379a000000000000000000000000000000000000000000000000000000000\n      dup2\n      mstore\n      0x04\n      add\n      tag_75\n      swap1\n      tag_76\n      jump\t// in\n    tag_75:\n      mload(0x40)\n      dup1\n      swap2\n      sub\n      swap1\n      revert\n    tag_74:\n        /* \"500 problems/disputeScenarioEscrow.sol\":1835:1859  Status.AWAITING_DELIVERY */\n      0x01\n        /* \"500 problems/disputeScenarioEscrow.sol\":1825:1859  status == Status.AWAITING_DELIVERY */\n      0x04\n      dup2\n      gt\n      iszero\n      tag_78\n      jumpi\n      tag_79\n      tag_58\n      jump\t// in\n    tag_79:\n    tag_78:\n        /* \"500 problems/disputeScenarioEscrow.sol\":1825:1831  status */\n      0x02\n      0x14\n      swap1\n      sload\n      swap1\n      0x0100\n      exp\n      swap1\n      div\n      0xff\n      and\n        /* \"500 problems/disputeScenarioEscrow.sol\":1825:1859  status == Status.AWAITING_DELIVERY */\n      0x04\n      dup2\n      gt\n      iszero\n      tag_80\n      jumpi\n      tag_81\n      tag_58\n      jump\t// in\n    tag_81:\n    tag_80:\n      eq\n        /* \"500 problems/disputeScenarioEscrow.sol\":1817:1877  require(status == Status.AWAITING_DELIVERY,\" Cannot disput\") */\n      tag_82\n      jumpi\n      mload(0x40)\n      0x08c379a000000000000000000000000000000000000000000000000000000000\n      dup2\n      mstore\n      0x04\n      add\n      tag_83\n      swap1\n      tag_84\n      jump\t// in\n    tag_83:\n      mload(0x40)\n      dup1\n      swap2\n      sub\n      swap1\n      revert\n    tag_82:\n        /* \"500 problems/disputeScenarioEscrow.sol\":1899:1914  Status.DISPUTED */\n      0x02\n        /* \"500 problems/disputeScenarioEscrow.sol\":1890:1896  status */\n      dup1\n      0x14\n        /* \"500 problems/disputeScenarioEscrow.sol\":1890:1914  status = Status.DISPUTED */\n      0x0100\n      exp\n      dup2\n      sload\n      dup2\n      0xff\n      mul\n      not\n      and\n      swap1\n      dup4\n      0x04\n      dup2\n      gt\n      iszero\n      tag_85\n      jumpi\n      tag_86\n      tag_58\n      jump\t// in\n    tag_86:\n    tag_85:\n      mul\n      or\n      swap1\n      sstore\n      pop\n        /* \"500 problems/disputeScenarioEscrow.sol\":1946:1956  msg.sender */\n      caller\n        /* \"500 problems/disputeScenarioEscrow.sol\":1932:1957  DisputeRaised(msg.sender) */\n      0xffffffffffffffffffffffffffffffffffffffff\n      and\n      0x0b3cd97b16a08a5c77357c276d248827ad32dfd56060f7c55d6255537ba3d962\n      mload(0x40)\n      mload(0x40)\n      dup1\n      swap2\n      sub\n      swap1\n      log2\n        /* \"500 problems/disputeScenarioEscrow.sol\":1764:1965  function raiseDisput() external onlyBuyer {... */\n      jump\t// out\n        /* \"500 problems/disputeScenarioEscrow.sol\":1127:1400  function deposit() external payable onlyBuyer {... */\n    tag_43:\n        /* \"500 problems/disputeScenarioEscrow.sol\":632:637  buyer */\n      0x00\n      dup1\n      sload\n      swap1\n      0x0100\n      exp\n      swap1\n      div\n      0xffffffffffffffffffffffffffffffffffffffff\n      and\n        /* \"500 problems/disputeScenarioEscrow.sol\":618:637  msg.sender == buyer */\n      0xffffffffffffffffffffffffffffffffffffffff\n      and\n        /* \"500 problems/disputeScenarioEscrow.sol\":618:628  msg.sender */\n      caller\n        /* \"500 problems/disputeScenarioEscrow.sol\":618:637  msg.sender == buyer */\n      0xffffffffffffffffffffffffffffffffffffffff\n      and\n      eq\n        /* \"500 problems/disputeScenarioEscrow.sol\":610:651  require(msg.sender == buyer,\"Only buyer\") */\n      tag_88\n      jumpi\n      mload(0x40)\n      0x08c379a000000000000000000000000000000000000000000000000000000000\n      dup2\n      mstore\n      0x04\n      add\n      tag_89\n      swap1\n      tag_76\n      jump\t// in\n    tag_89:\n      mload(0x40)\n      dup1\n      swap2\n      sub\n      swap1\n      revert\n    tag_88:\n        /* \"500 problems/disputeScenarioEscrow.sol\":1202:1225  Status.AWAITING_PAYMENT */\n      0x00\n        /* \"500 problems/disputeScenarioEscrow.sol\":1192:1225  status == Status.AWAITING_PAYMENT */\n      0x04\n      dup2\n      gt\n      iszero\n      tag_91\n      jumpi\n      tag_92\n      tag_58\n      jump\t// in\n    tag_92:\n    tag_91:\n        /* \"500 problems/disputeScenarioEscrow.sol\":1192:1198  status */\n      0x02\n      0x14\n      swap1\n      sload\n      swap1\n      0x0100\n      exp\n      swap1\n      div\n      0xff\n      and\n        /* \"500 problems/disputeScenarioEscrow.sol\":1192:1225  status == Status.AWAITING_PAYMENT */\n      0x04\n      dup2\n      gt\n      iszero\n      tag_93\n      jumpi\n      tag_94\n      tag_58\n      jump\t// in\n    tag_94:\n    tag_93:\n      eq\n        /* \"500 problems/disputeScenarioEscrow.sol\":1184:1243  require(status == Status.AWAITING_PAYMENT,\"Invalid status\") */\n      tag_95\n      jumpi\n      mload(0x40)\n      0x08c379a000000000000000000000000000000000000000000000000000000000\n      dup2\n      mstore\n      0x04\n      add\n      tag_96\n      swap1\n      tag_97\n      jump\t// in\n    tag_96:\n      mload(0x40)\n      dup1\n      swap2\n      sub\n      swap1\n      revert\n    tag_95:\n        /* \"500 problems/disputeScenarioEscrow.sol\":1277:1278  0 */\n      0x00\n        /* \"500 problems/disputeScenarioEscrow.sol\":1265:1274  msg.value */\n      callvalue\n        /* \"500 problems/disputeScenarioEscrow.sol\":1265:1278  msg.value > 0 */\n      gt\n        /* \"500 problems/disputeScenarioEscrow.sol\":1256:1290  require (msg.value > 0,\"Send ETH\") */\n      tag_98\n      jumpi\n      mload(0x40)\n      0x08c379a000000000000000000000000000000000000000000000000000000000\n      dup2\n      mstore\n      0x04\n      add\n      tag_99\n      swap1\n      tag_100\n      jump\t// in\n    tag_99:\n      mload(0x40)\n      dup1\n      swap2\n      sub\n      swap1\n      revert\n    tag_98:\n        /* \"500 problems/disputeScenarioEscrow.sol\":1312:1336  Status.AWAITING_DELIVERY */\n      0x01\n        /* \"500 problems/disputeScenarioEscrow.sol\":1303:1309  status */\n      0x02\n      0x14\n        /* \"500 problems/disputeScenarioEscrow.sol\":1303:1336  status = Status.AWAITING_DELIVERY */\n      0x0100\n      exp\n      dup2\n      sload\n      dup2\n      0xff\n      mul\n      not\n      and\n      swap1\n      dup4\n      0x04\n      dup2\n      gt\n      iszero\n      tag_101\n      jumpi\n      tag_102\n      tag_58\n      jump\t// in\n    tag_102:\n    tag_101:\n      mul\n      or\n      swap1\n      sstore\n      pop\n        /* \"500 problems/disputeScenarioEscrow.sol\":1364:1374  msg.sender */\n      caller\n        /* \"500 problems/disputeScenarioEscrow.sol\":1354:1386  Deposited(msg.sender, msg.value) */\n      0xffffffffffffffffffffffffffffffffffffffff\n      and\n      0x2da466a7b24304f47e87fa2e1e5a81b9831ce54fec19055ce277ca2f39ba42c4\n        /* \"500 problems/disputeScenarioEscrow.sol\":1376:1385  msg.value */\n      callvalue\n        /* \"500 problems/disputeScenarioEscrow.sol\":1354:1386  Deposited(msg.sender, msg.value) */\n      mload(0x40)\n      tag_103\n      swap2\n      swap1\n      tag_22\n      jump\t// in\n    tag_103:\n      mload(0x40)\n      dup1\n      swap2\n      sub\n      swap1\n      log2\n        /* \"500 problems/disputeScenarioEscrow.sol\":1127:1400  function deposit() external payable onlyBuyer {... */\n      jump\t// out\n        /* \"500 problems/disputeScenarioEscrow.sol\":1408:1756  function releasePayment() external onlyBuyer {... */\n    tag_46:\n        /* \"500 problems/disputeScenarioEscrow.sol\":632:637  buyer */\n      0x00\n      dup1\n      sload\n      swap1\n      0x0100\n      exp\n      swap1\n      div\n      0xffffffffffffffffffffffffffffffffffffffff\n      and\n        /* \"500 problems/disputeScenarioEscrow.sol\":618:637  msg.sender == buyer */\n      0xffffffffffffffffffffffffffffffffffffffff\n      and\n        /* \"500 problems/disputeScenarioEscrow.sol\":618:628  msg.sender */\n      caller\n        /* \"500 problems/disputeScenarioEscrow.sol\":618:637  msg.sender == buyer */\n      0xffffffffffffffffffffffffffffffffffffffff\n      and\n      eq\n        /* \"500 problems/disputeScenarioEscrow.sol\":610:651  require(msg.sender == buyer,\"Only buyer\") */\n      tag_105\n      jumpi\n      mload(0x40)\n      0x08c379a000000000000000000000000000000000000000000000000000000000\n      dup2\n      mstore\n      0x04\n      add\n      tag_106\n      swap1\n      tag_76\n      jump\t// in\n    tag_106:\n      mload(0x40)\n      dup1\n      swap2\n      sub\n      swap1\n      revert\n    tag_105:\n        /* \"500 problems/disputeScenarioEscrow.sol\":1482:1505  Status.AWAITING_PAYMENT */\n      0x00\n        /* \"500 problems/disputeScenarioEscrow.sol\":1472:1505  status == Status.AWAITING_PAYMENT */\n      0x04\n      dup2\n      gt\n      iszero\n      tag_108\n      jumpi\n      tag_109\n      tag_58\n      jump\t// in\n    tag_109:\n    tag_108:\n        /* \"500 problems/disputeScenarioEscrow.sol\":1472:1478  status */\n      0x02\n      0x14\n      swap1\n      sload\n      swap1\n      0x0100\n      exp\n      swap1\n      div\n      0xff\n      and\n        /* \"500 problems/disputeScenarioEscrow.sol\":1472:1505  status == Status.AWAITING_PAYMENT */\n      0x04\n      dup2\n      gt\n      iszero\n      tag_110\n      jumpi\n      tag_111\n      tag_58\n      jump\t// in\n    tag_111:\n    tag_110:\n      eq\n        /* \"500 problems/disputeScenarioEscrow.sol\":1464:1524  require(status == Status.AWAITING_PAYMENT, \"Cannot release\") */\n      tag_112\n      jumpi\n      mload(0x40)\n      0x08c379a000000000000000000000000000000000000000000000000000000000\n      dup2\n      mstore\n      0x04\n      add\n      tag_113\n      swap1\n      tag_114\n      jump\t// in\n    tag_113:\n      mload(0x40)\n      dup1\n      swap2\n      sub\n      swap1\n      revert\n    tag_112:\n        /* \"500 problems/disputeScenarioEscrow.sol\":1546:1561  Status.COMPLETE */\n      0x03\n        /* \"500 problems/disputeScenarioEscrow.sol\":1537:1543  status */\n      0x02\n      0x14\n        /* \"500 problems/disputeScenarioEscrow.sol\":1537:1561  status = Status.COMPLETE */\n      0x0100\n      exp\n      dup2\n      sload\n      dup2\n      0xff\n      mul\n      not\n      and\n      swap1\n      dup4\n      0x04\n      dup2\n      gt\n      iszero\n      tag_115\n      jumpi\n      tag_116\n      tag_58\n      jump\t// in\n    tag_116:\n    tag_115:\n      mul\n      or\n      swap1\n      sstore\n      pop\n        /* \"500 problems/disputeScenarioEscrow.sol\":1574:1588  uint256 amount */\n      0x00\n        /* \"500 problems/disputeScenarioEscrow.sol\":1591:1612  address(this).balance */\n      selfbalance\n        /* \"500 problems/disputeScenarioEscrow.sol\":1574:1612  uint256 amount = address(this).balance */\n      swap1\n      pop\n        /* \"500 problems/disputeScenarioEscrow.sol\":1624:1636  bool success */\n      0x00\n        /* \"500 problems/disputeScenarioEscrow.sol\":1650:1656  seller */\n      0x01\n      0x00\n      swap1\n      sload\n      swap1\n      0x0100\n      exp\n      swap1\n      div\n      0xffffffffffffffffffffffffffffffffffffffff\n      and\n        /* \"500 problems/disputeScenarioEscrow.sol\":1642:1662  payable(seller).call */\n      0xffffffffffffffffffffffffffffffffffffffff\n      and\n        /* \"500 problems/disputeScenarioEscrow.sol\":1670:1676  amount */\n      dup3\n        /* \"500 problems/disputeScenarioEscrow.sol\":1642:1682  payable(seller).call{value: amount} (\"\") */\n      mload(0x40)\n      tag_117\n      swap1\n      tag_67\n      jump\t// in\n    tag_117:\n      0x00\n      mload(0x40)\n      dup1\n      dup4\n      sub\n      dup2\n      dup6\n      dup8\n      gas\n      call\n      swap3\n      pop\n      pop\n      pop\n      returndatasize\n      dup1\n      0x00\n      dup2\n      eq\n      tag_120\n      jumpi\n      mload(0x40)\n      swap2\n      pop\n      and(add(returndatasize, 0x3f), not(0x1f))\n      dup3\n      add\n      0x40\n      mstore\n      returndatasize\n      dup3\n      mstore\n      returndatasize\n      0x00\n      0x20\n      dup5\n      add\n      returndatacopy\n      jump(tag_119)\n    tag_120:\n      0x60\n      swap2\n      pop\n    tag_119:\n      pop\n        /* \"500 problems/disputeScenarioEscrow.sol\":1623:1682  (bool success ,) = payable(seller).call{value: amount} (\"\") */\n      pop\n      swap1\n      pop\n        /* \"500 problems/disputeScenarioEscrow.sol\":1701:1708  success */\n      dup1\n        /* \"500 problems/disputeScenarioEscrow.sol\":1693:1709  require(success) */\n      tag_121\n      jumpi\n      0x00\n      dup1\n      revert\n    tag_121:\n        /* \"500 problems/disputeScenarioEscrow.sol\":1734:1740  seller */\n      0x01\n      0x00\n      swap1\n      sload\n      swap1\n      0x0100\n      exp\n      swap1\n      div\n      0xffffffffffffffffffffffffffffffffffffffff\n      and\n        /* \"500 problems/disputeScenarioEscrow.sol\":1725:1748  Released(seller,amount) */\n      0xffffffffffffffffffffffffffffffffffffffff\n      and\n      0xb21fb52d5749b80f3182f8c6992236b5e5576681880914484d7f4c9b062e619e\n        /* \"500 problems/disputeScenarioEscrow.sol\":1741:1747  amount */\n      dup4\n        /* \"500 problems/disputeScenarioEscrow.sol\":1725:1748  Released(seller,amount) */\n      mload(0x40)\n      tag_122\n      swap2\n      swap1\n      tag_22\n      jump\t// in\n    tag_122:\n      mload(0x40)\n      dup1\n      swap2\n      sub\n      swap1\n      log2\n        /* \"500 problems/disputeScenarioEscrow.sol\":1453:1756  {... */\n      pop\n      pop\n        /* \"500 problems/disputeScenarioEscrow.sol\":1408:1756  function releasePayment() external onlyBuyer {... */\n      jump\t// out\n        /* \"500 problems/disputeScenarioEscrow.sol\":2326:2670  function refoundBuyer() external onlyArbitrator {... */\n    tag_49:\n        /* \"500 problems/disputeScenarioEscrow.sol\":852:862  arbitrator */\n      0x02\n      0x00\n      swap1\n      sload\n      swap1\n      0x0100\n      exp\n      swap1\n      div\n      0xffffffffffffffffffffffffffffffffffffffff\n      and\n        /* \"500 problems/disputeScenarioEscrow.sol\":838:862  msg.sender == arbitrator */\n      0xffffffffffffffffffffffffffffffffffffffff\n      and\n        /* \"500 problems/disputeScenarioEscrow.sol\":838:848  msg.sender */\n      caller\n        /* \"500 problems/disputeScenarioEscrow.sol\":838:862  msg.sender == arbitrator */\n      0xffffffffffffffffffffffffffffffffffffffff\n      and\n      eq\n        /* \"500 problems/disputeScenarioEscrow.sol\":830:881  require(msg.sender == arbitrator,\"Only arbitrator\") */\n      tag_124\n      jumpi\n      mload(0x40)\n      0x08c379a000000000000000000000000000000000000000000000000000000000\n      dup2\n      mstore\n      0x04\n      add\n      tag_125\n      swap1\n      tag_54\n      jump\t// in\n    tag_125:\n      mload(0x40)\n      dup1\n      swap2\n      sub\n      swap1\n      revert\n    tag_124:\n        /* \"500 problems/disputeScenarioEscrow.sol\":2403:2418  Status.DISPUTED */\n      0x02\n        /* \"500 problems/disputeScenarioEscrow.sol\":2393:2418  status == Status.DISPUTED */\n      0x04\n      dup2\n      gt\n      iszero\n      tag_127\n      jumpi\n      tag_128\n      tag_58\n      jump\t// in\n    tag_128:\n    tag_127:\n        /* \"500 problems/disputeScenarioEscrow.sol\":2393:2399  status */\n      0x02\n      0x14\n      swap1\n      sload\n      swap1\n      0x0100\n      exp\n      swap1\n      div\n      0xff\n      and\n        /* \"500 problems/disputeScenarioEscrow.sol\":2393:2418  status == Status.DISPUTED */\n      0x04\n      dup2\n      gt\n      iszero\n      tag_129\n      jumpi\n      tag_130\n      tag_58\n      jump\t// in\n    tag_130:\n    tag_129:\n      eq\n        /* \"500 problems/disputeScenarioEscrow.sol\":2385:2431  require(status == Status.DISPUTED,\"No dispte\") */\n      tag_131\n      jumpi\n      mload(0x40)\n      0x08c379a000000000000000000000000000000000000000000000000000000000\n      dup2\n      mstore\n      0x04\n      add\n      tag_132\n      swap1\n      tag_133\n      jump\t// in\n    tag_132:\n      mload(0x40)\n      dup1\n      swap2\n      sub\n      swap1\n      revert\n    tag_131:\n        /* \"500 problems/disputeScenarioEscrow.sol\":2453:2468  Status.REFUNDED */\n      0x04\n        /* \"500 problems/disputeScenarioEscrow.sol\":2444:2450  status */\n      0x02\n      0x14\n        /* \"500 problems/disputeScenarioEscrow.sol\":2444:2468  status = Status.REFUNDED */\n      0x0100\n      exp\n      dup2\n      sload\n      dup2\n      0xff\n      mul\n      not\n      and\n      swap1\n      dup4\n      0x04\n      dup2\n      gt\n      iszero\n      tag_134\n      jumpi\n      tag_135\n      tag_58\n      jump\t// in\n    tag_135:\n    tag_134:\n      mul\n      or\n      swap1\n      sstore\n      pop\n        /* \"500 problems/disputeScenarioEscrow.sol\":2481:2495  uint256 amount */\n      0x00\n        /* \"500 problems/disputeScenarioEscrow.sol\":2498:2519  address(this).balance */\n      selfbalance\n        /* \"500 problems/disputeScenarioEscrow.sol\":2481:2519  uint256 amount = address(this).balance */\n      swap1\n      pop\n        /* \"500 problems/disputeScenarioEscrow.sol\":2533:2545  bool success */\n      0x00\n        /* \"500 problems/disputeScenarioEscrow.sol\":2559:2564  buyer */\n      dup1\n      0x00\n      swap1\n      sload\n      swap1\n      0x0100\n      exp\n      swap1\n      div\n      0xffffffffffffffffffffffffffffffffffffffff\n      and\n        /* \"500 problems/disputeScenarioEscrow.sol\":2551:2570  payable(buyer).call */\n      0xffffffffffffffffffffffffffffffffffffffff\n      and\n        /* \"500 problems/disputeScenarioEscrow.sol\":2577:2583  amount */\n      dup3\n        /* \"500 problems/disputeScenarioEscrow.sol\":2551:2588  payable(buyer).call{value:amount}(\"\") */\n      mload(0x40)\n      tag_136\n      swap1\n      tag_67\n      jump\t// in\n    tag_136:\n      0x00\n      mload(0x40)\n      dup1\n      dup4\n      sub\n      dup2\n      dup6\n      dup8\n      gas\n      call\n      swap3\n      pop\n      pop\n      pop\n      returndatasize\n      dup1\n      0x00\n      dup2\n      eq\n      tag_139\n      jumpi\n      mload(0x40)\n      swap2\n      pop\n      and(add(returndatasize, 0x3f), not(0x1f))\n      dup3\n      add\n      0x40\n      mstore\n      returndatasize\n      dup3\n      mstore\n      returndatasize\n      0x00\n      0x20\n      dup5\n      add\n      returndatacopy\n      jump(tag_138)\n    tag_139:\n      0x60\n      swap2\n      pop\n    tag_138:\n      pop\n        /* \"500 problems/disputeScenarioEscrow.sol\":2532:2588  (bool success ,) = payable(buyer).call{value:amount}(\"\") */\n      pop\n      swap1\n      pop\n        /* \"500 problems/disputeScenarioEscrow.sol\":2607:2614  success */\n      dup1\n        /* \"500 problems/disputeScenarioEscrow.sol\":2599:2615  require(success) */\n      tag_140\n      jumpi\n      0x00\n      dup1\n      revert\n    tag_140:\n        /* \"500 problems/disputeScenarioEscrow.sol\":2644:2649  buyer */\n      0x00\n      dup1\n      sload\n      swap1\n      0x0100\n      exp\n      swap1\n      div\n      0xffffffffffffffffffffffffffffffffffffffff\n      and\n        /* \"500 problems/disputeScenarioEscrow.sol\":2635:2658  Refunded(buyer, amount) */\n      0xffffffffffffffffffffffffffffffffffffffff\n      and\n      0xd7dee2702d63ad89917b6a4da9981c90c4d24f8c2bdfd64c604ecae57d8d0651\n        /* \"500 problems/disputeScenarioEscrow.sol\":2651:2657  amount */\n      dup4\n        /* \"500 problems/disputeScenarioEscrow.sol\":2635:2658  Refunded(buyer, amount) */\n      mload(0x40)\n      tag_141\n      swap2\n      swap1\n      tag_22\n      jump\t// in\n    tag_141:\n      mload(0x40)\n      dup1\n      swap2\n      sub\n      swap1\n      log2\n        /* \"500 problems/disputeScenarioEscrow.sol\":2374:2670  {... */\n      pop\n      pop\n        /* \"500 problems/disputeScenarioEscrow.sol\":2326:2670  function refoundBuyer() external onlyArbitrator {... */\n      jump\t// out\n        /* \"#utility.yul\":7:133   */\n    tag_142:\n        /* \"#utility.yul\":44:51   */\n      0x00\n        /* \"#utility.yul\":84:126   */\n      0xffffffffffffffffffffffffffffffffffffffff\n        /* \"#utility.yul\":77:82   */\n      dup3\n        /* \"#utility.yul\":73:127   */\n      and\n        /* \"#utility.yul\":62:127   */\n      swap1\n      pop\n        /* \"#utility.yul\":7:133   */\n      swap2\n      swap1\n      pop\n      jump\t// out\n        /* \"#utility.yul\":139:235   */\n    tag_143:\n        /* \"#utility.yul\":176:183   */\n      0x00\n        /* \"#utility.yul\":205:229   */\n      tag_174\n        /* \"#utility.yul\":223:228   */\n      dup3\n        /* \"#utility.yul\":205:229   */\n      tag_142\n      jump\t// in\n    tag_174:\n        /* \"#utility.yul\":194:229   */\n      swap1\n      pop\n        /* \"#utility.yul\":139:235   */\n      swap2\n      swap1\n      pop\n      jump\t// out\n        /* \"#utility.yul\":241:359   */\n    tag_144:\n        /* \"#utility.yul\":328:352   */\n      tag_176\n        /* \"#utility.yul\":346:351   */\n      dup2\n        /* \"#utility.yul\":328:352   */\n      tag_143\n      jump\t// in\n    tag_176:\n        /* \"#utility.yul\":323:326   */\n      dup3\n        /* \"#utility.yul\":316:353   */\n      mstore\n        /* \"#utility.yul\":241:359   */\n      pop\n      pop\n      jump\t// out\n        /* \"#utility.yul\":365:587   */\n    tag_17:\n        /* \"#utility.yul\":458:462   */\n      0x00\n        /* \"#utility.yul\":496:498   */\n      0x20\n        /* \"#utility.yul\":485:494   */\n      dup3\n        /* \"#utility.yul\":481:499   */\n      add\n        /* \"#utility.yul\":473:499   */\n      swap1\n      pop\n        /* \"#utility.yul\":509:580   */\n      tag_178\n        /* \"#utility.yul\":577:578   */\n      0x00\n        /* \"#utility.yul\":566:575   */\n      dup4\n        /* \"#utility.yul\":562:579   */\n      add\n        /* \"#utility.yul\":553:559   */\n      dup5\n        /* \"#utility.yul\":509:580   */\n      tag_144\n      jump\t// in\n    tag_178:\n        /* \"#utility.yul\":365:587   */\n      swap3\n      swap2\n      pop\n      pop\n      jump\t// out\n        /* \"#utility.yul\":593:670   */\n    tag_145:\n        /* \"#utility.yul\":630:637   */\n      0x00\n        /* \"#utility.yul\":659:664   */\n      dup2\n        /* \"#utility.yul\":648:664   */\n      swap1\n      pop\n        /* \"#utility.yul\":593:670   */\n      swap2\n      swap1\n      pop\n      jump\t// out\n        /* \"#utility.yul\":676:794   */\n    tag_146:\n        /* \"#utility.yul\":763:787   */\n      tag_181\n        /* \"#utility.yul\":781:786   */\n      dup2\n        /* \"#utility.yul\":763:787   */\n      tag_145\n      jump\t// in\n    tag_181:\n        /* \"#utility.yul\":758:761   */\n      dup3\n        /* \"#utility.yul\":751:788   */\n      mstore\n        /* \"#utility.yul\":676:794   */\n      pop\n      pop\n      jump\t// out\n        /* \"#utility.yul\":800:1022   */\n    tag_22:\n        /* \"#utility.yul\":893:897   */\n      0x00\n        /* \"#utility.yul\":931:933   */\n      0x20\n        /* \"#utility.yul\":920:929   */\n      dup3\n        /* \"#utility.yul\":916:934   */\n      add\n        /* \"#utility.yul\":908:934   */\n      swap1\n      pop\n        /* \"#utility.yul\":944:1015   */\n      tag_183\n        /* \"#utility.yul\":1012:1013   */\n      0x00\n        /* \"#utility.yul\":1001:1010   */\n      dup4\n        /* \"#utility.yul\":997:1014   */\n      add\n        /* \"#utility.yul\":988:994   */\n      dup5\n        /* \"#utility.yul\":944:1015   */\n      tag_146\n      jump\t// in\n    tag_183:\n        /* \"#utility.yul\":800:1022   */\n      swap3\n      swap2\n      pop\n      pop\n      jump\t// out\n        /* \"#utility.yul\":1028:1208   */\n    tag_58:\n        /* \"#utility.yul\":1076:1153   */\n      0x4e487b7100000000000000000000000000000000000000000000000000000000\n        /* \"#utility.yul\":1073:1074   */\n      0x00\n        /* \"#utility.yul\":1066:1154   */\n      mstore\n        /* \"#utility.yul\":1173:1177   */\n      0x21\n        /* \"#utility.yul\":1170:1171   */\n      0x04\n        /* \"#utility.yul\":1163:1178   */\n      mstore\n        /* \"#utility.yul\":1197:1201   */\n      0x24\n        /* \"#utility.yul\":1194:1195   */\n      0x00\n        /* \"#utility.yul\":1187:1202   */\n      revert\n        /* \"#utility.yul\":1214:1327   */\n    tag_147:\n        /* \"#utility.yul\":1295:1296   */\n      0x05\n        /* \"#utility.yul\":1288:1293   */\n      dup2\n        /* \"#utility.yul\":1285:1297   */\n      lt\n        /* \"#utility.yul\":1275:1321   */\n      tag_186\n      jumpi\n        /* \"#utility.yul\":1301:1319   */\n      tag_187\n      tag_58\n      jump\t// in\n    tag_187:\n        /* \"#utility.yul\":1275:1321   */\n    tag_186:\n        /* \"#utility.yul\":1214:1327   */\n      pop\n      jump\t// out\n        /* \"#utility.yul\":1333:1460   */\n    tag_148:\n        /* \"#utility.yul\":1378:1385   */\n      0x00\n        /* \"#utility.yul\":1407:1412   */\n      dup2\n        /* \"#utility.yul\":1396:1412   */\n      swap1\n      pop\n        /* \"#utility.yul\":1413:1454   */\n      tag_189\n        /* \"#utility.yul\":1448:1453   */\n      dup3\n        /* \"#utility.yul\":1413:1454   */\n      tag_147\n      jump\t// in\n    tag_189:\n        /* \"#utility.yul\":1333:1460   */\n      swap2\n      swap1\n      pop\n      jump\t// out\n        /* \"#utility.yul\":1466:1593   */\n    tag_149:\n        /* \"#utility.yul\":1522:1531   */\n      0x00\n        /* \"#utility.yul\":1555:1587   */\n      tag_191\n        /* \"#utility.yul\":1581:1586   */\n      dup3\n        /* \"#utility.yul\":1555:1587   */\n      tag_148\n      jump\t// in\n    tag_191:\n        /* \"#utility.yul\":1542:1587   */\n      swap1\n      pop\n        /* \"#utility.yul\":1466:1593   */\n      swap2\n      swap1\n      pop\n      jump\t// out\n        /* \"#utility.yul\":1599:1742   */\n    tag_150:\n        /* \"#utility.yul\":1692:1735   */\n      tag_193\n        /* \"#utility.yul\":1729:1734   */\n      dup2\n        /* \"#utility.yul\":1692:1735   */\n      tag_149\n      jump\t// in\n    tag_193:\n        /* \"#utility.yul\":1687:1690   */\n      dup3\n        /* \"#utility.yul\":1680:1736   */\n      mstore\n        /* \"#utility.yul\":1599:1742   */\n      pop\n      pop\n      jump\t// out\n        /* \"#utility.yul\":1748:1982   */\n    tag_30:\n        /* \"#utility.yul\":1847:1851   */\n      0x00\n        /* \"#utility.yul\":1885:1887   */\n      0x20\n        /* \"#utility.yul\":1874:1883   */\n      dup3\n        /* \"#utility.yul\":1870:1888   */\n      add\n        /* \"#utility.yul\":1862:1888   */\n      swap1\n      pop\n        /* \"#utility.yul\":1898:1975   */\n      tag_195\n        /* \"#utility.yul\":1972:1973   */\n      0x00\n        /* \"#utility.yul\":1961:1970   */\n      dup4\n        /* \"#utility.yul\":1957:1974   */\n      add\n        /* \"#utility.yul\":1948:1954   */\n      dup5\n        /* \"#utility.yul\":1898:1975   */\n      tag_150\n      jump\t// in\n    tag_195:\n        /* \"#utility.yul\":1748:1982   */\n      swap3\n      swap2\n      pop\n      pop\n      jump\t// out\n        /* \"#utility.yul\":1988:2157   */\n    tag_151:\n        /* \"#utility.yul\":2072:2083   */\n      0x00\n        /* \"#utility.yul\":2106:2112   */\n      dup3\n        /* \"#utility.yul\":2101:2104   */\n      dup3\n        /* \"#utility.yul\":2094:2113   */\n      mstore\n        /* \"#utility.yul\":2146:2150   */\n      0x20\n        /* \"#utility.yul\":2141:2144   */\n      dup3\n        /* \"#utility.yul\":2137:2151   */\n      add\n        /* \"#utility.yul\":2122:2151   */\n      swap1\n      pop\n        /* \"#utility.yul\":1988:2157   */\n      swap3\n      swap2\n      pop\n      pop\n      jump\t// out\n        /* \"#utility.yul\":2163:2328   */\n    tag_152:\n        /* \"#utility.yul\":2303:2320   */\n      0x4f6e6c792061726269747261746f720000000000000000000000000000000000\n        /* \"#utility.yul\":2299:2300   */\n      0x00\n        /* \"#utility.yul\":2291:2297   */\n      dup3\n        /* \"#utility.yul\":2287:2301   */\n      add\n        /* \"#utility.yul\":2280:2321   */\n      mstore\n        /* \"#utility.yul\":2163:2328   */\n      pop\n      jump\t// out\n        /* \"#utility.yul\":2334:2700   */\n    tag_153:\n        /* \"#utility.yul\":2476:2479   */\n      0x00\n        /* \"#utility.yul\":2497:2564   */\n      tag_199\n        /* \"#utility.yul\":2561:2563   */\n      0x0f\n        /* \"#utility.yul\":2556:2559   */\n      dup4\n        /* \"#utility.yul\":2497:2564   */\n      tag_151\n      jump\t// in\n    tag_199:\n        /* \"#utility.yul\":2490:2564   */\n      swap2\n      pop\n        /* \"#utility.yul\":2573:2666   */\n      tag_200\n        /* \"#utility.yul\":2662:2665   */\n      dup3\n        /* \"#utility.yul\":2573:2666   */\n      tag_152\n      jump\t// in\n    tag_200:\n        /* \"#utility.yul\":2691:2693   */\n      0x20\n        /* \"#utility.yul\":2686:2689   */\n      dup3\n        /* \"#utility.yul\":2682:2694   */\n      add\n        /* \"#utility.yul\":2675:2694   */\n      swap1\n      pop\n        /* \"#utility.yul\":2334:2700   */\n      swap2\n      swap1\n      pop\n      jump\t// out\n        /* \"#utility.yul\":2706:3125   */\n    tag_54:\n        /* \"#utility.yul\":2872:2876   */\n      0x00\n        /* \"#utility.yul\":2910:2912   */\n      0x20\n        /* \"#utility.yul\":2899:2908   */\n      dup3\n        /* \"#utility.yul\":2895:2913   */\n      add\n        /* \"#utility.yul\":2887:2913   */\n      swap1\n      pop\n        /* \"#utility.yul\":2959:2968   */\n      dup2\n        /* \"#utility.yul\":2953:2957   */\n      dup2\n        /* \"#utility.yul\":2949:2969   */\n      sub\n        /* \"#utility.yul\":2945:2946   */\n      0x00\n        /* \"#utility.yul\":2934:2943   */\n      dup4\n        /* \"#utility.yul\":2930:2947   */\n      add\n        /* \"#utility.yul\":2923:2970   */\n      mstore\n        /* \"#utility.yul\":2987:3118   */\n      tag_202\n        /* \"#utility.yul\":3113:3117   */\n      dup2\n        /* \"#utility.yul\":2987:3118   */\n      tag_153\n      jump\t// in\n    tag_202:\n        /* \"#utility.yul\":2979:3118   */\n      swap1\n      pop\n        /* \"#utility.yul\":2706:3125   */\n      swap2\n      swap1\n      pop\n      jump\t// out\n        /* \"#utility.yul\":3131:3291   */\n    tag_154:\n        /* \"#utility.yul\":3271:3283   */\n      0x4e6f206469737075746500000000000000000000000000000000000000000000\n        /* \"#utility.yul\":3267:3268   */\n      0x00\n        /* \"#utility.yul\":3259:3265   */\n      dup3\n        /* \"#utility.yul\":3255:3269   */\n      add\n        /* \"#utility.yul\":3248:3284   */\n      mstore\n        /* \"#utility.yul\":3131:3291   */\n      pop\n      jump\t// out\n        /* \"#utility.yul\":3297:3663   */\n    tag_155:\n        /* \"#utility.yul\":3439:3442   */\n      0x00\n        /* \"#utility.yul\":3460:3527   */\n      tag_205\n        /* \"#utility.yul\":3524:3526   */\n      0x0a\n        /* \"#utility.yul\":3519:3522   */\n      dup4\n        /* \"#utility.yul\":3460:3527   */\n      tag_151\n      jump\t// in\n    tag_205:\n        /* \"#utility.yul\":3453:3527   */\n      swap2\n      pop\n        /* \"#utility.yul\":3536:3629   */\n      tag_206\n        /* \"#utility.yul\":3625:3628   */\n      dup3\n        /* \"#utility.yul\":3536:3629   */\n      tag_154\n      jump\t// in\n    tag_206:\n        /* \"#utility.yul\":3654:3656   */\n      0x20\n        /* \"#utility.yul\":3649:3652   */\n      dup3\n        /* \"#utility.yul\":3645:3657   */\n      add\n        /* \"#utility.yul\":3638:3657   */\n      swap1\n      pop\n        /* \"#utility.yul\":3297:3663   */\n      swap2\n      swap1\n      pop\n      jump\t// out\n        /* \"#utility.yul\":3669:4088   */\n    tag_63:\n        /* \"#utility.yul\":3835:3839   */\n      0x00\n        /* \"#utility.yul\":3873:3875   */\n      0x20\n        /* \"#utility.yul\":3862:3871   */\n      dup3\n        /* \"#utility.yul\":3858:3876   */\n      add\n        /* \"#utility.yul\":3850:3876   */\n      swap1\n      pop\n        /* \"#utility.yul\":3922:3931   */\n      dup2\n        /* \"#utility.yul\":3916:3920   */\n      dup2\n        /* \"#utility.yul\":3912:3932   */\n      sub\n        /* \"#utility.yul\":3908:3909   */\n      0x00\n        /* \"#utility.yul\":3897:3906   */\n      dup4\n        /* \"#utility.yul\":3893:3910   */\n      add\n        /* \"#utility.yul\":3886:3933   */\n      mstore\n        /* \"#utility.yul\":3950:4081   */\n      tag_208\n        /* \"#utility.yul\":4076:4080   */\n      dup2\n        /* \"#utility.yul\":3950:4081   */\n      tag_155\n      jump\t// in\n    tag_208:\n        /* \"#utility.yul\":3942:4081   */\n      swap1\n      pop\n        /* \"#utility.yul\":3669:4088   */\n      swap2\n      swap1\n      pop\n      jump\t// out\n        /* \"#utility.yul\":4094:4241   */\n    tag_156:\n        /* \"#utility.yul\":4195:4206   */\n      0x00\n        /* \"#utility.yul\":4232:4235   */\n      dup2\n        /* \"#utility.yul\":4217:4235   */\n      swap1\n      pop\n        /* \"#utility.yul\":4094:4241   */\n      swap3\n      swap2\n      pop\n      pop\n      jump\t// out\n        /* \"#utility.yul\":4247:4361   */\n    tag_157:\n      pop\n      jump\t// out\n        /* \"#utility.yul\":4367:4765   */\n    tag_158:\n        /* \"#utility.yul\":4526:4529   */\n      0x00\n        /* \"#utility.yul\":4547:4630   */\n      tag_212\n        /* \"#utility.yul\":4628:4629   */\n      0x00\n        /* \"#utility.yul\":4623:4626   */\n      dup4\n        /* \"#utility.yul\":4547:4630   */\n      tag_156\n      jump\t// in\n    tag_212:\n        /* \"#utility.yul\":4540:4630   */\n      swap2\n      pop\n        /* \"#utility.yul\":4639:4732   */\n      tag_213\n        /* \"#utility.yul\":4728:4731   */\n      dup3\n        /* \"#utility.yul\":4639:4732   */\n      tag_157\n      jump\t// in\n    tag_213:\n        /* \"#utility.yul\":4757:4758   */\n      0x00\n        /* \"#utility.yul\":4752:4755   */\n      dup3\n        /* \"#utility.yul\":4748:4759   */\n      add\n        /* \"#utility.yul\":4741:4759   */\n      swap1\n      pop\n        /* \"#utility.yul\":4367:4765   */\n      swap2\n      swap1\n      pop\n      jump\t// out\n        /* \"#utility.yul\":4771:5150   */\n    tag_67:\n        /* \"#utility.yul\":4955:4958   */\n      0x00\n        /* \"#utility.yul\":4977:5124   */\n      tag_215\n        /* \"#utility.yul\":5120:5123   */\n      dup3\n        /* \"#utility.yul\":4977:5124   */\n      tag_158\n      jump\t// in\n    tag_215:\n        /* \"#utility.yul\":4970:5124   */\n      swap2\n      pop\n        /* \"#utility.yul\":5141:5144   */\n      dup2\n        /* \"#utility.yul\":5134:5144   */\n      swap1\n      pop\n        /* \"#utility.yul\":4771:5150   */\n      swap2\n      swap1\n      pop\n      jump\t// out\n        /* \"#utility.yul\":5156:5316   */\n    tag_159:\n        /* \"#utility.yul\":5296:5308   */\n      0x4f6e6c7920627579657200000000000000000000000000000000000000000000\n        /* \"#utility.yul\":5292:5293   */\n      0x00\n        /* \"#utility.yul\":5284:5290   */\n      dup3\n        /* \"#utility.yul\":5280:5294   */\n      add\n        /* \"#utility.yul\":5273:5309   */\n      mstore\n        /* \"#utility.yul\":5156:5316   */\n      pop\n      jump\t// out\n        /* \"#utility.yul\":5322:5688   */\n    tag_160:\n        /* \"#utility.yul\":5464:5467   */\n      0x00\n        /* \"#utility.yul\":5485:5552   */\n      tag_218\n        /* \"#utility.yul\":5549:5551   */\n      0x0a\n        /* \"#utility.yul\":5544:5547   */\n      dup4\n        /* \"#utility.yul\":5485:5552   */\n      tag_151\n      jump\t// in\n    tag_218:\n        /* \"#utility.yul\":5478:5552   */\n      swap2\n      pop\n        /* \"#utility.yul\":5561:5654   */\n      tag_219\n        /* \"#utility.yul\":5650:5653   */\n      dup3\n        /* \"#utility.yul\":5561:5654   */\n      tag_159\n      jump\t// in\n    tag_219:\n        /* \"#utility.yul\":5679:5681   */\n      0x20\n        /* \"#utility.yul\":5674:5677   */\n      dup3\n        /* \"#utility.yul\":5670:5682   */\n      add\n        /* \"#utility.yul\":5663:5682   */\n      swap1\n      pop\n        /* \"#utility.yul\":5322:5688   */\n      swap2\n      swap1\n      pop\n      jump\t// out\n        /* \"#utility.yul\":5694:6113   */\n    tag_76:\n        /* \"#utility.yul\":5860:5864   */\n      0x00\n        /* \"#utility.yul\":5898:5900   */\n      0x20\n        /* \"#utility.yul\":5887:5896   */\n      dup3\n        /* \"#utility.yul\":5883:5901   */\n      add\n        /* \"#utility.yul\":5875:5901   */\n      swap1\n      pop\n        /* \"#utility.yul\":5947:5956   */\n      dup2\n        /* \"#utility.yul\":5941:5945   */\n      dup2\n        /* \"#utility.yul\":5937:5957   */\n      sub\n        /* \"#utility.yul\":5933:5934   */\n      0x00\n        /* \"#utility.yul\":5922:5931   */\n      dup4\n        /* \"#utility.yul\":5918:5935   */\n      add\n        /* \"#utility.yul\":5911:5958   */\n      mstore\n        /* \"#utility.yul\":5975:6106   */\n      tag_221\n        /* \"#utility.yul\":6101:6105   */\n      dup2\n        /* \"#utility.yul\":5975:6106   */\n      tag_160\n      jump\t// in\n    tag_221:\n        /* \"#utility.yul\":5967:6106   */\n      swap1\n      pop\n        /* \"#utility.yul\":5694:6113   */\n      swap2\n      swap1\n      pop\n      jump\t// out\n        /* \"#utility.yul\":6119:6283   */\n    tag_161:\n        /* \"#utility.yul\":6259:6275   */\n      0x2043616e6e6f7420646973707574000000000000000000000000000000000000\n        /* \"#utility.yul\":6255:6256   */\n      0x00\n        /* \"#utility.yul\":6247:6253   */\n      dup3\n        /* \"#utility.yul\":6243:6257   */\n      add\n        /* \"#utility.yul\":6236:6276   */\n      mstore\n        /* \"#utility.yul\":6119:6283   */\n      pop\n      jump\t// out\n        /* \"#utility.yul\":6289:6655   */\n    tag_162:\n        /* \"#utility.yul\":6431:6434   */\n      0x00\n        /* \"#utility.yul\":6452:6519   */\n      tag_224\n        /* \"#utility.yul\":6516:6518   */\n      0x0e\n        /* \"#utility.yul\":6511:6514   */\n      dup4\n        /* \"#utility.yul\":6452:6519   */\n      tag_151\n      jump\t// in\n    tag_224:\n        /* \"#utility.yul\":6445:6519   */\n      swap2\n      pop\n        /* \"#utility.yul\":6528:6621   */\n      tag_225\n        /* \"#utility.yul\":6617:6620   */\n      dup3\n        /* \"#utility.yul\":6528:6621   */\n      tag_161\n      jump\t// in\n    tag_225:\n        /* \"#utility.yul\":6646:6648   */\n      0x20\n        /* \"#utility.yul\":6641:6644   */\n      dup3\n        /* \"#utility.yul\":6637:6649   */\n      add\n        /* \"#utility.yul\":6630:6649   */\n      swap1\n      pop\n        /* \"#utility.yul\":6289:6655   */\n      swap2\n      swap1\n      pop\n      jump\t// out\n        /* \"#utility.yul\":6661:7080   */\n    tag_84:\n        /* \"#utility.yul\":6827:6831   */\n      0x00\n        /* \"#utility.yul\":6865:6867   */\n      0x20\n        /* \"#utility.yul\":6854:6863   */\n      dup3\n        /* \"#utility.yul\":6850:6868   */\n      add\n        /* \"#utility.yul\":6842:6868   */\n      swap1\n      pop\n        /* \"#utility.yul\":6914:6923   */\n      dup2\n        /* \"#utility.yul\":6908:6912   */\n      dup2\n        /* \"#utility.yul\":6904:6924   */\n      sub\n        /* \"#utility.yul\":6900:6901   */\n      0x00\n        /* \"#utility.yul\":6889:6898   */\n      dup4\n        /* \"#utility.yul\":6885:6902   */\n      add\n        /* \"#utility.yul\":6878:6925   */\n      mstore\n        /* \"#utility.yul\":6942:7073   */\n      tag_227\n        /* \"#utility.yul\":7068:7072   */\n      dup2\n        /* \"#utility.yul\":6942:7073   */\n      tag_162\n      jump\t// in\n    tag_227:\n        /* \"#utility.yul\":6934:7073   */\n      swap1\n      pop\n        /* \"#utility.yul\":6661:7080   */\n      swap2\n      swap1\n      pop\n      jump\t// out\n        /* \"#utility.yul\":7086:7250   */\n    tag_163:\n        /* \"#utility.yul\":7226:7242   */\n      0x496e76616c696420737461747573000000000000000000000000000000000000\n        /* \"#utility.yul\":7222:7223   */\n      0x00\n        /* \"#utility.yul\":7214:7220   */\n      dup3\n        /* \"#utility.yul\":7210:7224   */\n      add\n        /* \"#utility.yul\":7203:7243   */\n      mstore\n        /* \"#utility.yul\":7086:7250   */\n      pop\n      jump\t// out\n        /* \"#utility.yul\":7256:7622   */\n    tag_164:\n        /* \"#utility.yul\":7398:7401   */\n      0x00\n        /* \"#utility.yul\":7419:7486   */\n      tag_230\n        /* \"#utility.yul\":7483:7485   */\n      0x0e\n        /* \"#utility.yul\":7478:7481   */\n      dup4\n        /* \"#utility.yul\":7419:7486   */\n      tag_151\n      jump\t// in\n    tag_230:\n        /* \"#utility.yul\":7412:7486   */\n      swap2\n      pop\n        /* \"#utility.yul\":7495:7588   */\n      tag_231\n        /* \"#utility.yul\":7584:7587   */\n      dup3\n        /* \"#utility.yul\":7495:7588   */\n      tag_163\n      jump\t// in\n    tag_231:\n        /* \"#utility.yul\":7613:7615   */\n      0x20\n        /* \"#utility.yul\":7608:7611   */\n      dup3\n        /* \"#utility.yul\":7604:7616   */\n      add\n        /* \"#utility.yul\":7597:7616   */\n      swap1\n      pop\n        /* \"#utility.yul\":7256:7622   */\n      swap2\n      swap1\n      pop\n      jump\t// out\n        /* \"#utility.yul\":7628:8047   */\n    tag_97:\n        /* \"#utility.yul\":7794:7798   */\n      0x00\n        /* \"#utility.yul\":7832:7834   */\n      0x20\n        /* \"#utility.yul\":7821:7830   */\n      dup3\n        /* \"#utility.yul\":7817:7835   */\n      add\n        /* \"#utility.yul\":7809:7835   */\n      swap1\n      pop\n        /* \"#utility.yul\":7881:7890   */\n      dup2\n        /* \"#utility.yul\":7875:7879   */\n      dup2\n        /* \"#utility.yul\":7871:7891   */\n      sub\n        /* \"#utility.yul\":7867:7868   */\n      0x00\n        /* \"#utility.yul\":7856:7865   */\n      dup4\n        /* \"#utility.yul\":7852:7869   */\n      add\n        /* \"#utility.yul\":7845:7892   */\n      mstore\n        /* \"#utility.yul\":7909:8040   */\n      tag_233\n        /* \"#utility.yul\":8035:8039   */\n      dup2\n        /* \"#utility.yul\":7909:8040   */\n      tag_164\n      jump\t// in\n    tag_233:\n        /* \"#utility.yul\":7901:8040   */\n      swap1\n      pop\n        /* \"#utility.yul\":7628:8047   */\n      swap2\n      swap1\n      pop\n      jump\t// out\n        /* \"#utility.yul\":8053:8211   */\n    tag_165:\n        /* \"#utility.yul\":8193:8203   */\n      0x53656e6420455448000000000000000000000000000000000000000000000000\n        /* \"#utility.yul\":8189:8190   */\n      0x00\n        /* \"#utility.yul\":8181:8187   */\n      dup3\n        /* \"#utility.yul\":8177:8191   */\n      add\n        /* \"#utility.yul\":8170:8204   */\n      mstore\n        /* \"#utility.yul\":8053:8211   */\n      pop\n      jump\t// out\n        /* \"#utility.yul\":8217:8582   */\n    tag_166:\n        /* \"#utility.yul\":8359:8362   */\n      0x00\n        /* \"#utility.yul\":8380:8446   */\n      tag_236\n        /* \"#utility.yul\":8444:8445   */\n      0x08\n        /* \"#utility.yul\":8439:8442   */\n      dup4\n        /* \"#utility.yul\":8380:8446   */\n      tag_151\n      jump\t// in\n    tag_236:\n        /* \"#utility.yul\":8373:8446   */\n      swap2\n      pop\n        /* \"#utility.yul\":8455:8548   */\n      tag_237\n        /* \"#utility.yul\":8544:8547   */\n      dup3\n        /* \"#utility.yul\":8455:8548   */\n      tag_165\n      jump\t// in\n    tag_237:\n        /* \"#utility.yul\":8573:8575   */\n      0x20\n        /* \"#utility.yul\":8568:8571   */\n      dup3\n        /* \"#utility.yul\":8564:8576   */\n      add\n        /* \"#utility.yul\":8557:8576   */\n      swap1\n      pop\n        /* \"#utility.yul\":8217:8582   */\n      swap2\n      swap1\n      pop\n      jump\t// out\n        /* \"#utility.yul\":8588:9007   */\n    tag_100:\n        /* \"#utility.yul\":8754:8758   */\n      0x00\n        /* \"#utility.yul\":8792:8794   */\n      0x20\n        /* \"#utility.yul\":8781:8790   */\n      dup3\n        /* \"#utility.yul\":8777:8795   */\n      add\n        /* \"#utility.yul\":8769:8795   */\n      swap1\n      pop\n        /* \"#utility.yul\":8841:8850   */\n      dup2\n        /* \"#utility.yul\":8835:8839   */\n      dup2\n        /* \"#utility.yul\":8831:8851   */\n      sub\n        /* \"#utility.yul\":8827:8828   */\n      0x00\n        /* \"#utility.yul\":8816:8825   */\n      dup4\n        /* \"#utility.yul\":8812:8829   */\n      add\n        /* \"#utility.yul\":8805:8852   */\n      mstore\n        /* \"#utility.yul\":8869:9000   */\n      tag_239\n        /* \"#utility.yul\":8995:8999   */\n      dup2\n        /* \"#utility.yul\":8869:9000   */\n      tag_166\n      jump\t// in\n    tag_239:\n        /* \"#utility.yul\":8861:9000   */\n      swap1\n      pop\n        /* \"#utility.yul\":8588:9007   */\n      swap2\n      swap1\n      pop\n      jump\t// out\n        /* \"#utility.yul\":9013:9177   */\n    tag_167:\n        /* \"#utility.yul\":9153:9169   */\n      0x43616e6e6f742072656c65617365000000000000000000000000000000000000\n        /* \"#utility.yul\":9149:9150   */\n      0x00\n        /* \"#utility.yul\":9141:9147   */\n      dup3\n        /* \"#utility.yul\":9137:9151   */\n      add\n        /* \"#utility.yul\":9130:9170   */\n      mstore\n        /* \"#utility.yul\":9013:9177   */\n      pop\n      jump\t// out\n        /* \"#utility.yul\":9183:9549   */\n    tag_168:\n        /* \"#utility.yul\":9325:9328   */\n      0x00\n        /* \"#utility.yul\":9346:9413   */\n      tag_242\n        /* \"#utility.yul\":9410:9412   */\n      0x0e\n        /* \"#utility.yul\":9405:9408   */\n      dup4\n        /* \"#utility.yul\":9346:9413   */\n      tag_151\n      jump\t// in\n    tag_242:\n        /* \"#utility.yul\":9339:9413   */\n      swap2\n      pop\n        /* \"#utility.yul\":9422:9515   */\n      tag_243\n        /* \"#utility.yul\":9511:9514   */\n      dup3\n        /* \"#utility.yul\":9422:9515   */\n      tag_167\n      jump\t// in\n    tag_243:\n        /* \"#utility.yul\":9540:9542   */\n      0x20\n        /* \"#utility.yul\":9535:9538   */\n      dup3\n        /* \"#utility.yul\":9531:9543   */\n      add\n        /* \"#utility.yul\":9524:9543   */\n      swap1\n      pop\n        /* \"#utility.yul\":9183:9549   */\n      swap2\n      swap1\n      pop\n      jump\t// out\n        /* \"#utility.yul\":9555:9974   */\n    tag_114:\n        /* \"#utility.yul\":9721:9725   */\n      0x00\n        /* \"#utility.yul\":9759:9761   */\n      0x20\n        /* \"#utility.yul\":9748:9757   */\n      dup3\n        /* \"#utility.yul\":9744:9762   */\n      add\n        /* \"#utility.yul\":9736:9762   */\n      swap1\n      pop\n        /* \"#utility.yul\":9808:9817   */\n      dup2\n        /* \"#utility.yul\":9802:9806   */\n      dup2\n        /* \"#utility.yul\":9798:9818   */\n      sub\n        /* \"#utility.yul\":9794:9795   */\n      0x00\n        /* \"#utility.yul\":9783:9792   */\n      dup4\n        /* \"#utility.yul\":9779:9796   */\n      add\n        /* \"#utility.yul\":9772:9819   */\n      mstore\n        /* \"#utility.yul\":9836:9967   */\n      tag_245\n        /* \"#utility.yul\":9962:9966   */\n      dup2\n        /* \"#utility.yul\":9836:9967   */\n      tag_168\n      jump\t// in\n    tag_245:\n        /* \"#utility.yul\":9828:9967   */\n      swap1\n      pop\n        /* \"#utility.yul\":9555:9974   */\n      swap2\n      swap1\n      pop\n      jump\t// out\n        /* \"#utility.yul\":9980:10139   */\n    tag_169:\n        /* \"#utility.yul\":10120:10131   */\n      0x4e6f206469737074650000000000000000000000000000000000000000000000\n        /* \"#utility.yul\":10116:10117   */\n      0x00\n        /* \"#utility.yul\":10108:10114   */\n      dup3\n        /* \"#utility.yul\":10104:10118   */\n      add\n        /* \"#utility.yul\":10097:10132   */\n      mstore\n        /* \"#utility.yul\":9980:10139   */\n      pop\n      jump\t// out\n        /* \"#utility.yul\":10145:10510   */\n    tag_170:\n        /* \"#utility.yul\":10287:10290   */\n      0x00\n        /* \"#utility.yul\":10308:10374   */\n      tag_248\n        /* \"#utility.yul\":10372:10373   */\n      0x09\n        /* \"#utility.yul\":10367:10370   */\n      dup4\n        /* \"#utility.yul\":10308:10374   */\n      tag_151\n      jump\t// in\n    tag_248:\n        /* \"#utility.yul\":10301:10374   */\n      swap2\n      pop\n        /* \"#utility.yul\":10383:10476   */\n      tag_249\n        /* \"#utility.yul\":10472:10475   */\n      dup3\n        /* \"#utility.yul\":10383:10476   */\n      tag_169\n      jump\t// in\n    tag_249:\n        /* \"#utility.yul\":10501:10503   */\n      0x20\n        /* \"#utility.yul\":10496:10499   */\n      dup3\n        /* \"#utility.yul\":10492:10504   */\n      add\n        /* \"#utility.yul\":10485:10504   */\n      swap1\n      pop\n        /* \"#utility.yul\":10145:10510   */\n      swap2\n      swap1\n      pop\n      jump\t// out\n        /* \"#utility.yul\":10516:10935   */\n    tag_133:\n        /* \"#utility.yul\":10682:10686   */\n      0x00\n        /* \"#utility.yul\":10720:10722   */\n      0x20\n        /* \"#utility.yul\":10709:10718   */\n      dup3\n        /* \"#utility.yul\":10705:10723   */\n      add\n        /* \"#utility.yul\":10697:10723   */\n      swap1\n      pop\n        /* \"#utility.yul\":10769:10778   */\n      dup2\n        /* \"#utility.yul\":10763:10767   */\n      dup2\n        /* \"#utility.yul\":10759:10779   */\n      sub\n        /* \"#utility.yul\":10755:10756   */\n      0x00\n        /* \"#utility.yul\":10744:10753   */\n      dup4\n        /* \"#utility.yul\":10740:10757   */\n      add\n        /* \"#utility.yul\":10733:10780   */\n      mstore\n        /* \"#utility.yul\":10797:10928   */\n      tag_251\n        /* \"#utility.yul\":10923:10927   */\n      dup2\n        /* \"#utility.yul\":10797:10928   */\n      tag_170\n      jump\t// in\n    tag_251:\n        /* \"#utility.yul\":10789:10928   */\n      swap1\n      pop\n        /* \"#utility.yul\":10516:10935   */\n      swap2\n      swap1\n      pop\n      jump\t// out\n\n    auxdata: 0xa2646970667358221220656398f504b2361ef36ecd7c0324ceccd79a065525bd202b05699662ff56ed4064736f6c63430008160033\n}\n",
				"bytecode": {
					"linkReferences": {},
					"object": "608060405234801562000010575f80fd5b50604051620013103803806200131083398181016040528101906200003691906200018f565b335f806101000a81548173ffffffffffffffffffffffffffffffffffffffff021916908373ffffffffffffffffffffffffffffffffffffffff1602179055508160015f6101000a81548173ffffffffffffffffffffffffffffffffffffffff021916908373ffffffffffffffffffffffffffffffffffffffff1602179055508060025f6101000a81548173ffffffffffffffffffffffffffffffffffffffff021916908373ffffffffffffffffffffffffffffffffffffffff1602179055505f600260146101000a81548160ff021916908360048111156200011d576200011c620001d4565b5b0217905550505062000201565b5f80fd5b5f73ffffffffffffffffffffffffffffffffffffffff82169050919050565b5f62000159826200012e565b9050919050565b6200016b816200014d565b811462000176575f80fd5b50565b5f81519050620001898162000160565b92915050565b5f8060408385031215620001a857620001a76200012a565b5b5f620001b78582860162000179565b9250506020620001ca8582860162000179565b9150509250929050565b7f4e487b71000000000000000000000000000000000000000000000000000000005f52602160045260245ffd5b611101806200020f5f395ff3fe608060405260043610610090575f3560e01c80637150d8ae116100585780637150d8ae14610152578063cb704e2c1461017c578063d0e30db014610192578063d116c8c41461019c578063f4ccf5b5146101b257610090565b806308551a531461009457806312065fe0146100be5780631569072c146100e8578063200d2ed2146100fe5780636cc6cde114610128575b5f80fd5b34801561009f575f80fd5b506100a86101c8565b6040516100b59190610c64565b60405180910390f35b3480156100c9575f80fd5b506100d26101ed565b6040516100df9190610c95565b60405180910390f35b3480156100f3575f80fd5b506100fc6101f4565b005b348015610109575f80fd5b5061011261042d565b60405161011f9190610d21565b60405180910390f35b348015610133575f80fd5b5061013c610440565b6040516101499190610c64565b60405180910390f35b34801561015d575f80fd5b50610166610465565b6040516101739190610c64565b60405180910390f35b348015610187575f80fd5b50610190610488565b005b61019a6105fa565b005b3480156101a7575f80fd5b506101b06107b9565b005b3480156101bd575f80fd5b506101c66109ef565b005b60015f9054906101000a900473ffffffffffffffffffffffffffffffffffffffff1681565b5f47905090565b60025f9054906101000a900473ffffffffffffffffffffffffffffffffffffffff1673ffffffffffffffffffffffffffffffffffffffff163373ffffffffffffffffffffffffffffffffffffffff1614610283576040517f08c379a000000000000000000000000000000000000000000000000000000000815260040161027a90610d94565b60405180910390fd5b6002600481111561029757610296610cae565b5b600260149054906101000a900460ff1660048111156102b9576102b8610cae565b5b146102f9576040517f08c379a00000000000000000000000000000000000000000000000000000000081526004016102f090610dfc565b60405180910390fd5b6003600260146101000a81548160ff0219169083600481111561031f5761031e610cae565b5b02179055505f4790505f60015f9054906101000a900473ffffffffffffffffffffffffffffffffffffffff1673ffffffffffffffffffffffffffffffffffffffff168260405161036e90610e47565b5f6040518083038185875af1925050503d805f81146103a8576040519150601f19603f3d011682016040523d82523d5f602084013e6103ad565b606091505b50509050806103ba575f80fd5b60015f9054906101000a900473ffffffffffffffffffffffffffffffffffffffff1673ffffffffffffffffffffffffffffffffffffffff167fb21fb52d5749b80f3182f8c6992236b5e5576681880914484d7f4c9b062e619e836040516104219190610c95565b60405180910390a25050565b600260149054906101000a900460ff1681565b60025f9054906101000a900473ffffffffffffffffffffffffffffffffffffffff1681565b5f8054906101000a900473ffffffffffffffffffffffffffffffffffffffff1681565b5f8054906101000a900473ffffffffffffffffffffffffffffffffffffffff1673ffffffffffffffffffffffffffffffffffffffff163373ffffffffffffffffffffffffffffffffffffffff1614610515576040517f08c379a000000000000000000000000000000000000000000000000000000000815260040161050c90610ea5565b60405180910390fd5b6001600481111561052957610528610cae565b5b600260149054906101000a900460ff16600481111561054b5761054a610cae565b5b1461058b576040517f08c379a000000000000000000000000000000000000000000000000000000000815260040161058290610f0d565b60405180910390fd5b60028060146101000a81548160ff021916908360048111156105b0576105af610cae565b5b02179055503373ffffffffffffffffffffffffffffffffffffffff167f0b3cd97b16a08a5c77357c276d248827ad32dfd56060f7c55d6255537ba3d96260405160405180910390a2565b5f8054906101000a900473ffffffffffffffffffffffffffffffffffffffff1673ffffffffffffffffffffffffffffffffffffffff163373ffffffffffffffffffffffffffffffffffffffff1614610687576040517f08c379a000000000000000000000000000000000000000000000000000000000815260040161067e90610ea5565b60405180910390fd5b5f600481111561069a57610699610cae565b5b600260149054906101000a900460ff1660048111156106bc576106bb610cae565b5b146106fc576040517f08c379a00000000000000000000000000000000000000000000000000000000081526004016106f390610f75565b60405180910390fd5b5f341161073e576040517f08c379a000000000000000000000000000000000000000000000000000000000815260040161073590610fdd565b60405180910390fd5b6001600260146101000a81548160ff0219169083600481111561076457610763610cae565b5b02179055503373ffffffffffffffffffffffffffffffffffffffff167f2da466a7b24304f47e87fa2e1e5a81b9831ce54fec19055ce277ca2f39ba42c4346040516107af9190610c95565b60405180910390a2565b5f8054906101000a900473ffffffffffffffffffffffffffffffffffffffff1673ffffffffffffffffffffffffffffffffffffffff163373ffffffffffffffffffffffffffffffffffffffff1614610846576040517f08c379a000000000000000000000000000000000000000000000000000000000815260040161083d90610ea5565b60405180910390fd5b5f600481111561085957610858610cae565b5b600260149054906101000a900460ff16600481111561087b5761087a610cae565b5b146108bb576040517f08c379a00000000000000000000000000000000000000000000000000000000081526004016108b290611045565b60405180910390fd5b6003600260146101000a81548160ff021916908360048111156108e1576108e0610cae565b5b02179055505f4790505f60015f9054906101000a900473ffffffffffffffffffffffffffffffffffffffff1673ffffffffffffffffffffffffffffffffffffffff168260405161093090610e47565b5f6040518083038185875af1925050503d805f811461096a576040519150601f19603f3d011682016040523d82523d5f602084013e61096f565b606091505b505090508061097c575f80fd5b60015f9054906101000a900473ffffffffffffffffffffffffffffffffffffffff1673ffffffffffffffffffffffffffffffffffffffff167fb21fb52d5749b80f3182f8c6992236b5e5576681880914484d7f4c9b062e619e836040516109e39190610c95565b60405180910390a25050565b60025f9054906101000a900473ffffffffffffffffffffffffffffffffffffffff1673ffffffffffffffffffffffffffffffffffffffff163373ffffffffffffffffffffffffffffffffffffffff1614610a7e576040517f08c379a0000000000000000000000000000000000000000000000000000000008152600401610a7590610d94565b60405180910390fd5b60026004811115610a9257610a91610cae565b5b600260149054906101000a900460ff166004811115610ab457610ab3610cae565b5b14610af4576040517f08c379a0000000000000000000000000000000000000000000000000000000008152600401610aeb906110ad565b60405180910390fd5b6004600260146101000a81548160ff02191690836004811115610b1a57610b19610cae565b5b02179055505f4790505f805f9054906101000a900473ffffffffffffffffffffffffffffffffffffffff1673ffffffffffffffffffffffffffffffffffffffff1682604051610b6890610e47565b5f6040518083038185875af1925050503d805f8114610ba2576040519150601f19603f3d011682016040523d82523d5f602084013e610ba7565b606091505b5050905080610bb4575f80fd5b5f8054906101000a900473ffffffffffffffffffffffffffffffffffffffff1673ffffffffffffffffffffffffffffffffffffffff167fd7dee2702d63ad89917b6a4da9981c90c4d24f8c2bdfd64c604ecae57d8d065183604051610c199190610c95565b60405180910390a25050565b5f73ffffffffffffffffffffffffffffffffffffffff82169050919050565b5f610c4e82610c25565b9050919050565b610c5e81610c44565b82525050565b5f602082019050610c775f830184610c55565b92915050565b5f819050919050565b610c8f81610c7d565b82525050565b5f602082019050610ca85f830184610c86565b92915050565b7f4e487b71000000000000000000000000000000000000000000000000000000005f52602160045260245ffd5b60058110610cec57610ceb610cae565b5b50565b5f819050610cfc82610cdb565b919050565b5f610d0b82610cef565b9050919050565b610d1b81610d01565b82525050565b5f602082019050610d345f830184610d12565b92915050565b5f82825260208201905092915050565b7f4f6e6c792061726269747261746f7200000000000000000000000000000000005f82015250565b5f610d7e600f83610d3a565b9150610d8982610d4a565b602082019050919050565b5f6020820190508181035f830152610dab81610d72565b9050919050565b7f4e6f2064697370757465000000000000000000000000000000000000000000005f82015250565b5f610de6600a83610d3a565b9150610df182610db2565b602082019050919050565b5f6020820190508181035f830152610e1381610dda565b9050919050565b5f81905092915050565b50565b5f610e325f83610e1a565b9150610e3d82610e24565b5f82019050919050565b5f610e5182610e27565b9150819050919050565b7f4f6e6c79206275796572000000000000000000000000000000000000000000005f82015250565b5f610e8f600a83610d3a565b9150610e9a82610e5b565b602082019050919050565b5f6020820190508181035f830152610ebc81610e83565b9050919050565b7f2043616e6e6f74206469737075740000000000000000000000000000000000005f82015250565b5f610ef7600e83610d3a565b9150610f0282610ec3565b602082019050919050565b5f6020820190508181035f830152610f2481610eeb565b9050919050565b7f496e76616c6964207374617475730000000000000000000000000000000000005f82015250565b5f610f5f600e83610d3a565b9150610f6a82610f2b565b602082019050919050565b5f6020820190508181035f830152610f8c81610f53565b9050919050565b7f53656e64204554480000000000000000000000000000000000000000000000005f82015250565b5f610fc7600883610d3a565b9150610fd282610f93565b602082019050919050565b5f6020820190508181035f830152610ff481610fbb565b9050919050565b7f43616e6e6f742072656c656173650000000000000000000000000000000000005f82015250565b5f61102f600e83610d3a565b915061103a82610ffb565b602082019050919050565b5f6020820190508181035f83015261105c81611023565b9050919050565b7f4e6f2064697370746500000000000000000000000000000000000000000000005f82015250565b5f611097600983610d3a565b91506110a282611063565b602082019050919050565b5f6020820190508181035f8301526110c48161108b565b905091905056fea2646970667358221220656398f504b2361ef36ecd7c0324ceccd79a065525bd202b05699662ff56ed4064736f6c63430008160033",
					"opcodes": "PUSH1 0x80 PUSH1 0x40 MSTORE CALLVALUE DUP1 ISZERO PUSH3 0x10 JUMPI PUSH0 DUP1 REVERT JUMPDEST POP PUSH1 0x40 MLOAD PUSH3 0x1310 CODESIZE SUB DUP1 PUSH3 0x1310 DUP4 CODECOPY DUP2 DUP2 ADD PUSH1 0x40 MSTORE DUP2 ADD SWAP1 PUSH3 0x36 SWAP2 SWAP1 PUSH3 0x18F JUMP JUMPDEST CALLER PUSH0 DUP1 PUSH2 0x100 EXP DUP2 SLOAD DUP2 PUSH20 0xFFFFFFFFFFFFFFFFFFFFFFFFFFFFFFFFFFFFFFFF MUL NOT AND SWAP1 DUP4 PUSH20 0xFFFFFFFFFFFFFFFFFFFFFFFFFFFFFFFFFFFFFFFF AND MUL OR SWAP1 SSTORE POP DUP2 PUSH1 0x1 PUSH0 PUSH2 0x100 EXP DUP2 SLOAD DUP2 PUSH20 0xFFFFFFFFFFFFFFFFFFFFFFFFFFFFFFFFFFFFFFFF MUL NOT AND SWAP1 DUP4 PUSH20 0xFFFFFFFFFFFFFFFFFFFFFFFFFFFFFFFFFFFFFFFF AND MUL OR SWAP1 SSTORE POP DUP1 PUSH1 0x2 PUSH0 PUSH2 0x100 EXP DUP2 SLOAD DUP2 PUSH20 0xFFFFFFFFFFFFFFFFFFFFFFFFFFFFFFFFFFFFFFFF MUL NOT AND SWAP1 DUP4 PUSH20 0xFFFFFFFFFFFFFFFFFFFFFFFFFFFFFFFFFFFFFFFF AND MUL OR SWAP1 SSTORE POP PUSH0 PUSH1 0x2 PUSH1 0x14 PUSH2 0x100 EXP DUP2 SLOAD DUP2 PUSH1 0xFF MUL NOT AND SWAP1 DUP4 PUSH1 0x4 DUP2 GT ISZERO PUSH3 0x11D JUMPI PUSH3 0x11C PUSH3 0x1D4 JUMP JUMPDEST JUMPDEST MUL OR SWAP1 SSTORE POP POP POP PUSH3 0x201 JUMP JUMPDEST PUSH0 DUP1 REVERT JUMPDEST PUSH0 PUSH20 0xFFFFFFFFFFFFFFFFFFFFFFFFFFFFFFFFFFFFFFFF DUP3 AND SWAP1 POP SWAP2 SWAP1 POP JUMP JUMPDEST PUSH0 PUSH3 0x159 DUP3 PUSH3 0x12E JUMP JUMPDEST SWAP1 POP SWAP2 SWAP1 POP JUMP JUMPDEST PUSH3 0x16B DUP2 PUSH3 0x14D JUMP JUMPDEST DUP2 EQ PUSH3 0x176 JUMPI PUSH0 DUP1 REVERT JUMPDEST POP JUMP JUMPDEST PUSH0 DUP2 MLOAD SWAP1 POP PUSH3 0x189 DUP2 PUSH3 0x160 JUMP JUMPDEST SWAP3 SWAP2 POP POP JUMP JUMPDEST PUSH0 DUP1 PUSH1 0x40 DUP4 DUP6 SUB SLT ISZERO PUSH3 0x1A8 JUMPI PUSH3 0x1A7 PUSH3 0x12A JUMP JUMPDEST JUMPDEST PUSH0 PUSH3 0x1B7 DUP6 DUP3 DUP7 ADD PUSH3 0x179 JUMP JUMPDEST SWAP3 POP POP PUSH1 0x20 PUSH3 0x1CA DUP6 DUP3 DUP7 ADD PUSH3 0x179 JUMP JUMPDEST SWAP2 POP POP SWAP3 POP SWAP3 SWAP1 POP JUMP JUMPDEST PUSH32 0x4E487B7100000000000000000000000000000000000000000000000000000000 PUSH0 MSTORE PUSH1 0x21 PUSH1 0x4 MSTORE PUSH1 0x24 PUSH0 REVERT JUMPDEST PUSH2 0x1101 DUP1 PUSH3 0x20F PUSH0 CODECOPY PUSH0 RETURN INVALID PUSH1 0x80 PUSH1 0x40 MSTORE PUSH1 0x4 CALLDATASIZE LT PUSH2 0x90 JUMPI PUSH0 CALLDATALOAD PUSH1 0xE0 SHR DUP1 PUSH4 0x7150D8AE GT PUSH2 0x58 JUMPI DUP1 PUSH4 0x7150D8AE EQ PUSH2 0x152 JUMPI DUP1 PUSH4 0xCB704E2C EQ PUSH2 0x17C JUMPI DUP1 PUSH4 0xD0E30DB0 EQ PUSH2 0x192 JUMPI DUP1 PUSH4 0xD116C8C4 EQ PUSH2 0x19C JUMPI DUP1 PUSH4 0xF4CCF5B5 EQ PUSH2 0x1B2 JUMPI PUSH2 0x90 JUMP JUMPDEST DUP1 PUSH4 0x8551A53 EQ PUSH2 0x94 JUMPI DUP1 PUSH4 0x12065FE0 EQ PUSH2 0xBE JUMPI DUP1 PUSH4 0x1569072C EQ PUSH2 0xE8 JUMPI DUP1 PUSH4 0x200D2ED2 EQ PUSH2 0xFE JUMPI DUP1 PUSH4 0x6CC6CDE1 EQ PUSH2 0x128 JUMPI JUMPDEST PUSH0 DUP1 REVERT JUMPDEST CALLVALUE DUP1 ISZERO PUSH2 0x9F JUMPI PUSH0 DUP1 REVERT JUMPDEST POP PUSH2 0xA8 PUSH2 0x1C8 JUMP JUMPDEST PUSH1 0x40 MLOAD PUSH2 0xB5 SWAP2 SWAP1 PUSH2 0xC64 JUMP JUMPDEST PUSH1 0x40 MLOAD DUP1 SWAP2 SUB SWAP1 RETURN JUMPDEST CALLVALUE DUP1 ISZERO PUSH2 0xC9 JUMPI PUSH0 DUP1 REVERT JUMPDEST POP PUSH2 0xD2 PUSH2 0x1ED JUMP JUMPDEST PUSH1 0x40 MLOAD PUSH2 0xDF SWAP2 SWAP1 PUSH2 0xC95 JUMP JUMPDEST PUSH1 0x40 MLOAD DUP1 SWAP2 SUB SWAP1 RETURN JUMPDEST CALLVALUE DUP1 ISZERO PUSH2 0xF3 JUMPI PUSH0 DUP1 REVERT JUMPDEST POP PUSH2 0xFC PUSH2 0x1F4 JUMP JUMPDEST STOP JUMPDEST CALLVALUE DUP1 ISZERO PUSH2 0x109 JUMPI PUSH0 DUP1 REVERT JUMPDEST POP PUSH2 0x112 PUSH2 0x42D JUMP JUMPDEST PUSH1 0x40 MLOAD PUSH2 0x11F SWAP2 SWAP1 PUSH2 0xD21 JUMP JUMPDEST PUSH1 0x40 MLOAD DUP1 SWAP2 SUB SWAP1 RETURN JUMPDEST CALLVALUE DUP1 ISZERO PUSH2 0x133 JUMPI PUSH0 DUP1 REVERT JUMPDEST POP PUSH2 0x13C PUSH2 0x440 JUMP JUMPDEST PUSH1 0x40 MLOAD PUSH2 0x149 SWAP2 SWAP1 PUSH2 0xC64 JUMP JUMPDEST PUSH1 0x40 MLOAD DUP1 SWAP2 SUB SWAP1 RETURN JUMPDEST CALLVALUE DUP1 ISZERO PUSH2 0x15D JUMPI PUSH0 DUP1 REVERT JUMPDEST POP PUSH2 0x166 PUSH2 0x465 JUMP JUMPDEST PUSH1 0x40 MLOAD PUSH2 0x173 SWAP2 SWAP1 PUSH2 0xC64 JUMP JUMPDEST PUSH1 0x40 MLOAD DUP1 SWAP2 SUB SWAP1 RETURN JUMPDEST CALLVALUE DUP1 ISZERO PUSH2 0x187 JUMPI PUSH0 DUP1 REVERT JUMPDEST POP PUSH2 0x190 PUSH2 0x488 JUMP JUMPDEST STOP JUMPDEST PUSH2 0x19A PUSH2 0x5FA JUMP JUMPDEST STOP JUMPDEST CALLVALUE DUP1 ISZERO PUSH2 0x1A7 JUMPI PUSH0 DUP1 REVERT JUMPDEST POP PUSH2 0x1B0 PUSH2 0x7B9 JUMP JUMPDEST STOP JUMPDEST CALLVALUE DUP1 ISZERO PUSH2 0x1BD JUMPI PUSH0 DUP1 REVERT JUMPDEST POP PUSH2 0x1C6 PUSH2 0x9EF JUMP JUMPDEST STOP JUMPDEST PUSH1 0x1 PUSH0 SWAP1 SLOAD SWAP1 PUSH2 0x100 EXP SWAP1 DIV PUSH20 0xFFFFFFFFFFFFFFFFFFFFFFFFFFFFFFFFFFFFFFFF AND DUP2 JUMP JUMPDEST PUSH0 SELFBALANCE SWAP1 POP SWAP1 JUMP JUMPDEST PUSH1 0x2 PUSH0 SWAP1 SLOAD SWAP1 PUSH2 0x100 EXP SWAP1 DIV PUSH20 0xFFFFFFFFFFFFFFFFFFFFFFFFFFFFFFFFFFFFFFFF AND PUSH20 0xFFFFFFFFFFFFFFFFFFFFFFFFFFFFFFFFFFFFFFFF AND CALLER PUSH20 0xFFFFFFFFFFFFFFFFFFFFFFFFFFFFFFFFFFFFFFFF AND EQ PUSH2 0x283 JUMPI PUSH1 0x40 MLOAD PUSH32 0x8C379A000000000000000000000000000000000000000000000000000000000 DUP2 MSTORE PUSH1 0x4 ADD PUSH2 0x27A SWAP1 PUSH2 0xD94 JUMP JUMPDEST PUSH1 0x40 MLOAD DUP1 SWAP2 SUB SWAP1 REVERT JUMPDEST PUSH1 0x2 PUSH1 0x4 DUP2 GT ISZERO PUSH2 0x297 JUMPI PUSH2 0x296 PUSH2 0xCAE JUMP JUMPDEST JUMPDEST PUSH1 0x2 PUSH1 0x14 SWAP1 SLOAD SWAP1 PUSH2 0x100 EXP SWAP1 DIV PUSH1 0xFF AND PUSH1 0x4 DUP2 GT ISZERO PUSH2 0x2B9 JUMPI PUSH2 0x2B8 PUSH2 0xCAE JUMP JUMPDEST JUMPDEST EQ PUSH2 0x2F9 JUMPI PUSH1 0x40 MLOAD PUSH32 0x8C379A000000000000000000000000000000000000000000000000000000000 DUP2 MSTORE PUSH1 0x4 ADD PUSH2 0x2F0 SWAP1 PUSH2 0xDFC JUMP JUMPDEST PUSH1 0x40 MLOAD DUP1 SWAP2 SUB SWAP1 REVERT JUMPDEST PUSH1 0x3 PUSH1 0x2 PUSH1 0x14 PUSH2 0x100 EXP DUP2 SLOAD DUP2 PUSH1 0xFF MUL NOT AND SWAP1 DUP4 PUSH1 0x4 DUP2 GT ISZERO PUSH2 0x31F JUMPI PUSH2 0x31E PUSH2 0xCAE JUMP JUMPDEST JUMPDEST MUL OR SWAP1 SSTORE POP PUSH0 SELFBALANCE SWAP1 POP PUSH0 PUSH1 0x1 PUSH0 SWAP1 SLOAD SWAP1 PUSH2 0x100 EXP SWAP1 DIV PUSH20 0xFFFFFFFFFFFFFFFFFFFFFFFFFFFFFFFFFFFFFFFF AND PUSH20 0xFFFFFFFFFFFFFFFFFFFFFFFFFFFFFFFFFFFFFFFF AND DUP3 PUSH1 0x40 MLOAD PUSH2 0x36E SWAP1 PUSH2 0xE47 JUMP JUMPDEST PUSH0 PUSH1 0x40 MLOAD DUP1 DUP4 SUB DUP2 DUP6 DUP8 GAS CALL SWAP3 POP POP POP RETURNDATASIZE DUP1 PUSH0 DUP2 EQ PUSH2 0x3A8 JUMPI PUSH1 0x40 MLOAD SWAP2 POP PUSH1 0x1F NOT PUSH1 0x3F RETURNDATASIZE ADD AND DUP3 ADD PUSH1 0x40 MSTORE RETURNDATASIZE DUP3 MSTORE RETURNDATASIZE PUSH0 PUSH1 0x20 DUP5 ADD RETURNDATACOPY PUSH2 0x3AD JUMP JUMPDEST PUSH1 0x60 SWAP2 POP JUMPDEST POP POP SWAP1 POP DUP1 PUSH2 0x3BA JUMPI PUSH0 DUP1 REVERT JUMPDEST PUSH1 0x1 PUSH0 SWAP1 SLOAD SWAP1 PUSH2 0x100 EXP SWAP1 DIV PUSH20 0xFFFFFFFFFFFFFFFFFFFFFFFFFFFFFFFFFFFFFFFF AND PUSH20 0xFFFFFFFFFFFFFFFFFFFFFFFFFFFFFFFFFFFFFFFF AND PUSH32 0xB21FB52D5749B80F3182F8C6992236B5E5576681880914484D7F4C9B062E619E DUP4 PUSH1 0x40 MLOAD PUSH2 0x421 SWAP2 SWAP1 PUSH2 0xC95 JUMP JUMPDEST PUSH1 0x40 MLOAD DUP1 SWAP2 SUB SWAP1 LOG2 POP POP JUMP JUMPDEST PUSH1 0x2 PUSH1 0x14 SWAP1 SLOAD SWAP1 PUSH2 0x100 EXP SWAP1 DIV PUSH1 0xFF AND DUP2 JUMP JUMPDEST PUSH1 0x2 PUSH0 SWAP1 SLOAD SWAP1 PUSH2 0x100 EXP SWAP1 DIV PUSH20 0xFFFFFFFFFFFFFFFFFFFFFFFFFFFFFFFFFFFFFFFF AND DUP2 JUMP JUMPDEST PUSH0 DUP1 SLOAD SWAP1 PUSH2 0x100 EXP SWAP1 DIV PUSH20 0xFFFFFFFFFFFFFFFFFFFFFFFFFFFFFFFFFFFFFFFF AND DUP2 JUMP JUMPDEST PUSH0 DUP1 SLOAD SWAP1 PUSH2 0x100 EXP SWAP1 DIV PUSH20 0xFFFFFFFFFFFFFFFFFFFFFFFFFFFFFFFFFFFFFFFF AND PUSH20 0xFFFFFFFFFFFFFFFFFFFFFFFFFFFFFFFFFFFFFFFF AND CALLER PUSH20 0xFFFFFFFFFFFFFFFFFFFFFFFFFFFFFFFFFFFFFFFF AND EQ PUSH2 0x515 JUMPI PUSH1 0x40 MLOAD PUSH32 0x8C379A000000000000000000000000000000000000000000000000000000000 DUP2 MSTORE PUSH1 0x4 ADD PUSH2 0x50C SWAP1 PUSH2 0xEA5 JUMP JUMPDEST PUSH1 0x40 MLOAD DUP1 SWAP2 SUB SWAP1 REVERT JUMPDEST PUSH1 0x1 PUSH1 0x4 DUP2 GT ISZERO PUSH2 0x529 JUMPI PUSH2 0x528 PUSH2 0xCAE JUMP JUMPDEST JUMPDEST PUSH1 0x2 PUSH1 0x14 SWAP1 SLOAD SWAP1 PUSH2 0x100 EXP SWAP1 DIV PUSH1 0xFF AND PUSH1 0x4 DUP2 GT ISZERO PUSH2 0x54B JUMPI PUSH2 0x54A PUSH2 0xCAE JUMP JUMPDEST JUMPDEST EQ PUSH2 0x58B JUMPI PUSH1 0x40 MLOAD PUSH32 0x8C379A000000000000000000000000000000000000000000000000000000000 DUP2 MSTORE PUSH1 0x4 ADD PUSH2 0x582 SWAP1 PUSH2 0xF0D JUMP JUMPDEST PUSH1 0x40 MLOAD DUP1 SWAP2 SUB SWAP1 REVERT JUMPDEST PUSH1 0x2 DUP1 PUSH1 0x14 PUSH2 0x100 EXP DUP2 SLOAD DUP2 PUSH1 0xFF MUL NOT AND SWAP1 DUP4 PUSH1 0x4 DUP2 GT ISZERO PUSH2 0x5B0 JUMPI PUSH2 0x5AF PUSH2 0xCAE JUMP JUMPDEST JUMPDEST MUL OR SWAP1 SSTORE POP CALLER PUSH20 0xFFFFFFFFFFFFFFFFFFFFFFFFFFFFFFFFFFFFFFFF AND PUSH32 0xB3CD97B16A08A5C77357C276D248827AD32DFD56060F7C55D6255537BA3D962 PUSH1 0x40 MLOAD PUSH1 0x40 MLOAD DUP1 SWAP2 SUB SWAP1 LOG2 JUMP JUMPDEST PUSH0 DUP1 SLOAD SWAP1 PUSH2 0x100 EXP SWAP1 DIV PUSH20 0xFFFFFFFFFFFFFFFFFFFFFFFFFFFFFFFFFFFFFFFF AND PUSH20 0xFFFFFFFFFFFFFFFFFFFFFFFFFFFFFFFFFFFFFFFF AND CALLER PUSH20 0xFFFFFFFFFFFFFFFFFFFFFFFFFFFFFFFFFFFFFFFF AND EQ PUSH2 0x687 JUMPI PUSH1 0x40 MLOAD PUSH32 0x8C379A000000000000000000000000000000000000000000000000000000000 DUP2 MSTORE PUSH1 0x4 ADD PUSH2 0x67E SWAP1 PUSH2 0xEA5 JUMP JUMPDEST PUSH1 0x40 MLOAD DUP1 SWAP2 SUB SWAP1 REVERT JUMPDEST PUSH0 PUSH1 0x4 DUP2 GT ISZERO PUSH2 0x69A JUMPI PUSH2 0x699 PUSH2 0xCAE JUMP JUMPDEST JUMPDEST PUSH1 0x2 PUSH1 0x14 SWAP1 SLOAD SWAP1 PUSH2 0x100 EXP SWAP1 DIV PUSH1 0xFF AND PUSH1 0x4 DUP2 GT ISZERO PUSH2 0x6BC JUMPI PUSH2 0x6BB PUSH2 0xCAE JUMP JUMPDEST JUMPDEST EQ PUSH2 0x6FC JUMPI PUSH1 0x40 MLOAD PUSH32 0x8C379A000000000000000000000000000000000000000000000000000000000 DUP2 MSTORE PUSH1 0x4 ADD PUSH2 0x6F3 SWAP1 PUSH2 0xF75 JUMP JUMPDEST PUSH1 0x40 MLOAD DUP1 SWAP2 SUB SWAP1 REVERT JUMPDEST PUSH0 CALLVALUE GT PUSH2 0x73E JUMPI PUSH1 0x40 MLOAD PUSH32 0x8C379A000000000000000000000000000000000000000000000000000000000 DUP2 MSTORE PUSH1 0x4 ADD PUSH2 0x735 SWAP1 PUSH2 0xFDD JUMP JUMPDEST PUSH1 0x40 MLOAD DUP1 SWAP2 SUB SWAP1 REVERT JUMPDEST PUSH1 0x1 PUSH1 0x2 PUSH1 0x14 PUSH2 0x100 EXP DUP2 SLOAD DUP2 PUSH1 0xFF MUL NOT AND SWAP1 DUP4 PUSH1 0x4 DUP2 GT ISZERO PUSH2 0x764 JUMPI PUSH2 0x763 PUSH2 0xCAE JUMP JUMPDEST JUMPDEST MUL OR SWAP1 SSTORE POP CALLER PUSH20 0xFFFFFFFFFFFFFFFFFFFFFFFFFFFFFFFFFFFFFFFF AND PUSH32 0x2DA466A7B24304F47E87FA2E1E5A81B9831CE54FEC19055CE277CA2F39BA42C4 CALLVALUE PUSH1 0x40 MLOAD PUSH2 0x7AF SWAP2 SWAP1 PUSH2 0xC95 JUMP JUMPDEST PUSH1 0x40 MLOAD DUP1 SWAP2 SUB SWAP1 LOG2 JUMP JUMPDEST PUSH0 DUP1 SLOAD SWAP1 PUSH2 0x100 EXP SWAP1 DIV PUSH20 0xFFFFFFFFFFFFFFFFFFFFFFFFFFFFFFFFFFFFFFFF AND PUSH20 0xFFFFFFFFFFFFFFFFFFFFFFFFFFFFFFFFFFFFFFFF AND CALLER PUSH20 0xFFFFFFFFFFFFFFFFFFFFFFFFFFFFFFFFFFFFFFFF AND EQ PUSH2 0x846 JUMPI PUSH1 0x40 MLOAD PUSH32 0x8C379A000000000000000000000000000000000000000000000000000000000 DUP2 MSTORE PUSH1 0x4 ADD PUSH2 0x83D SWAP1 PUSH2 0xEA5 JUMP JUMPDEST PUSH1 0x40 MLOAD DUP1 SWAP2 SUB SWAP1 REVERT JUMPDEST PUSH0 PUSH1 0x4 DUP2 GT ISZERO PUSH2 0x859 JUMPI PUSH2 0x858 PUSH2 0xCAE JUMP JUMPDEST JUMPDEST PUSH1 0x2 PUSH1 0x14 SWAP1 SLOAD SWAP1 PUSH2 0x100 EXP SWAP1 DIV PUSH1 0xFF AND PUSH1 0x4 DUP2 GT ISZERO PUSH2 0x87B JUMPI PUSH2 0x87A PUSH2 0xCAE JUMP JUMPDEST JUMPDEST EQ PUSH2 0x8BB JUMPI PUSH1 0x40 MLOAD PUSH32 0x8C379A000000000000000000000000000000000000000000000000000000000 DUP2 MSTORE PUSH1 0x4 ADD PUSH2 0x8B2 SWAP1 PUSH2 0x1045 JUMP JUMPDEST PUSH1 0x40 MLOAD DUP1 SWAP2 SUB SWAP1 REVERT JUMPDEST PUSH1 0x3 PUSH1 0x2 PUSH1 0x14 PUSH2 0x100 EXP DUP2 SLOAD DUP2 PUSH1 0xFF MUL NOT AND SWAP1 DUP4 PUSH1 0x4 DUP2 GT ISZERO PUSH2 0x8E1 JUMPI PUSH2 0x8E0 PUSH2 0xCAE JUMP JUMPDEST JUMPDEST MUL OR SWAP1 SSTORE POP PUSH0 SELFBALANCE SWAP1 POP PUSH0 PUSH1 0x1 PUSH0 SWAP1 SLOAD SWAP1 PUSH2 0x100 EXP SWAP1 DIV PUSH20 0xFFFFFFFFFFFFFFFFFFFFFFFFFFFFFFFFFFFFFFFF AND PUSH20 0xFFFFFFFFFFFFFFFFFFFFFFFFFFFFFFFFFFFFFFFF AND DUP3 PUSH1 0x40 MLOAD PUSH2 0x930 SWAP1 PUSH2 0xE47 JUMP JUMPDEST PUSH0 PUSH1 0x40 MLOAD DUP1 DUP4 SUB DUP2 DUP6 DUP8 GAS CALL SWAP3 POP POP POP RETURNDATASIZE DUP1 PUSH0 DUP2 EQ PUSH2 0x96A JUMPI PUSH1 0x40 MLOAD SWAP2 POP PUSH1 0x1F NOT PUSH1 0x3F RETURNDATASIZE ADD AND DUP3 ADD PUSH1 0x40 MSTORE RETURNDATASIZE DUP3 MSTORE RETURNDATASIZE PUSH0 PUSH1 0x20 DUP5 ADD RETURNDATACOPY PUSH2 0x96F JUMP JUMPDEST PUSH1 0x60 SWAP2 POP JUMPDEST POP POP SWAP1 POP DUP1 PUSH2 0x97C JUMPI PUSH0 DUP1 REVERT JUMPDEST PUSH1 0x1 PUSH0 SWAP1 SLOAD SWAP1 PUSH2 0x100 EXP SWAP1 DIV PUSH20 0xFFFFFFFFFFFFFFFFFFFFFFFFFFFFFFFFFFFFFFFF AND PUSH20 0xFFFFFFFFFFFFFFFFFFFFFFFFFFFFFFFFFFFFFFFF AND PUSH32 0xB21FB52D5749B80F3182F8C6992236B5E5576681880914484D7F4C9B062E619E DUP4 PUSH1 0x40 MLOAD PUSH2 0x9E3 SWAP2 SWAP1 PUSH2 0xC95 JUMP JUMPDEST PUSH1 0x40 MLOAD DUP1 SWAP2 SUB SWAP1 LOG2 POP POP JUMP JUMPDEST PUSH1 0x2 PUSH0 SWAP1 SLOAD SWAP1 PUSH2 0x100 EXP SWAP1 DIV PUSH20 0xFFFFFFFFFFFFFFFFFFFFFFFFFFFFFFFFFFFFFFFF AND PUSH20 0xFFFFFFFFFFFFFFFFFFFFFFFFFFFFFFFFFFFFFFFF AND CALLER PUSH20 0xFFFFFFFFFFFFFFFFFFFFFFFFFFFFFFFFFFFFFFFF AND EQ PUSH2 0xA7E JUMPI PUSH1 0x40 MLOAD PUSH32 0x8C379A000000000000000000000000000000000000000000000000000000000 DUP2 MSTORE PUSH1 0x4 ADD PUSH2 0xA75 SWAP1 PUSH2 0xD94 JUMP JUMPDEST PUSH1 0x40 MLOAD DUP1 SWAP2 SUB SWAP1 REVERT JUMPDEST PUSH1 0x2 PUSH1 0x4 DUP2 GT ISZERO PUSH2 0xA92 JUMPI PUSH2 0xA91 PUSH2 0xCAE JUMP JUMPDEST JUMPDEST PUSH1 0x2 PUSH1 0x14 SWAP1 SLOAD SWAP1 PUSH2 0x100 EXP SWAP1 DIV PUSH1 0xFF AND PUSH1 0x4 DUP2 GT ISZERO PUSH2 0xAB4 JUMPI PUSH2 0xAB3 PUSH2 0xCAE JUMP JUMPDEST JUMPDEST EQ PUSH2 0xAF4 JUMPI PUSH1 0x40 MLOAD PUSH32 0x8C379A000000000000000000000000000000000000000000000000000000000 DUP2 MSTORE PUSH1 0x4 ADD PUSH2 0xAEB SWAP1 PUSH2 0x10AD JUMP JUMPDEST PUSH1 0x40 MLOAD DUP1 SWAP2 SUB SWAP1 REVERT JUMPDEST PUSH1 0x4 PUSH1 0x2 PUSH1 0x14 PUSH2 0x100 EXP DUP2 SLOAD DUP2 PUSH1 0xFF MUL NOT AND SWAP1 DUP4 PUSH1 0x4 DUP2 GT ISZERO PUSH2 0xB1A JUMPI PUSH2 0xB19 PUSH2 0xCAE JUMP JUMPDEST JUMPDEST MUL OR SWAP1 SSTORE POP PUSH0 SELFBALANCE SWAP1 POP PUSH0 DUP1 PUSH0 SWAP1 SLOAD SWAP1 PUSH2 0x100 EXP SWAP1 DIV PUSH20 0xFFFFFFFFFFFFFFFFFFFFFFFFFFFFFFFFFFFFFFFF AND PUSH20 0xFFFFFFFFFFFFFFFFFFFFFFFFFFFFFFFFFFFFFFFF AND DUP3 PUSH1 0x40 MLOAD PUSH2 0xB68 SWAP1 PUSH2 0xE47 JUMP JUMPDEST PUSH0 PUSH1 0x40 MLOAD DUP1 DUP4 SUB DUP2 DUP6 DUP8 GAS CALL SWAP3 POP POP POP RETURNDATASIZE DUP1 PUSH0 DUP2 EQ PUSH2 0xBA2 JUMPI PUSH1 0x40 MLOAD SWAP2 POP PUSH1 0x1F NOT PUSH1 0x3F RETURNDATASIZE ADD AND DUP3 ADD PUSH1 0x40 MSTORE RETURNDATASIZE DUP3 MSTORE RETURNDATASIZE PUSH0 PUSH1 0x20 DUP5 ADD RETURNDATACOPY PUSH2 0xBA7 JUMP JUMPDEST PUSH1 0x60 SWAP2 POP JUMPDEST POP POP SWAP1 POP DUP1 PUSH2 0xBB4 JUMPI PUSH0 DUP1 REVERT JUMPDEST PUSH0 DUP1 SLOAD SWAP1 PUSH2 0x100 EXP SWAP1 DIV PUSH20 0xFFFFFFFFFFFFFFFFFFFFFFFFFFFFFFFFFFFFFFFF AND PUSH20 0xFFFFFFFFFFFFFFFFFFFFFFFFFFFFFFFFFFFFFFFF AND PUSH32 0xD7DEE2702D63AD89917B6A4DA9981C90C4D24F8C2BDFD64C604ECAE57D8D0651 DUP4 PUSH1 0x40 MLOAD PUSH2 0xC19 SWAP2 SWAP1 PUSH2 0xC95 JUMP JUMPDEST PUSH1 0x40 MLOAD DUP1 SWAP2 SUB SWAP1 LOG2 POP POP JUMP JUMPDEST PUSH0 PUSH20 0xFFFFFFFFFFFFFFFFFFFFFFFFFFFFFFFFFFFFFFFF DUP3 AND SWAP1 POP SWAP2 SWAP1 POP JUMP JUMPDEST PUSH0 PUSH2 0xC4E DUP3 PUSH2 0xC25 JUMP JUMPDEST SWAP1 POP SWAP2 SWAP1 POP JUMP JUMPDEST PUSH2 0xC5E DUP2 PUSH2 0xC44 JUMP JUMPDEST DUP3 MSTORE POP POP JUMP JUMPDEST PUSH0 PUSH1 0x20 DUP3 ADD SWAP1 POP PUSH2 0xC77 PUSH0 DUP4 ADD DUP5 PUSH2 0xC55 JUMP JUMPDEST SWAP3 SWAP2 POP POP JUMP JUMPDEST PUSH0 DUP2 SWAP1 POP SWAP2 SWAP1 POP JUMP JUMPDEST PUSH2 0xC8F DUP2 PUSH2 0xC7D JUMP JUMPDEST DUP3 MSTORE POP POP JUMP JUMPDEST PUSH0 PUSH1 0x20 DUP3 ADD SWAP1 POP PUSH2 0xCA8 PUSH0 DUP4 ADD DUP5 PUSH2 0xC86 JUMP JUMPDEST SWAP3 SWAP2 POP POP JUMP JUMPDEST PUSH32 0x4E487B7100000000000000000000000000000000000000000000000000000000 PUSH0 MSTORE PUSH1 0x21 PUSH1 0x4 MSTORE PUSH1 0x24 PUSH0 REVERT JUMPDEST PUSH1 0x5 DUP2 LT PUSH2 0xCEC JUMPI PUSH2 0xCEB PUSH2 0xCAE JUMP JUMPDEST JUMPDEST POP JUMP JUMPDEST PUSH0 DUP2 SWAP1 POP PUSH2 0xCFC DUP3 PUSH2 0xCDB JUMP JUMPDEST SWAP2 SWAP1 POP JUMP JUMPDEST PUSH0 PUSH2 0xD0B DUP3 PUSH2 0xCEF JUMP JUMPDEST SWAP1 POP SWAP2 SWAP1 POP JUMP JUMPDEST PUSH2 0xD1B DUP2 PUSH2 0xD01 JUMP JUMPDEST DUP3 MSTORE POP POP JUMP JUMPDEST PUSH0 PUSH1 0x20 DUP3 ADD SWAP1 POP PUSH2 0xD34 PUSH0 DUP4 ADD DUP5 PUSH2 0xD12 JUMP JUMPDEST SWAP3 SWAP2 POP POP JUMP JUMPDEST PUSH0 DUP3 DUP3 MSTORE PUSH1 0x20 DUP3 ADD SWAP1 POP SWAP3 SWAP2 POP POP JUMP JUMPDEST PUSH32 0x4F6E6C792061726269747261746F720000000000000000000000000000000000 PUSH0 DUP3 ADD MSTORE POP JUMP JUMPDEST PUSH0 PUSH2 0xD7E PUSH1 0xF DUP4 PUSH2 0xD3A JUMP JUMPDEST SWAP2 POP PUSH2 0xD89 DUP3 PUSH2 0xD4A JUMP JUMPDEST PUSH1 0x20 DUP3 ADD SWAP1 POP SWAP2 SWAP1 POP JUMP JUMPDEST PUSH0 PUSH1 0x20 DUP3 ADD SWAP1 POP DUP2 DUP2 SUB PUSH0 DUP4 ADD MSTORE PUSH2 0xDAB DUP2 PUSH2 0xD72 JUMP JUMPDEST SWAP1 POP SWAP2 SWAP1 POP JUMP JUMPDEST PUSH32 0x4E6F206469737075746500000000000000000000000000000000000000000000 PUSH0 DUP3 ADD MSTORE POP JUMP JUMPDEST PUSH0 PUSH2 0xDE6 PUSH1 0xA DUP4 PUSH2 0xD3A JUMP JUMPDEST SWAP2 POP PUSH2 0xDF1 DUP3 PUSH2 0xDB2 JUMP JUMPDEST PUSH1 0x20 DUP3 ADD SWAP1 POP SWAP2 SWAP1 POP JUMP JUMPDEST PUSH0 PUSH1 0x20 DUP3 ADD SWAP1 POP DUP2 DUP2 SUB PUSH0 DUP4 ADD MSTORE PUSH2 0xE13 DUP2 PUSH2 0xDDA JUMP JUMPDEST SWAP1 POP SWAP2 SWAP1 POP JUMP JUMPDEST PUSH0 DUP2 SWAP1 POP SWAP3 SWAP2 POP POP JUMP JUMPDEST POP JUMP JUMPDEST PUSH0 PUSH2 0xE32 PUSH0 DUP4 PUSH2 0xE1A JUMP JUMPDEST SWAP2 POP PUSH2 0xE3D DUP3 PUSH2 0xE24 JUMP JUMPDEST PUSH0 DUP3 ADD SWAP1 POP SWAP2 SWAP1 POP JUMP JUMPDEST PUSH0 PUSH2 0xE51 DUP3 PUSH2 0xE27 JUMP JUMPDEST SWAP2 POP DUP2 SWAP1 POP SWAP2 SWAP1 POP JUMP JUMPDEST PUSH32 0x4F6E6C7920627579657200000000000000000000000000000000000000000000 PUSH0 DUP3 ADD MSTORE POP JUMP JUMPDEST PUSH0 PUSH2 0xE8F PUSH1 0xA DUP4 PUSH2 0xD3A JUMP JUMPDEST SWAP2 POP PUSH2 0xE9A DUP3 PUSH2 0xE5B JUMP JUMPDEST PUSH1 0x20 DUP3 ADD SWAP1 POP SWAP2 SWAP1 POP JUMP JUMPDEST PUSH0 PUSH1 0x20 DUP3 ADD SWAP1 POP DUP2 DUP2 SUB PUSH0 DUP4 ADD MSTORE PUSH2 0xEBC DUP2 PUSH2 0xE83 JUMP JUMPDEST SWAP1 POP SWAP2 SWAP1 POP JUMP JUMPDEST PUSH32 0x2043616E6E6F7420646973707574000000000000000000000000000000000000 PUSH0 DUP3 ADD MSTORE POP JUMP JUMPDEST PUSH0 PUSH2 0xEF7 PUSH1 0xE DUP4 PUSH2 0xD3A JUMP JUMPDEST SWAP2 POP PUSH2 0xF02 DUP3 PUSH2 0xEC3 JUMP JUMPDEST PUSH1 0x20 DUP3 ADD SWAP1 POP SWAP2 SWAP1 POP JUMP JUMPDEST PUSH0 PUSH1 0x20 DUP3 ADD SWAP1 POP DUP2 DUP2 SUB PUSH0 DUP4 ADD MSTORE PUSH2 0xF24 DUP2 PUSH2 0xEEB JUMP JUMPDEST SWAP1 POP SWAP2 SWAP1 POP JUMP JUMPDEST PUSH32 0x496E76616C696420737461747573000000000000000000000000000000000000 PUSH0 DUP3 ADD MSTORE POP JUMP JUMPDEST PUSH0 PUSH2 0xF5F PUSH1 0xE DUP4 PUSH2 0xD3A JUMP JUMPDEST SWAP2 POP PUSH2 0xF6A DUP3 PUSH2 0xF2B JUMP JUMPDEST PUSH1 0x20 DUP3 ADD SWAP1 POP SWAP2 SWAP1 POP JUMP JUMPDEST PUSH0 PUSH1 0x20 DUP3 ADD SWAP1 POP DUP2 DUP2 SUB PUSH0 DUP4 ADD MSTORE PUSH2 0xF8C DUP2 PUSH2 0xF53 JUMP JUMPDEST SWAP1 POP SWAP2 SWAP1 POP JUMP JUMPDEST PUSH32 0x53656E6420455448000000000000000000000000000000000000000000000000 PUSH0 DUP3 ADD MSTORE POP JUMP JUMPDEST PUSH0 PUSH2 0xFC7 PUSH1 0x8 DUP4 PUSH2 0xD3A JUMP JUMPDEST SWAP2 POP PUSH2 0xFD2 DUP3 PUSH2 0xF93 JUMP JUMPDEST PUSH1 0x20 DUP3 ADD SWAP1 POP SWAP2 SWAP1 POP JUMP JUMPDEST PUSH0 PUSH1 0x20 DUP3 ADD SWAP1 POP DUP2 DUP2 SUB PUSH0 DUP4 ADD MSTORE PUSH2 0xFF4 DUP2 PUSH2 0xFBB JUMP JUMPDEST SWAP1 POP SWAP2 SWAP1 POP JUMP JUMPDEST PUSH32 0x43616E6E6F742072656C65617365000000000000000000000000000000000000 PUSH0 DUP3 ADD MSTORE POP JUMP JUMPDEST PUSH0 PUSH2 0x102F PUSH1 0xE DUP4 PUSH2 0xD3A JUMP JUMPDEST SWAP2 POP PUSH2 0x103A DUP3 PUSH2 0xFFB JUMP JUMPDEST PUSH1 0x20 DUP3 ADD SWAP1 POP SWAP2 SWAP1 POP JUMP JUMPDEST PUSH0 PUSH1 0x20 DUP3 ADD SWAP1 POP DUP2 DUP2 SUB PUSH0 DUP4 ADD MSTORE PUSH2 0x105C DUP2 PUSH2 0x1023 JUMP JUMPDEST SWAP1 POP SWAP2 SWAP1 POP JUMP JUMPDEST PUSH32 0x4E6F206469737074650000000000000000000000000000000000000000000000 PUSH0 DUP3 ADD MSTORE POP JUMP JUMPDEST PUSH0 PUSH2 0x1097 PUSH1 0x9 DUP4 PUSH2 0xD3A JUMP JUMPDEST SWAP2 POP PUSH2 0x10A2 DUP3 PUSH2 0x1063 JUMP JUMPDEST PUSH1 0x20 DUP3 ADD SWAP1 POP SWAP2 SWAP1 POP JUMP JUMPDEST PUSH0 PUSH1 0x20 DUP3 ADD SWAP1 POP DUP2 DUP2 SUB PUSH0 DUP4 ADD MSTORE PUSH2 0x10C4 DUP2 PUSH2 0x108B JUMP JUMPDEST SWAP1 POP SWAP2 SWAP1 POP JUMP INVALID LOG2 PUSH5 0x6970667358 0x22 SLT KECCAK256 PUSH6 0x6398F504B236 0x1E RETURN PUSH15 0xCD7C0324CECCD79A065525BD202B05 PUSH10 0x9662FF56ED4064736F6C PUSH4 0x43000816 STOP CALLER "
				},
				"gasEstimates": {
					"creation": {
						"codeDepositCost": "870600",
						"executionCost": "infinite",
						"totalCost": "infinite"
					},
					"external": {
						"arbitrator()": "2597",
						"buyer()": "2505",
						"deposit()": "30517",
						"getBalance()": "357",
						"raiseDisput()": "30089",
						"refoundBuyer()": "infinite",
						"releasePayment()": "infinite",
						"resolveToSeller()": "infinite",
						"seller()": "2509",
						"status()": "2672"
					}
				},
				"methodIdentifiers": {
					"arbitrator()": "6cc6cde1",
					"buyer()": "7150d8ae",
					"deposit()": "d0e30db0",
					"getBalance()": "12065fe0",
					"raiseDisput()": "cb704e2c",
					"refoundBuyer()": "f4ccf5b5",
					"releasePayment()": "d116c8c4",
					"resolveToSeller()": "1569072c",
					"seller()": "08551a53",
					"status()": "200d2ed2"
				}
			},
			"storageLayout": {
				"storage": [
					{
						"astId": 9,
						"contract": "500 problems/disputeScenarioEscrow.sol:Escrow",
						"label": "buyer",
						"offset": 0,
						"slot": "0",
						"type": "t_address"
					},
					{
						"astId": 11,
						"contract": "500 problems/disputeScenarioEscrow.sol:Escrow",
						"label": "seller",
						"offset": 0,
						"slot": "1",
						"type": "t_address"
					},
					{
						"astId": 13,
						"contract": "500 problems/disputeScenarioEscrow.sol:Escrow",
						"label": "arbitrator",
						"offset": 0,
						"slot": "2",
						"type": "t_address"
					},
					{
						"astId": 16,
						"contract": "500 problems/disputeScenarioEscrow.sol:Escrow",
						"label": "status",
						"offset": 20,
						"slot": "2",
						"type": "t_enum(Status)7"
					}
				],
				"types": {
					"t_address": {
						"encoding": "inplace",
						"label": "address",
						"numberOfBytes": "20"
					},
					"t_enum(Status)7": {
						"encoding": "inplace",
						"label": "enum Escrow.Status",
						"numberOfBytes": "1"
					}
				}
			},
			"userdoc": {
				"kind": "user",
				"methods": {},
				"version": 1
			}
		}
	}
}