{
	"500 problems/SimpleRegistry.sol": {
		"SimpleRegistry": {
			"abi": [
				{
					"anonymous": false,
					"inputs": [
						{
							"indexed": true,
							"internalType": "address",
							"name": "user",
							"type": "address"
						},
						{
							"indexed": false,
							"internalType": "string",
							"name": "name",
							"type": "string"
						}
					],
					"name": "UserRegistered",
					"type": "event"
				},
				{
					"inputs": [],
					"name": "getRegisteredUsers",
					"outputs": [
						{
							"internalType": "address[]",
							"name": "",
							"type": "address[]"
						}
					],
					"stateMutability": "view",
					"type": "function"
				},
				{
					"inputs": [],
					"name": "getTotalUsers",
					"outputs": [
						{
							"internalType": "uint256",
							"name": "",
							"type": "uint256"
						}
					],
					"stateMutability": "view",
					"type": "function"
				},
				{
					"inputs": [
						{
							"internalType": "address",
							"name": "_user",
							"type": "address"
						}
					],
					"name": "getUser",
					"outputs": [
						{
							"internalType": "string",
							"name": "",
							"type": "string"
						},
						{
							"internalType": "address",
							"name": "",
							"type": "address"
						},
						{
							"internalType": "bool",
							"name": "",
							"type": "bool"
						}
					],
					"stateMutability": "view",
					"type": "function"
				},
				{
					"inputs": [
						{
							"internalType": "string",
							"name": "_name",
							"type": "string"
						}
					],
					"name": "register",
					"outputs": [],
					"stateMutability": "nonpayable",
					"type": "function"
				},
				{
					"inputs": [
						{
							"internalType": "uint256",
							"name": "",
							"type": "uint256"
						}
					],
					"name": "registeredUsers",
					"outputs": [
						{
							"internalType": "address",
							"name": "",
							"type": "address"
						}
					],
					"stateMutability": "view",
					"type": "function"
				},
				{
					"inputs": [
						{
							"internalType": "address",
							"name": "",
							"type": "address"
						}
					],
					"name": "users",
					"outputs": [
						{
							"internalType": "string",
							"name": "name",
							"type": "string"
						},
						{
							"internalType": "address",
							"name": "wallet",
							"type": "address"
						},
						{
							"internalType": "bool",
							"name": "registered",
							"type": "bool"
						}
					],
					"stateMutability": "view",
					"type": "function"
				}
			],
			"devdoc": {
				"kind": "dev",
				"methods": {},
				"version": 1
			},
			"evm": {
				"assembly": "    /* \"500 problems/SimpleRegistry.sol\":61:1473  contract SimpleRegistry {... */\n  mstore(0x40, 0x80)\n  callvalue\n  dup1\n  iszero\n  tag_1\n  jumpi\n  0x00\n  dup1\n  revert\ntag_1:\n  pop\n  dataSize(sub_0)\n  dup1\n  dataOffset(sub_0)\n  0x00\n  codecopy\n  0x00\n  return\nstop\n\nsub_0: assembly {\n        /* \"500 problems/SimpleRegistry.sol\":61:1473  contract SimpleRegistry {... */\n      mstore(0x40, 0x80)\n      callvalue\n      dup1\n      iszero\n      tag_1\n      jumpi\n      0x00\n      dup1\n      revert\n    tag_1:\n      pop\n      jumpi(tag_2, lt(calldatasize, 0x04))\n      shr(0xe0, calldataload(0x00))\n      dup1\n      0x6f77926b\n      eq\n      tag_3\n      jumpi\n      dup1\n      0x7073c072\n      eq\n      tag_4\n      jumpi\n      dup1\n      0x7259e0f8\n      eq\n      tag_5\n      jumpi\n      dup1\n      0x9be572f6\n      eq\n      tag_6\n      jumpi\n      dup1\n      0xa87430ba\n      eq\n      tag_7\n      jumpi\n      dup1\n      0xf2c298be\n      eq\n      tag_8\n      jumpi\n    tag_2:\n      0x00\n      dup1\n      revert\n        /* \"500 problems/SimpleRegistry.sol\":923:1173  function getUser(address _user) external view returns(string memory, address, bool) {... */\n    tag_3:\n      tag_9\n      0x04\n      dup1\n      calldatasize\n      sub\n      dup2\n      add\n      swap1\n      tag_10\n      swap2\n      swap1\n      tag_11\n      jump\t// in\n    tag_10:\n      tag_12\n      jump\t// in\n    tag_9:\n      mload(0x40)\n      tag_13\n      swap4\n      swap3\n      swap2\n      swap1\n      tag_14\n      jump\t// in\n    tag_13:\n      mload(0x40)\n      dup1\n      swap2\n      sub\n      swap1\n      return\n        /* \"500 problems/SimpleRegistry.sol\":1359:1470  function getRegisteredUsers() external view returns(address[] memory) {... */\n    tag_4:\n      tag_15\n      tag_16\n      jump\t// in\n    tag_15:\n      mload(0x40)\n      tag_17\n      swap2\n      swap1\n      tag_18\n      jump\t// in\n    tag_17:\n      mload(0x40)\n      dup1\n      swap2\n      sub\n      swap1\n      return\n        /* \"500 problems/SimpleRegistry.sol\":303:335  address[] public registeredUsers */\n    tag_5:\n      tag_19\n      0x04\n      dup1\n      calldatasize\n      sub\n      dup2\n      add\n      swap1\n      tag_20\n      swap2\n      swap1\n      tag_21\n      jump\t// in\n    tag_20:\n      tag_22\n      jump\t// in\n    tag_19:\n      mload(0x40)\n      tag_23\n      swap2\n      swap1\n      tag_24\n      jump\t// in\n    tag_23:\n      mload(0x40)\n      dup1\n      swap2\n      sub\n      swap1\n      return\n        /* \"500 problems/SimpleRegistry.sol\":1210:1315  function getTotalUsers() external view returns (uint256) {... */\n    tag_6:\n      tag_25\n      tag_26\n      jump\t// in\n    tag_25:\n      mload(0x40)\n      tag_27\n      swap2\n      swap1\n      tag_28\n      jump\t// in\n    tag_27:\n      mload(0x40)\n      dup1\n      swap2\n      sub\n      swap1\n      return\n        /* \"500 problems/SimpleRegistry.sol\":219:256  mapping(address => User) public users */\n    tag_7:\n      tag_29\n      0x04\n      dup1\n      calldatasize\n      sub\n      dup2\n      add\n      swap1\n      tag_30\n      swap2\n      swap1\n      tag_11\n      jump\t// in\n    tag_30:\n      tag_31\n      jump\t// in\n    tag_29:\n      mload(0x40)\n      tag_32\n      swap4\n      swap3\n      swap2\n      swap1\n      tag_14\n      jump\t// in\n    tag_32:\n      mload(0x40)\n      dup1\n      swap2\n      sub\n      swap1\n      return\n        /* \"500 problems/SimpleRegistry.sol\":436:887  function register(string calldata _name) external {... */\n    tag_8:\n      tag_33\n      0x04\n      dup1\n      calldatasize\n      sub\n      dup2\n      add\n      swap1\n      tag_34\n      swap2\n      swap1\n      tag_35\n      jump\t// in\n    tag_34:\n      tag_36\n      jump\t// in\n    tag_33:\n      stop\n        /* \"500 problems/SimpleRegistry.sol\":923:1173  function getUser(address _user) external view returns(string memory, address, bool) {... */\n    tag_12:\n        /* \"500 problems/SimpleRegistry.sol\":977:990  string memory */\n      0x60\n        /* \"500 problems/SimpleRegistry.sol\":992:999  address */\n      0x00\n        /* \"500 problems/SimpleRegistry.sol\":1001:1005  bool */\n      dup1\n        /* \"500 problems/SimpleRegistry.sol\":1020:1037  User storage user */\n      0x00\n        /* \"500 problems/SimpleRegistry.sol\":1040:1045  users */\n      dup1\n        /* \"500 problems/SimpleRegistry.sol\":1040:1052  users[_user] */\n      0x00\n        /* \"500 problems/SimpleRegistry.sol\":1046:1051  _user */\n      dup7\n        /* \"500 problems/SimpleRegistry.sol\":1040:1052  users[_user] */\n      0xffffffffffffffffffffffffffffffffffffffff\n      and\n      0xffffffffffffffffffffffffffffffffffffffff\n      and\n      dup2\n      mstore\n      0x20\n      add\n      swap1\n      dup2\n      mstore\n      0x20\n      add\n      0x00\n      keccak256\n        /* \"500 problems/SimpleRegistry.sol\":1020:1052  User storage user = users[_user] */\n      swap1\n      pop\n        /* \"500 problems/SimpleRegistry.sol\":1087:1091  user */\n      dup1\n        /* \"500 problems/SimpleRegistry.sol\":1087:1096  user.name */\n      0x00\n      add\n        /* \"500 problems/SimpleRegistry.sol\":1111:1115  user */\n      dup2\n        /* \"500 problems/SimpleRegistry.sol\":1111:1122  user.wallet */\n      0x01\n      add\n      0x00\n      swap1\n      sload\n      swap1\n      0x0100\n      exp\n      swap1\n      div\n      0xffffffffffffffffffffffffffffffffffffffff\n      and\n        /* \"500 problems/SimpleRegistry.sol\":1137:1141  user */\n      dup3\n        /* \"500 problems/SimpleRegistry.sol\":1137:1152  user.registered */\n      0x01\n      add\n      0x14\n      swap1\n      sload\n      swap1\n      0x0100\n      exp\n      swap1\n      div\n      0xff\n      and\n        /* \"500 problems/SimpleRegistry.sol\":1065:1163  return (... */\n      dup3\n      dup1\n      sload\n      tag_38\n      swap1\n      tag_39\n      jump\t// in\n    tag_38:\n      dup1\n      0x1f\n      add\n      0x20\n      dup1\n      swap2\n      div\n      mul\n      0x20\n      add\n      mload(0x40)\n      swap1\n      dup2\n      add\n      0x40\n      mstore\n      dup1\n      swap3\n      swap2\n      swap1\n      dup2\n      dup2\n      mstore\n      0x20\n      add\n      dup3\n      dup1\n      sload\n      tag_40\n      swap1\n      tag_39\n      jump\t// in\n    tag_40:\n      dup1\n      iszero\n      tag_41\n      jumpi\n      dup1\n      0x1f\n      lt\n      tag_42\n      jumpi\n      0x0100\n      dup1\n      dup4\n      sload\n      div\n      mul\n      dup4\n      mstore\n      swap2\n      0x20\n      add\n      swap2\n      jump(tag_41)\n    tag_42:\n      dup3\n      add\n      swap2\n      swap1\n      0x00\n      mstore\n      keccak256(0x00, 0x20)\n      swap1\n    tag_43:\n      dup2\n      sload\n      dup2\n      mstore\n      swap1\n      0x01\n      add\n      swap1\n      0x20\n      add\n      dup1\n      dup4\n      gt\n      tag_43\n      jumpi\n      dup3\n      swap1\n      sub\n      0x1f\n      and\n      dup3\n      add\n      swap2\n    tag_41:\n      pop\n      pop\n      pop\n      pop\n      pop\n      swap3\n      pop\n      swap4\n      pop\n      swap4\n      pop\n      swap4\n      pop\n      pop\n        /* \"500 problems/SimpleRegistry.sol\":923:1173  function getUser(address _user) external view returns(string memory, address, bool) {... */\n      swap2\n      swap4\n      swap1\n      swap3\n      pop\n      jump\t// out\n        /* \"500 problems/SimpleRegistry.sol\":1359:1470  function getRegisteredUsers() external view returns(address[] memory) {... */\n    tag_16:\n        /* \"500 problems/SimpleRegistry.sol\":1411:1427  address[] memory */\n      0x60\n        /* \"500 problems/SimpleRegistry.sol\":1447:1462  registeredUsers */\n      0x01\n        /* \"500 problems/SimpleRegistry.sol\":1440:1462  return registeredUsers */\n      dup1\n      sload\n      dup1\n      0x20\n      mul\n      0x20\n      add\n      mload(0x40)\n      swap1\n      dup2\n      add\n      0x40\n      mstore\n      dup1\n      swap3\n      swap2\n      swap1\n      dup2\n      dup2\n      mstore\n      0x20\n      add\n      dup3\n      dup1\n      sload\n      dup1\n      iszero\n      tag_45\n      jumpi\n      0x20\n      mul\n      dup3\n      add\n      swap2\n      swap1\n      0x00\n      mstore\n      keccak256(0x00, 0x20)\n      swap1\n    tag_46:\n      dup2\n      0x00\n      swap1\n      sload\n      swap1\n      0x0100\n      exp\n      swap1\n      div\n      0xffffffffffffffffffffffffffffffffffffffff\n      and\n      0xffffffffffffffffffffffffffffffffffffffff\n      and\n      dup2\n      mstore\n      0x20\n      add\n      swap1\n      0x01\n      add\n      swap1\n      dup1\n      dup4\n      gt\n      tag_46\n      jumpi\n    tag_45:\n      pop\n      pop\n      pop\n      pop\n      pop\n      swap1\n      pop\n        /* \"500 problems/SimpleRegistry.sol\":1359:1470  function getRegisteredUsers() external view returns(address[] memory) {... */\n      swap1\n      jump\t// out\n        /* \"500 problems/SimpleRegistry.sol\":303:335  address[] public registeredUsers */\n    tag_22:\n      0x01\n      dup2\n      dup2\n      sload\n      dup2\n      lt\n      tag_47\n      jumpi\n      0x00\n      dup1\n      revert\n    tag_47:\n      swap1\n      0x00\n      mstore\n      keccak256(0x00, 0x20)\n      add\n      0x00\n      swap2\n      pop\n      sload\n      swap1\n      0x0100\n      exp\n      swap1\n      div\n      0xffffffffffffffffffffffffffffffffffffffff\n      and\n      dup2\n      jump\t// out\n        /* \"500 problems/SimpleRegistry.sol\":1210:1315  function getTotalUsers() external view returns (uint256) {... */\n    tag_26:\n        /* \"500 problems/SimpleRegistry.sol\":1258:1265  uint256 */\n      0x00\n        /* \"500 problems/SimpleRegistry.sol\":1285:1300  registeredUsers */\n      0x01\n        /* \"500 problems/SimpleRegistry.sol\":1285:1307  registeredUsers.length */\n      dup1\n      sload\n      swap1\n      pop\n        /* \"500 problems/SimpleRegistry.sol\":1278:1307  return registeredUsers.length */\n      swap1\n      pop\n        /* \"500 problems/SimpleRegistry.sol\":1210:1315  function getTotalUsers() external view returns (uint256) {... */\n      swap1\n      jump\t// out\n        /* \"500 problems/SimpleRegistry.sol\":219:256  mapping(address => User) public users */\n    tag_31:\n      mstore(0x20, 0x00)\n      dup1\n      0x00\n      mstore\n      keccak256(0x00, 0x40)\n      0x00\n      swap2\n      pop\n      swap1\n      pop\n      dup1\n      0x00\n      add\n      dup1\n      sload\n      tag_50\n      swap1\n      tag_39\n      jump\t// in\n    tag_50:\n      dup1\n      0x1f\n      add\n      0x20\n      dup1\n      swap2\n      div\n      mul\n      0x20\n      add\n      mload(0x40)\n      swap1\n      dup2\n      add\n      0x40\n      mstore\n      dup1\n      swap3\n      swap2\n      swap1\n      dup2\n      dup2\n      mstore\n      0x20\n      add\n      dup3\n      dup1\n      sload\n      tag_51\n      swap1\n      tag_39\n      jump\t// in\n    tag_51:\n      dup1\n      iszero\n      tag_52\n      jumpi\n      dup1\n      0x1f\n      lt\n      tag_53\n      jumpi\n      0x0100\n      dup1\n      dup4\n      sload\n      div\n      mul\n      dup4\n      mstore\n      swap2\n      0x20\n      add\n      swap2\n      jump(tag_52)\n    tag_53:\n      dup3\n      add\n      swap2\n      swap1\n      0x00\n      mstore\n      keccak256(0x00, 0x20)\n      swap1\n    tag_54:\n      dup2\n      sload\n      dup2\n      mstore\n      swap1\n      0x01\n      add\n      swap1\n      0x20\n      add\n      dup1\n      dup4\n      gt\n      tag_54\n      jumpi\n      dup3\n      swap1\n      sub\n      0x1f\n      and\n      dup3\n      add\n      swap2\n    tag_52:\n      pop\n      pop\n      pop\n      pop\n      pop\n      swap1\n      dup1\n      0x01\n      add\n      0x00\n      swap1\n      sload\n      swap1\n      0x0100\n      exp\n      swap1\n      div\n      0xffffffffffffffffffffffffffffffffffffffff\n      and\n      swap1\n      dup1\n      0x01\n      add\n      0x14\n      swap1\n      sload\n      swap1\n      0x0100\n      exp\n      swap1\n      div\n      0xff\n      and\n      swap1\n      pop\n      dup4\n      jump\t// out\n        /* \"500 problems/SimpleRegistry.sol\":436:887  function register(string calldata _name) external {... */\n    tag_36:\n        /* \"500 problems/SimpleRegistry.sol\":537:538  0 */\n      0x00\n        /* \"500 problems/SimpleRegistry.sol\":521:526  _name */\n      dup3\n      dup3\n        /* \"500 problems/SimpleRegistry.sol\":515:534  bytes(_name).length */\n      swap1\n      pop\n        /* \"500 problems/SimpleRegistry.sol\":515:538  bytes(_name).length > 0 */\n      gt\n        /* \"500 problems/SimpleRegistry.sol\":507:562  require(bytes(_name).length > 0,\"Name cannot be empty\") */\n      tag_56\n      jumpi\n      mload(0x40)\n      0x08c379a000000000000000000000000000000000000000000000000000000000\n      dup2\n      mstore\n      0x04\n      add\n      tag_57\n      swap1\n      tag_58\n      jump\t// in\n    tag_57:\n      mload(0x40)\n      dup1\n      swap2\n      sub\n      swap1\n      revert\n    tag_56:\n        /* \"500 problems/SimpleRegistry.sol\":584:589  users */\n      0x00\n        /* \"500 problems/SimpleRegistry.sol\":584:601  users[msg.sender] */\n      dup1\n        /* \"500 problems/SimpleRegistry.sol\":590:600  msg.sender */\n      caller\n        /* \"500 problems/SimpleRegistry.sol\":584:601  users[msg.sender] */\n      0xffffffffffffffffffffffffffffffffffffffff\n      and\n      0xffffffffffffffffffffffffffffffffffffffff\n      and\n      dup2\n      mstore\n      0x20\n      add\n      swap1\n      dup2\n      mstore\n      0x20\n      add\n      0x00\n      keccak256\n        /* \"500 problems/SimpleRegistry.sol\":584:612  users[msg.sender].registered */\n      0x01\n      add\n      0x14\n      swap1\n      sload\n      swap1\n      0x0100\n      exp\n      swap1\n      div\n      0xff\n      and\n        /* \"500 problems/SimpleRegistry.sol\":583:612  !users[msg.sender].registered */\n      iszero\n        /* \"500 problems/SimpleRegistry.sol\":575:639  require(!users[msg.sender].registered,\"User already registered\") */\n      tag_59\n      jumpi\n      mload(0x40)\n      0x08c379a000000000000000000000000000000000000000000000000000000000\n      dup2\n      mstore\n      0x04\n      add\n      tag_60\n      swap1\n      tag_61\n      jump\t// in\n    tag_60:\n      mload(0x40)\n      dup1\n      swap2\n      sub\n      swap1\n      revert\n    tag_59:\n        /* \"500 problems/SimpleRegistry.sol\":672:779  User({... */\n      mload(0x40)\n      dup1\n      0x60\n      add\n      0x40\n      mstore\n      dup1\n        /* \"500 problems/SimpleRegistry.sol\":698:703  _name */\n      dup4\n      dup4\n        /* \"500 problems/SimpleRegistry.sol\":672:779  User({... */\n      dup1\n      dup1\n      0x1f\n      add\n      0x20\n      dup1\n      swap2\n      div\n      mul\n      0x20\n      add\n      mload(0x40)\n      swap1\n      dup2\n      add\n      0x40\n      mstore\n      dup1\n      swap4\n      swap3\n      swap2\n      swap1\n      dup2\n      dup2\n      mstore\n      0x20\n      add\n      dup4\n      dup4\n      dup1\n      dup3\n      dup5\n      calldatacopy\n      0x00\n      dup2\n      dup5\n      add\n      mstore\n      not(0x1f)\n      0x1f\n      dup3\n      add\n      and\n      swap1\n      pop\n      dup1\n      dup4\n      add\n      swap3\n      pop\n      pop\n      pop\n      pop\n      pop\n      pop\n      pop\n      dup2\n      mstore\n      0x20\n      add\n        /* \"500 problems/SimpleRegistry.sol\":726:736  msg.sender */\n      caller\n        /* \"500 problems/SimpleRegistry.sol\":672:779  User({... */\n      0xffffffffffffffffffffffffffffffffffffffff\n      and\n      dup2\n      mstore\n      0x20\n      add\n        /* \"500 problems/SimpleRegistry.sol\":763:767  true */\n      0x01\n        /* \"500 problems/SimpleRegistry.sol\":672:779  User({... */\n      iszero\n      iszero\n      dup2\n      mstore\n      pop\n        /* \"500 problems/SimpleRegistry.sol\":652:657  users */\n      0x00\n        /* \"500 problems/SimpleRegistry.sol\":652:669  users[msg.sender] */\n      dup1\n        /* \"500 problems/SimpleRegistry.sol\":658:668  msg.sender */\n      caller\n        /* \"500 problems/SimpleRegistry.sol\":652:669  users[msg.sender] */\n      0xffffffffffffffffffffffffffffffffffffffff\n      and\n      0xffffffffffffffffffffffffffffffffffffffff\n      and\n      dup2\n      mstore\n      0x20\n      add\n      swap1\n      dup2\n      mstore\n      0x20\n      add\n      0x00\n      keccak256\n        /* \"500 problems/SimpleRegistry.sol\":652:779  users[msg.sender] = User({... */\n      0x00\n      dup3\n      add\n      mload\n      dup2\n      0x00\n      add\n      swap1\n      dup2\n      tag_62\n      swap2\n      swap1\n      tag_63\n      jump\t// in\n    tag_62:\n      pop\n      0x20\n      dup3\n      add\n      mload\n      dup2\n      0x01\n      add\n      exp(0x0100, 0x00)\n      dup2\n      sload\n      dup2\n      0xffffffffffffffffffffffffffffffffffffffff\n      mul\n      not\n      and\n      swap1\n      dup4\n      0xffffffffffffffffffffffffffffffffffffffff\n      and\n      mul\n      or\n      swap1\n      sstore\n      pop\n      0x40\n      dup3\n      add\n      mload\n      dup2\n      0x01\n      add\n      exp(0x0100, 0x14)\n      dup2\n      sload\n      dup2\n      0xff\n      mul\n      not\n      and\n      swap1\n      dup4\n      iszero\n      iszero\n      mul\n      or\n      swap1\n      sstore\n      pop\n      swap1\n      pop\n      pop\n        /* \"500 problems/SimpleRegistry.sol\":792:807  registeredUsers */\n      0x01\n        /* \"500 problems/SimpleRegistry.sol\":813:823  msg.sender */\n      caller\n        /* \"500 problems/SimpleRegistry.sol\":792:824  registeredUsers.push(msg.sender) */\n      swap1\n      dup1\n      0x01\n      dup2\n      sload\n      add\n      dup1\n      dup3\n      sstore\n      dup1\n      swap2\n      pop\n      pop\n      0x01\n      swap1\n      sub\n      swap1\n      0x00\n      mstore\n      keccak256(0x00, 0x20)\n      add\n      0x00\n      swap1\n      swap2\n      swap1\n      swap2\n      swap1\n      swap2\n      0x0100\n      exp\n      dup2\n      sload\n      dup2\n      0xffffffffffffffffffffffffffffffffffffffff\n      mul\n      not\n      and\n      swap1\n      dup4\n      0xffffffffffffffffffffffffffffffffffffffff\n      and\n      mul\n      or\n      swap1\n      sstore\n      pop\n        /* \"500 problems/SimpleRegistry.sol\":857:867  msg.sender */\n      caller\n        /* \"500 problems/SimpleRegistry.sol\":842:875  UserRegistered(msg.sender, _name) */\n      0xffffffffffffffffffffffffffffffffffffffff\n      and\n      0x48cac28ad4dc618e15f4c2dd5e97751182f166de97b25618318b2112aa951a2f\n        /* \"500 problems/SimpleRegistry.sol\":869:874  _name */\n      dup4\n      dup4\n        /* \"500 problems/SimpleRegistry.sol\":842:875  UserRegistered(msg.sender, _name) */\n      mload(0x40)\n      tag_65\n      swap3\n      swap2\n      swap1\n      tag_66\n      jump\t// in\n    tag_65:\n      mload(0x40)\n      dup1\n      swap2\n      sub\n      swap1\n      log2\n        /* \"500 problems/SimpleRegistry.sol\":436:887  function register(string calldata _name) external {... */\n      pop\n      pop\n      jump\t// out\n        /* \"#utility.yul\":88:205   */\n    tag_68:\n        /* \"#utility.yul\":197:198   */\n      0x00\n        /* \"#utility.yul\":194:195   */\n      dup1\n        /* \"#utility.yul\":187:199   */\n      revert\n        /* \"#utility.yul\":211:328   */\n    tag_69:\n        /* \"#utility.yul\":320:321   */\n      0x00\n        /* \"#utility.yul\":317:318   */\n      dup1\n        /* \"#utility.yul\":310:322   */\n      revert\n        /* \"#utility.yul\":334:460   */\n    tag_70:\n        /* \"#utility.yul\":371:378   */\n      0x00\n        /* \"#utility.yul\":411:453   */\n      0xffffffffffffffffffffffffffffffffffffffff\n        /* \"#utility.yul\":404:409   */\n      dup3\n        /* \"#utility.yul\":400:454   */\n      and\n        /* \"#utility.yul\":389:454   */\n      swap1\n      pop\n        /* \"#utility.yul\":334:460   */\n      swap2\n      swap1\n      pop\n      jump\t// out\n        /* \"#utility.yul\":466:562   */\n    tag_71:\n        /* \"#utility.yul\":503:510   */\n      0x00\n        /* \"#utility.yul\":532:556   */\n      tag_126\n        /* \"#utility.yul\":550:555   */\n      dup3\n        /* \"#utility.yul\":532:556   */\n      tag_70\n      jump\t// in\n    tag_126:\n        /* \"#utility.yul\":521:556   */\n      swap1\n      pop\n        /* \"#utility.yul\":466:562   */\n      swap2\n      swap1\n      pop\n      jump\t// out\n        /* \"#utility.yul\":568:690   */\n    tag_72:\n        /* \"#utility.yul\":641:665   */\n      tag_128\n        /* \"#utility.yul\":659:664   */\n      dup2\n        /* \"#utility.yul\":641:665   */\n      tag_71\n      jump\t// in\n    tag_128:\n        /* \"#utility.yul\":634:639   */\n      dup2\n        /* \"#utility.yul\":631:666   */\n      eq\n        /* \"#utility.yul\":621:684   */\n      tag_129\n      jumpi\n        /* \"#utility.yul\":680:681   */\n      0x00\n        /* \"#utility.yul\":677:678   */\n      dup1\n        /* \"#utility.yul\":670:682   */\n      revert\n        /* \"#utility.yul\":621:684   */\n    tag_129:\n        /* \"#utility.yul\":568:690   */\n      pop\n      jump\t// out\n        /* \"#utility.yul\":696:835   */\n    tag_73:\n        /* \"#utility.yul\":742:747   */\n      0x00\n        /* \"#utility.yul\":780:786   */\n      dup2\n        /* \"#utility.yul\":767:787   */\n      calldataload\n        /* \"#utility.yul\":758:787   */\n      swap1\n      pop\n        /* \"#utility.yul\":796:829   */\n      tag_131\n        /* \"#utility.yul\":823:828   */\n      dup2\n        /* \"#utility.yul\":796:829   */\n      tag_72\n      jump\t// in\n    tag_131:\n        /* \"#utility.yul\":696:835   */\n      swap3\n      swap2\n      pop\n      pop\n      jump\t// out\n        /* \"#utility.yul\":841:1170   */\n    tag_11:\n        /* \"#utility.yul\":900:906   */\n      0x00\n        /* \"#utility.yul\":949:951   */\n      0x20\n        /* \"#utility.yul\":937:946   */\n      dup3\n        /* \"#utility.yul\":928:935   */\n      dup5\n        /* \"#utility.yul\":924:947   */\n      sub\n        /* \"#utility.yul\":920:952   */\n      slt\n        /* \"#utility.yul\":917:1036   */\n      iszero\n      tag_133\n      jumpi\n        /* \"#utility.yul\":955:1034   */\n      tag_134\n      tag_68\n      jump\t// in\n    tag_134:\n        /* \"#utility.yul\":917:1036   */\n    tag_133:\n        /* \"#utility.yul\":1075:1076   */\n      0x00\n        /* \"#utility.yul\":1100:1153   */\n      tag_135\n        /* \"#utility.yul\":1145:1152   */\n      dup5\n        /* \"#utility.yul\":1136:1142   */\n      dup3\n        /* \"#utility.yul\":1125:1134   */\n      dup6\n        /* \"#utility.yul\":1121:1143   */\n      add\n        /* \"#utility.yul\":1100:1153   */\n      tag_73\n      jump\t// in\n    tag_135:\n        /* \"#utility.yul\":1090:1153   */\n      swap2\n      pop\n        /* \"#utility.yul\":1046:1163   */\n      pop\n        /* \"#utility.yul\":841:1170   */\n      swap3\n      swap2\n      pop\n      pop\n      jump\t// out\n        /* \"#utility.yul\":1176:1275   */\n    tag_74:\n        /* \"#utility.yul\":1228:1234   */\n      0x00\n        /* \"#utility.yul\":1262:1267   */\n      dup2\n        /* \"#utility.yul\":1256:1268   */\n      mload\n        /* \"#utility.yul\":1246:1268   */\n      swap1\n      pop\n        /* \"#utility.yul\":1176:1275   */\n      swap2\n      swap1\n      pop\n      jump\t// out\n        /* \"#utility.yul\":1281:1450   */\n    tag_75:\n        /* \"#utility.yul\":1365:1376   */\n      0x00\n        /* \"#utility.yul\":1399:1405   */\n      dup3\n        /* \"#utility.yul\":1394:1397   */\n      dup3\n        /* \"#utility.yul\":1387:1406   */\n      mstore\n        /* \"#utility.yul\":1439:1443   */\n      0x20\n        /* \"#utility.yul\":1434:1437   */\n      dup3\n        /* \"#utility.yul\":1430:1444   */\n      add\n        /* \"#utility.yul\":1415:1444   */\n      swap1\n      pop\n        /* \"#utility.yul\":1281:1450   */\n      swap3\n      swap2\n      pop\n      pop\n      jump\t// out\n        /* \"#utility.yul\":1456:1702   */\n    tag_76:\n        /* \"#utility.yul\":1537:1538   */\n      0x00\n        /* \"#utility.yul\":1547:1660   */\n    tag_139:\n        /* \"#utility.yul\":1561:1567   */\n      dup4\n        /* \"#utility.yul\":1558:1559   */\n      dup2\n        /* \"#utility.yul\":1555:1568   */\n      lt\n        /* \"#utility.yul\":1547:1660   */\n      iszero\n      tag_141\n      jumpi\n        /* \"#utility.yul\":1646:1647   */\n      dup1\n        /* \"#utility.yul\":1641:1644   */\n      dup3\n        /* \"#utility.yul\":1637:1648   */\n      add\n        /* \"#utility.yul\":1631:1649   */\n      mload\n        /* \"#utility.yul\":1627:1628   */\n      dup2\n        /* \"#utility.yul\":1622:1625   */\n      dup5\n        /* \"#utility.yul\":1618:1629   */\n      add\n        /* \"#utility.yul\":1611:1650   */\n      mstore\n        /* \"#utility.yul\":1583:1585   */\n      0x20\n        /* \"#utility.yul\":1580:1581   */\n      dup2\n        /* \"#utility.yul\":1576:1586   */\n      add\n        /* \"#utility.yul\":1571:1586   */\n      swap1\n      pop\n        /* \"#utility.yul\":1547:1660   */\n      jump(tag_139)\n    tag_141:\n        /* \"#utility.yul\":1694:1695   */\n      0x00\n        /* \"#utility.yul\":1685:1691   */\n      dup5\n        /* \"#utility.yul\":1680:1683   */\n      dup5\n        /* \"#utility.yul\":1676:1692   */\n      add\n        /* \"#utility.yul\":1669:1696   */\n      mstore\n        /* \"#utility.yul\":1518:1702   */\n      pop\n        /* \"#utility.yul\":1456:1702   */\n      pop\n      pop\n      pop\n      jump\t// out\n        /* \"#utility.yul\":1708:1810   */\n    tag_77:\n        /* \"#utility.yul\":1749:1755   */\n      0x00\n        /* \"#utility.yul\":1800:1802   */\n      0x1f\n        /* \"#utility.yul\":1796:1803   */\n      not\n        /* \"#utility.yul\":1791:1793   */\n      0x1f\n        /* \"#utility.yul\":1784:1789   */\n      dup4\n        /* \"#utility.yul\":1780:1794   */\n      add\n        /* \"#utility.yul\":1776:1804   */\n      and\n        /* \"#utility.yul\":1766:1804   */\n      swap1\n      pop\n        /* \"#utility.yul\":1708:1810   */\n      swap2\n      swap1\n      pop\n      jump\t// out\n        /* \"#utility.yul\":1816:2193   */\n    tag_78:\n        /* \"#utility.yul\":1904:1907   */\n      0x00\n        /* \"#utility.yul\":1932:1971   */\n      tag_144\n        /* \"#utility.yul\":1965:1970   */\n      dup3\n        /* \"#utility.yul\":1932:1971   */\n      tag_74\n      jump\t// in\n    tag_144:\n        /* \"#utility.yul\":1987:2058   */\n      tag_145\n        /* \"#utility.yul\":2051:2057   */\n      dup2\n        /* \"#utility.yul\":2046:2049   */\n      dup6\n        /* \"#utility.yul\":1987:2058   */\n      tag_75\n      jump\t// in\n    tag_145:\n        /* \"#utility.yul\":1980:2058   */\n      swap4\n      pop\n        /* \"#utility.yul\":2067:2132   */\n      tag_146\n        /* \"#utility.yul\":2125:2131   */\n      dup2\n        /* \"#utility.yul\":2120:2123   */\n      dup6\n        /* \"#utility.yul\":2113:2117   */\n      0x20\n        /* \"#utility.yul\":2106:2111   */\n      dup7\n        /* \"#utility.yul\":2102:2118   */\n      add\n        /* \"#utility.yul\":2067:2132   */\n      tag_76\n      jump\t// in\n    tag_146:\n        /* \"#utility.yul\":2157:2186   */\n      tag_147\n        /* \"#utility.yul\":2179:2185   */\n      dup2\n        /* \"#utility.yul\":2157:2186   */\n      tag_77\n      jump\t// in\n    tag_147:\n        /* \"#utility.yul\":2152:2155   */\n      dup5\n        /* \"#utility.yul\":2148:2187   */\n      add\n        /* \"#utility.yul\":2141:2187   */\n      swap2\n      pop\n        /* \"#utility.yul\":1908:2193   */\n      pop\n        /* \"#utility.yul\":1816:2193   */\n      swap3\n      swap2\n      pop\n      pop\n      jump\t// out\n        /* \"#utility.yul\":2199:2317   */\n    tag_79:\n        /* \"#utility.yul\":2286:2310   */\n      tag_149\n        /* \"#utility.yul\":2304:2309   */\n      dup2\n        /* \"#utility.yul\":2286:2310   */\n      tag_71\n      jump\t// in\n    tag_149:\n        /* \"#utility.yul\":2281:2284   */\n      dup3\n        /* \"#utility.yul\":2274:2311   */\n      mstore\n        /* \"#utility.yul\":2199:2317   */\n      pop\n      pop\n      jump\t// out\n        /* \"#utility.yul\":2323:2413   */\n    tag_80:\n        /* \"#utility.yul\":2357:2364   */\n      0x00\n        /* \"#utility.yul\":2400:2405   */\n      dup2\n        /* \"#utility.yul\":2393:2406   */\n      iszero\n        /* \"#utility.yul\":2386:2407   */\n      iszero\n        /* \"#utility.yul\":2375:2407   */\n      swap1\n      pop\n        /* \"#utility.yul\":2323:2413   */\n      swap2\n      swap1\n      pop\n      jump\t// out\n        /* \"#utility.yul\":2419:2528   */\n    tag_81:\n        /* \"#utility.yul\":2500:2521   */\n      tag_152\n        /* \"#utility.yul\":2515:2520   */\n      dup2\n        /* \"#utility.yul\":2500:2521   */\n      tag_80\n      jump\t// in\n    tag_152:\n        /* \"#utility.yul\":2495:2498   */\n      dup3\n        /* \"#utility.yul\":2488:2522   */\n      mstore\n        /* \"#utility.yul\":2419:2528   */\n      pop\n      pop\n      jump\t// out\n        /* \"#utility.yul\":2534:3055   */\n    tag_14:\n        /* \"#utility.yul\":2697:2701   */\n      0x00\n        /* \"#utility.yul\":2735:2737   */\n      0x60\n        /* \"#utility.yul\":2724:2733   */\n      dup3\n        /* \"#utility.yul\":2720:2738   */\n      add\n        /* \"#utility.yul\":2712:2738   */\n      swap1\n      pop\n        /* \"#utility.yul\":2784:2793   */\n      dup2\n        /* \"#utility.yul\":2778:2782   */\n      dup2\n        /* \"#utility.yul\":2774:2794   */\n      sub\n        /* \"#utility.yul\":2770:2771   */\n      0x00\n        /* \"#utility.yul\":2759:2768   */\n      dup4\n        /* \"#utility.yul\":2755:2772   */\n      add\n        /* \"#utility.yul\":2748:2795   */\n      mstore\n        /* \"#utility.yul\":2812:2890   */\n      tag_154\n        /* \"#utility.yul\":2885:2889   */\n      dup2\n        /* \"#utility.yul\":2876:2882   */\n      dup7\n        /* \"#utility.yul\":2812:2890   */\n      tag_78\n      jump\t// in\n    tag_154:\n        /* \"#utility.yul\":2804:2890   */\n      swap1\n      pop\n        /* \"#utility.yul\":2900:2972   */\n      tag_155\n        /* \"#utility.yul\":2968:2970   */\n      0x20\n        /* \"#utility.yul\":2957:2966   */\n      dup4\n        /* \"#utility.yul\":2953:2971   */\n      add\n        /* \"#utility.yul\":2944:2950   */\n      dup6\n        /* \"#utility.yul\":2900:2972   */\n      tag_79\n      jump\t// in\n    tag_155:\n        /* \"#utility.yul\":2982:3048   */\n      tag_156\n        /* \"#utility.yul\":3044:3046   */\n      0x40\n        /* \"#utility.yul\":3033:3042   */\n      dup4\n        /* \"#utility.yul\":3029:3047   */\n      add\n        /* \"#utility.yul\":3020:3026   */\n      dup5\n        /* \"#utility.yul\":2982:3048   */\n      tag_81\n      jump\t// in\n    tag_156:\n        /* \"#utility.yul\":2534:3055   */\n      swap5\n      swap4\n      pop\n      pop\n      pop\n      pop\n      jump\t// out\n        /* \"#utility.yul\":3061:3175   */\n    tag_82:\n        /* \"#utility.yul\":3128:3134   */\n      0x00\n        /* \"#utility.yul\":3162:3167   */\n      dup2\n        /* \"#utility.yul\":3156:3168   */\n      mload\n        /* \"#utility.yul\":3146:3168   */\n      swap1\n      pop\n        /* \"#utility.yul\":3061:3175   */\n      swap2\n      swap1\n      pop\n      jump\t// out\n        /* \"#utility.yul\":3181:3365   */\n    tag_83:\n        /* \"#utility.yul\":3280:3291   */\n      0x00\n        /* \"#utility.yul\":3314:3320   */\n      dup3\n        /* \"#utility.yul\":3309:3312   */\n      dup3\n        /* \"#utility.yul\":3302:3321   */\n      mstore\n        /* \"#utility.yul\":3354:3358   */\n      0x20\n        /* \"#utility.yul\":3349:3352   */\n      dup3\n        /* \"#utility.yul\":3345:3359   */\n      add\n        /* \"#utility.yul\":3330:3359   */\n      swap1\n      pop\n        /* \"#utility.yul\":3181:3365   */\n      swap3\n      swap2\n      pop\n      pop\n      jump\t// out\n        /* \"#utility.yul\":3371:3503   */\n    tag_84:\n        /* \"#utility.yul\":3438:3442   */\n      0x00\n        /* \"#utility.yul\":3461:3464   */\n      dup2\n        /* \"#utility.yul\":3453:3464   */\n      swap1\n      pop\n        /* \"#utility.yul\":3491:3495   */\n      0x20\n        /* \"#utility.yul\":3486:3489   */\n      dup3\n        /* \"#utility.yul\":3482:3496   */\n      add\n        /* \"#utility.yul\":3474:3496   */\n      swap1\n      pop\n        /* \"#utility.yul\":3371:3503   */\n      swap2\n      swap1\n      pop\n      jump\t// out\n        /* \"#utility.yul\":3509:3617   */\n    tag_85:\n        /* \"#utility.yul\":3586:3610   */\n      tag_161\n        /* \"#utility.yul\":3604:3609   */\n      dup2\n        /* \"#utility.yul\":3586:3610   */\n      tag_71\n      jump\t// in\n    tag_161:\n        /* \"#utility.yul\":3581:3584   */\n      dup3\n        /* \"#utility.yul\":3574:3611   */\n      mstore\n        /* \"#utility.yul\":3509:3617   */\n      pop\n      pop\n      jump\t// out\n        /* \"#utility.yul\":3623:3802   */\n    tag_86:\n        /* \"#utility.yul\":3692:3702   */\n      0x00\n        /* \"#utility.yul\":3713:3759   */\n      tag_163\n        /* \"#utility.yul\":3755:3758   */\n      dup4\n        /* \"#utility.yul\":3747:3753   */\n      dup4\n        /* \"#utility.yul\":3713:3759   */\n      tag_85\n      jump\t// in\n    tag_163:\n        /* \"#utility.yul\":3791:3795   */\n      0x20\n        /* \"#utility.yul\":3786:3789   */\n      dup4\n        /* \"#utility.yul\":3782:3796   */\n      add\n        /* \"#utility.yul\":3768:3796   */\n      swap1\n      pop\n        /* \"#utility.yul\":3623:3802   */\n      swap3\n      swap2\n      pop\n      pop\n      jump\t// out\n        /* \"#utility.yul\":3808:3921   */\n    tag_87:\n        /* \"#utility.yul\":3878:3882   */\n      0x00\n        /* \"#utility.yul\":3910:3914   */\n      0x20\n        /* \"#utility.yul\":3905:3908   */\n      dup3\n        /* \"#utility.yul\":3901:3915   */\n      add\n        /* \"#utility.yul\":3893:3915   */\n      swap1\n      pop\n        /* \"#utility.yul\":3808:3921   */\n      swap2\n      swap1\n      pop\n      jump\t// out\n        /* \"#utility.yul\":3957:4689   */\n    tag_88:\n        /* \"#utility.yul\":4076:4079   */\n      0x00\n        /* \"#utility.yul\":4105:4159   */\n      tag_166\n        /* \"#utility.yul\":4153:4158   */\n      dup3\n        /* \"#utility.yul\":4105:4159   */\n      tag_82\n      jump\t// in\n    tag_166:\n        /* \"#utility.yul\":4175:4261   */\n      tag_167\n        /* \"#utility.yul\":4254:4260   */\n      dup2\n        /* \"#utility.yul\":4249:4252   */\n      dup6\n        /* \"#utility.yul\":4175:4261   */\n      tag_83\n      jump\t// in\n    tag_167:\n        /* \"#utility.yul\":4168:4261   */\n      swap4\n      pop\n        /* \"#utility.yul\":4285:4341   */\n      tag_168\n        /* \"#utility.yul\":4335:4340   */\n      dup4\n        /* \"#utility.yul\":4285:4341   */\n      tag_84\n      jump\t// in\n    tag_168:\n        /* \"#utility.yul\":4364:4371   */\n      dup1\n        /* \"#utility.yul\":4395:4396   */\n      0x00\n        /* \"#utility.yul\":4380:4664   */\n    tag_169:\n        /* \"#utility.yul\":4405:4411   */\n      dup4\n        /* \"#utility.yul\":4402:4403   */\n      dup2\n        /* \"#utility.yul\":4399:4412   */\n      lt\n        /* \"#utility.yul\":4380:4664   */\n      iszero\n      tag_171\n      jumpi\n        /* \"#utility.yul\":4481:4487   */\n      dup2\n        /* \"#utility.yul\":4475:4488   */\n      mload\n        /* \"#utility.yul\":4508:4571   */\n      tag_172\n        /* \"#utility.yul\":4567:4570   */\n      dup9\n        /* \"#utility.yul\":4552:4565   */\n      dup3\n        /* \"#utility.yul\":4508:4571   */\n      tag_86\n      jump\t// in\n    tag_172:\n        /* \"#utility.yul\":4501:4571   */\n      swap8\n      pop\n        /* \"#utility.yul\":4594:4654   */\n      tag_173\n        /* \"#utility.yul\":4647:4653   */\n      dup4\n        /* \"#utility.yul\":4594:4654   */\n      tag_87\n      jump\t// in\n    tag_173:\n        /* \"#utility.yul\":4584:4654   */\n      swap3\n      pop\n        /* \"#utility.yul\":4440:4664   */\n      pop\n        /* \"#utility.yul\":4427:4428   */\n      0x01\n        /* \"#utility.yul\":4424:4425   */\n      dup2\n        /* \"#utility.yul\":4420:4429   */\n      add\n        /* \"#utility.yul\":4415:4429   */\n      swap1\n      pop\n        /* \"#utility.yul\":4380:4664   */\n      jump(tag_169)\n    tag_171:\n        /* \"#utility.yul\":4384:4398   */\n      pop\n        /* \"#utility.yul\":4680:4683   */\n      dup6\n        /* \"#utility.yul\":4673:4683   */\n      swap4\n      pop\n        /* \"#utility.yul\":4081:4689   */\n      pop\n      pop\n      pop\n        /* \"#utility.yul\":3957:4689   */\n      swap3\n      swap2\n      pop\n      pop\n      jump\t// out\n        /* \"#utility.yul\":4695:5068   */\n    tag_18:\n        /* \"#utility.yul\":4838:4842   */\n      0x00\n        /* \"#utility.yul\":4876:4878   */\n      0x20\n        /* \"#utility.yul\":4865:4874   */\n      dup3\n        /* \"#utility.yul\":4861:4879   */\n      add\n        /* \"#utility.yul\":4853:4879   */\n      swap1\n      pop\n        /* \"#utility.yul\":4925:4934   */\n      dup2\n        /* \"#utility.yul\":4919:4923   */\n      dup2\n        /* \"#utility.yul\":4915:4935   */\n      sub\n        /* \"#utility.yul\":4911:4912   */\n      0x00\n        /* \"#utility.yul\":4900:4909   */\n      dup4\n        /* \"#utility.yul\":4896:4913   */\n      add\n        /* \"#utility.yul\":4889:4936   */\n      mstore\n        /* \"#utility.yul\":4953:5061   */\n      tag_175\n        /* \"#utility.yul\":5056:5060   */\n      dup2\n        /* \"#utility.yul\":5047:5053   */\n      dup5\n        /* \"#utility.yul\":4953:5061   */\n      tag_88\n      jump\t// in\n    tag_175:\n        /* \"#utility.yul\":4945:5061   */\n      swap1\n      pop\n        /* \"#utility.yul\":4695:5068   */\n      swap3\n      swap2\n      pop\n      pop\n      jump\t// out\n        /* \"#utility.yul\":5074:5151   */\n    tag_89:\n        /* \"#utility.yul\":5111:5118   */\n      0x00\n        /* \"#utility.yul\":5140:5145   */\n      dup2\n        /* \"#utility.yul\":5129:5145   */\n      swap1\n      pop\n        /* \"#utility.yul\":5074:5151   */\n      swap2\n      swap1\n      pop\n      jump\t// out\n        /* \"#utility.yul\":5157:5279   */\n    tag_90:\n        /* \"#utility.yul\":5230:5254   */\n      tag_178\n        /* \"#utility.yul\":5248:5253   */\n      dup2\n        /* \"#utility.yul\":5230:5254   */\n      tag_89\n      jump\t// in\n    tag_178:\n        /* \"#utility.yul\":5223:5228   */\n      dup2\n        /* \"#utility.yul\":5220:5255   */\n      eq\n        /* \"#utility.yul\":5210:5273   */\n      tag_179\n      jumpi\n        /* \"#utility.yul\":5269:5270   */\n      0x00\n        /* \"#utility.yul\":5266:5267   */\n      dup1\n        /* \"#utility.yul\":5259:5271   */\n      revert\n        /* \"#utility.yul\":5210:5273   */\n    tag_179:\n        /* \"#utility.yul\":5157:5279   */\n      pop\n      jump\t// out\n        /* \"#utility.yul\":5285:5424   */\n    tag_91:\n        /* \"#utility.yul\":5331:5336   */\n      0x00\n        /* \"#utility.yul\":5369:5375   */\n      dup2\n        /* \"#utility.yul\":5356:5376   */\n      calldataload\n        /* \"#utility.yul\":5347:5376   */\n      swap1\n      pop\n        /* \"#utility.yul\":5385:5418   */\n      tag_181\n        /* \"#utility.yul\":5412:5417   */\n      dup2\n        /* \"#utility.yul\":5385:5418   */\n      tag_90\n      jump\t// in\n    tag_181:\n        /* \"#utility.yul\":5285:5424   */\n      swap3\n      swap2\n      pop\n      pop\n      jump\t// out\n        /* \"#utility.yul\":5430:5759   */\n    tag_21:\n        /* \"#utility.yul\":5489:5495   */\n      0x00\n        /* \"#utility.yul\":5538:5540   */\n      0x20\n        /* \"#utility.yul\":5526:5535   */\n      dup3\n        /* \"#utility.yul\":5517:5524   */\n      dup5\n        /* \"#utility.yul\":5513:5536   */\n      sub\n        /* \"#utility.yul\":5509:5541   */\n      slt\n        /* \"#utility.yul\":5506:5625   */\n      iszero\n      tag_183\n      jumpi\n        /* \"#utility.yul\":5544:5623   */\n      tag_184\n      tag_68\n      jump\t// in\n    tag_184:\n        /* \"#utility.yul\":5506:5625   */\n    tag_183:\n        /* \"#utility.yul\":5664:5665   */\n      0x00\n        /* \"#utility.yul\":5689:5742   */\n      tag_185\n        /* \"#utility.yul\":5734:5741   */\n      dup5\n        /* \"#utility.yul\":5725:5731   */\n      dup3\n        /* \"#utility.yul\":5714:5723   */\n      dup6\n        /* \"#utility.yul\":5710:5732   */\n      add\n        /* \"#utility.yul\":5689:5742   */\n      tag_91\n      jump\t// in\n    tag_185:\n        /* \"#utility.yul\":5679:5742   */\n      swap2\n      pop\n        /* \"#utility.yul\":5635:5752   */\n      pop\n        /* \"#utility.yul\":5430:5759   */\n      swap3\n      swap2\n      pop\n      pop\n      jump\t// out\n        /* \"#utility.yul\":5765:5987   */\n    tag_24:\n        /* \"#utility.yul\":5858:5862   */\n      0x00\n        /* \"#utility.yul\":5896:5898   */\n      0x20\n        /* \"#utility.yul\":5885:5894   */\n      dup3\n        /* \"#utility.yul\":5881:5899   */\n      add\n        /* \"#utility.yul\":5873:5899   */\n      swap1\n      pop\n        /* \"#utility.yul\":5909:5980   */\n      tag_187\n        /* \"#utility.yul\":5977:5978   */\n      0x00\n        /* \"#utility.yul\":5966:5975   */\n      dup4\n        /* \"#utility.yul\":5962:5979   */\n      add\n        /* \"#utility.yul\":5953:5959   */\n      dup5\n        /* \"#utility.yul\":5909:5980   */\n      tag_79\n      jump\t// in\n    tag_187:\n        /* \"#utility.yul\":5765:5987   */\n      swap3\n      swap2\n      pop\n      pop\n      jump\t// out\n        /* \"#utility.yul\":5993:6111   */\n    tag_92:\n        /* \"#utility.yul\":6080:6104   */\n      tag_189\n        /* \"#utility.yul\":6098:6103   */\n      dup2\n        /* \"#utility.yul\":6080:6104   */\n      tag_89\n      jump\t// in\n    tag_189:\n        /* \"#utility.yul\":6075:6078   */\n      dup3\n        /* \"#utility.yul\":6068:6105   */\n      mstore\n        /* \"#utility.yul\":5993:6111   */\n      pop\n      pop\n      jump\t// out\n        /* \"#utility.yul\":6117:6339   */\n    tag_28:\n        /* \"#utility.yul\":6210:6214   */\n      0x00\n        /* \"#utility.yul\":6248:6250   */\n      0x20\n        /* \"#utility.yul\":6237:6246   */\n      dup3\n        /* \"#utility.yul\":6233:6251   */\n      add\n        /* \"#utility.yul\":6225:6251   */\n      swap1\n      pop\n        /* \"#utility.yul\":6261:6332   */\n      tag_191\n        /* \"#utility.yul\":6329:6330   */\n      0x00\n        /* \"#utility.yul\":6318:6327   */\n      dup4\n        /* \"#utility.yul\":6314:6331   */\n      add\n        /* \"#utility.yul\":6305:6311   */\n      dup5\n        /* \"#utility.yul\":6261:6332   */\n      tag_92\n      jump\t// in\n    tag_191:\n        /* \"#utility.yul\":6117:6339   */\n      swap3\n      swap2\n      pop\n      pop\n      jump\t// out\n        /* \"#utility.yul\":6345:6462   */\n    tag_93:\n        /* \"#utility.yul\":6454:6455   */\n      0x00\n        /* \"#utility.yul\":6451:6452   */\n      dup1\n        /* \"#utility.yul\":6444:6456   */\n      revert\n        /* \"#utility.yul\":6468:6585   */\n    tag_94:\n        /* \"#utility.yul\":6577:6578   */\n      0x00\n        /* \"#utility.yul\":6574:6575   */\n      dup1\n        /* \"#utility.yul\":6567:6579   */\n      revert\n        /* \"#utility.yul\":6591:6708   */\n    tag_95:\n        /* \"#utility.yul\":6700:6701   */\n      0x00\n        /* \"#utility.yul\":6697:6698   */\n      dup1\n        /* \"#utility.yul\":6690:6702   */\n      revert\n        /* \"#utility.yul\":6728:7281   */\n    tag_96:\n        /* \"#utility.yul\":6786:6794   */\n      0x00\n        /* \"#utility.yul\":6796:6802   */\n      dup1\n        /* \"#utility.yul\":6846:6849   */\n      dup4\n        /* \"#utility.yul\":6839:6843   */\n      0x1f\n        /* \"#utility.yul\":6831:6837   */\n      dup5\n        /* \"#utility.yul\":6827:6844   */\n      add\n        /* \"#utility.yul\":6823:6850   */\n      slt\n        /* \"#utility.yul\":6813:6935   */\n      tag_196\n      jumpi\n        /* \"#utility.yul\":6854:6933   */\n      tag_197\n      tag_93\n      jump\t// in\n    tag_197:\n        /* \"#utility.yul\":6813:6935   */\n    tag_196:\n        /* \"#utility.yul\":6967:6973   */\n      dup3\n        /* \"#utility.yul\":6954:6974   */\n      calldataload\n        /* \"#utility.yul\":6944:6974   */\n      swap1\n      pop\n        /* \"#utility.yul\":6997:7015   */\n      0xffffffffffffffff\n        /* \"#utility.yul\":6989:6995   */\n      dup2\n        /* \"#utility.yul\":6986:7016   */\n      gt\n        /* \"#utility.yul\":6983:7100   */\n      iszero\n      tag_198\n      jumpi\n        /* \"#utility.yul\":7019:7098   */\n      tag_199\n      tag_94\n      jump\t// in\n    tag_199:\n        /* \"#utility.yul\":6983:7100   */\n    tag_198:\n        /* \"#utility.yul\":7133:7137   */\n      0x20\n        /* \"#utility.yul\":7125:7131   */\n      dup4\n        /* \"#utility.yul\":7121:7138   */\n      add\n        /* \"#utility.yul\":7109:7138   */\n      swap2\n      pop\n        /* \"#utility.yul\":7187:7190   */\n      dup4\n        /* \"#utility.yul\":7179:7183   */\n      0x01\n        /* \"#utility.yul\":7171:7177   */\n      dup3\n        /* \"#utility.yul\":7167:7184   */\n      mul\n        /* \"#utility.yul\":7157:7165   */\n      dup4\n        /* \"#utility.yul\":7153:7185   */\n      add\n        /* \"#utility.yul\":7150:7191   */\n      gt\n        /* \"#utility.yul\":7147:7275   */\n      iszero\n      tag_200\n      jumpi\n        /* \"#utility.yul\":7194:7273   */\n      tag_201\n      tag_95\n      jump\t// in\n    tag_201:\n        /* \"#utility.yul\":7147:7275   */\n    tag_200:\n        /* \"#utility.yul\":6728:7281   */\n      swap3\n      pop\n      swap3\n      swap1\n      pop\n      jump\t// out\n        /* \"#utility.yul\":7287:7816   */\n    tag_35:\n        /* \"#utility.yul\":7358:7364   */\n      0x00\n        /* \"#utility.yul\":7366:7372   */\n      dup1\n        /* \"#utility.yul\":7415:7417   */\n      0x20\n        /* \"#utility.yul\":7403:7412   */\n      dup4\n        /* \"#utility.yul\":7394:7401   */\n      dup6\n        /* \"#utility.yul\":7390:7413   */\n      sub\n        /* \"#utility.yul\":7386:7418   */\n      slt\n        /* \"#utility.yul\":7383:7502   */\n      iszero\n      tag_203\n      jumpi\n        /* \"#utility.yul\":7421:7500   */\n      tag_204\n      tag_68\n      jump\t// in\n    tag_204:\n        /* \"#utility.yul\":7383:7502   */\n    tag_203:\n        /* \"#utility.yul\":7569:7570   */\n      0x00\n        /* \"#utility.yul\":7558:7567   */\n      dup4\n        /* \"#utility.yul\":7554:7571   */\n      add\n        /* \"#utility.yul\":7541:7572   */\n      calldataload\n        /* \"#utility.yul\":7599:7617   */\n      0xffffffffffffffff\n        /* \"#utility.yul\":7591:7597   */\n      dup2\n        /* \"#utility.yul\":7588:7618   */\n      gt\n        /* \"#utility.yul\":7585:7702   */\n      iszero\n      tag_205\n      jumpi\n        /* \"#utility.yul\":7621:7700   */\n      tag_206\n      tag_69\n      jump\t// in\n    tag_206:\n        /* \"#utility.yul\":7585:7702   */\n    tag_205:\n        /* \"#utility.yul\":7734:7799   */\n      tag_207\n        /* \"#utility.yul\":7791:7798   */\n      dup6\n        /* \"#utility.yul\":7782:7788   */\n      dup3\n        /* \"#utility.yul\":7771:7780   */\n      dup7\n        /* \"#utility.yul\":7767:7789   */\n      add\n        /* \"#utility.yul\":7734:7799   */\n      tag_96\n      jump\t// in\n    tag_207:\n        /* \"#utility.yul\":7716:7799   */\n      swap3\n      pop\n      swap3\n      pop\n        /* \"#utility.yul\":7512:7809   */\n      pop\n        /* \"#utility.yul\":7287:7816   */\n      swap3\n      pop\n      swap3\n      swap1\n      pop\n      jump\t// out\n        /* \"#utility.yul\":7822:8002   */\n    tag_97:\n        /* \"#utility.yul\":7870:7947   */\n      0x4e487b7100000000000000000000000000000000000000000000000000000000\n        /* \"#utility.yul\":7867:7868   */\n      0x00\n        /* \"#utility.yul\":7860:7948   */\n      mstore\n        /* \"#utility.yul\":7967:7971   */\n      0x22\n        /* \"#utility.yul\":7964:7965   */\n      0x04\n        /* \"#utility.yul\":7957:7972   */\n      mstore\n        /* \"#utility.yul\":7991:7995   */\n      0x24\n        /* \"#utility.yul\":7988:7989   */\n      0x00\n        /* \"#utility.yul\":7981:7996   */\n      revert\n        /* \"#utility.yul\":8008:8328   */\n    tag_39:\n        /* \"#utility.yul\":8052:8058   */\n      0x00\n        /* \"#utility.yul\":8089:8090   */\n      0x02\n        /* \"#utility.yul\":8083:8087   */\n      dup3\n        /* \"#utility.yul\":8079:8091   */\n      div\n        /* \"#utility.yul\":8069:8091   */\n      swap1\n      pop\n        /* \"#utility.yul\":8136:8137   */\n      0x01\n        /* \"#utility.yul\":8130:8134   */\n      dup3\n        /* \"#utility.yul\":8126:8138   */\n      and\n        /* \"#utility.yul\":8157:8175   */\n      dup1\n        /* \"#utility.yul\":8147:8228   */\n      tag_210\n      jumpi\n        /* \"#utility.yul\":8213:8217   */\n      0x7f\n        /* \"#utility.yul\":8205:8211   */\n      dup3\n        /* \"#utility.yul\":8201:8218   */\n      and\n        /* \"#utility.yul\":8191:8218   */\n      swap2\n      pop\n        /* \"#utility.yul\":8147:8228   */\n    tag_210:\n        /* \"#utility.yul\":8275:8277   */\n      0x20\n        /* \"#utility.yul\":8267:8273   */\n      dup3\n        /* \"#utility.yul\":8264:8278   */\n      lt\n        /* \"#utility.yul\":8244:8262   */\n      dup2\n        /* \"#utility.yul\":8241:8279   */\n      sub\n        /* \"#utility.yul\":8238:8322   */\n      tag_211\n      jumpi\n        /* \"#utility.yul\":8294:8312   */\n      tag_212\n      tag_97\n      jump\t// in\n    tag_212:\n        /* \"#utility.yul\":8238:8322   */\n    tag_211:\n        /* \"#utility.yul\":8059:8328   */\n      pop\n        /* \"#utility.yul\":8008:8328   */\n      swap2\n      swap1\n      pop\n      jump\t// out\n        /* \"#utility.yul\":8334:8504   */\n    tag_98:\n        /* \"#utility.yul\":8474:8496   */\n      0x4e616d652063616e6e6f7420626520656d707479000000000000000000000000\n        /* \"#utility.yul\":8470:8471   */\n      0x00\n        /* \"#utility.yul\":8462:8468   */\n      dup3\n        /* \"#utility.yul\":8458:8472   */\n      add\n        /* \"#utility.yul\":8451:8497   */\n      mstore\n        /* \"#utility.yul\":8334:8504   */\n      pop\n      jump\t// out\n        /* \"#utility.yul\":8510:8876   */\n    tag_99:\n        /* \"#utility.yul\":8652:8655   */\n      0x00\n        /* \"#utility.yul\":8673:8740   */\n      tag_215\n        /* \"#utility.yul\":8737:8739   */\n      0x14\n        /* \"#utility.yul\":8732:8735   */\n      dup4\n        /* \"#utility.yul\":8673:8740   */\n      tag_75\n      jump\t// in\n    tag_215:\n        /* \"#utility.yul\":8666:8740   */\n      swap2\n      pop\n        /* \"#utility.yul\":8749:8842   */\n      tag_216\n        /* \"#utility.yul\":8838:8841   */\n      dup3\n        /* \"#utility.yul\":8749:8842   */\n      tag_98\n      jump\t// in\n    tag_216:\n        /* \"#utility.yul\":8867:8869   */\n      0x20\n        /* \"#utility.yul\":8862:8865   */\n      dup3\n        /* \"#utility.yul\":8858:8870   */\n      add\n        /* \"#utility.yul\":8851:8870   */\n      swap1\n      pop\n        /* \"#utility.yul\":8510:8876   */\n      swap2\n      swap1\n      pop\n      jump\t// out\n        /* \"#utility.yul\":8882:9301   */\n    tag_58:\n        /* \"#utility.yul\":9048:9052   */\n      0x00\n        /* \"#utility.yul\":9086:9088   */\n      0x20\n        /* \"#utility.yul\":9075:9084   */\n      dup3\n        /* \"#utility.yul\":9071:9089   */\n      add\n        /* \"#utility.yul\":9063:9089   */\n      swap1\n      pop\n        /* \"#utility.yul\":9135:9144   */\n      dup2\n        /* \"#utility.yul\":9129:9133   */\n      dup2\n        /* \"#utility.yul\":9125:9145   */\n      sub\n        /* \"#utility.yul\":9121:9122   */\n      0x00\n        /* \"#utility.yul\":9110:9119   */\n      dup4\n        /* \"#utility.yul\":9106:9123   */\n      add\n        /* \"#utility.yul\":9099:9146   */\n      mstore\n        /* \"#utility.yul\":9163:9294   */\n      tag_218\n        /* \"#utility.yul\":9289:9293   */\n      dup2\n        /* \"#utility.yul\":9163:9294   */\n      tag_99\n      jump\t// in\n    tag_218:\n        /* \"#utility.yul\":9155:9294   */\n      swap1\n      pop\n        /* \"#utility.yul\":8882:9301   */\n      swap2\n      swap1\n      pop\n      jump\t// out\n        /* \"#utility.yul\":9307:9480   */\n    tag_100:\n        /* \"#utility.yul\":9447:9472   */\n      0x5573657220616c72656164792072656769737465726564000000000000000000\n        /* \"#utility.yul\":9443:9444   */\n      0x00\n        /* \"#utility.yul\":9435:9441   */\n      dup3\n        /* \"#utility.yul\":9431:9445   */\n      add\n        /* \"#utility.yul\":9424:9473   */\n      mstore\n        /* \"#utility.yul\":9307:9480   */\n      pop\n      jump\t// out\n        /* \"#utility.yul\":9486:9852   */\n    tag_101:\n        /* \"#utility.yul\":9628:9631   */\n      0x00\n        /* \"#utility.yul\":9649:9716   */\n      tag_221\n        /* \"#utility.yul\":9713:9715   */\n      0x17\n        /* \"#utility.yul\":9708:9711   */\n      dup4\n        /* \"#utility.yul\":9649:9716   */\n      tag_75\n      jump\t// in\n    tag_221:\n        /* \"#utility.yul\":9642:9716   */\n      swap2\n      pop\n        /* \"#utility.yul\":9725:9818   */\n      tag_222\n        /* \"#utility.yul\":9814:9817   */\n      dup3\n        /* \"#utility.yul\":9725:9818   */\n      tag_100\n      jump\t// in\n    tag_222:\n        /* \"#utility.yul\":9843:9845   */\n      0x20\n        /* \"#utility.yul\":9838:9841   */\n      dup3\n        /* \"#utility.yul\":9834:9846   */\n      add\n        /* \"#utility.yul\":9827:9846   */\n      swap1\n      pop\n        /* \"#utility.yul\":9486:9852   */\n      swap2\n      swap1\n      pop\n      jump\t// out\n        /* \"#utility.yul\":9858:10277   */\n    tag_61:\n        /* \"#utility.yul\":10024:10028   */\n      0x00\n        /* \"#utility.yul\":10062:10064   */\n      0x20\n        /* \"#utility.yul\":10051:10060   */\n      dup3\n        /* \"#utility.yul\":10047:10065   */\n      add\n        /* \"#utility.yul\":10039:10065   */\n      swap1\n      pop\n        /* \"#utility.yul\":10111:10120   */\n      dup2\n        /* \"#utility.yul\":10105:10109   */\n      dup2\n        /* \"#utility.yul\":10101:10121   */\n      sub\n        /* \"#utility.yul\":10097:10098   */\n      0x00\n        /* \"#utility.yul\":10086:10095   */\n      dup4\n        /* \"#utility.yul\":10082:10099   */\n      add\n        /* \"#utility.yul\":10075:10122   */\n      mstore\n        /* \"#utility.yul\":10139:10270   */\n      tag_224\n        /* \"#utility.yul\":10265:10269   */\n      dup2\n        /* \"#utility.yul\":10139:10270   */\n      tag_101\n      jump\t// in\n    tag_224:\n        /* \"#utility.yul\":10131:10270   */\n      swap1\n      pop\n        /* \"#utility.yul\":9858:10277   */\n      swap2\n      swap1\n      pop\n      jump\t// out\n        /* \"#utility.yul\":10283:10463   */\n    tag_102:\n        /* \"#utility.yul\":10331:10408   */\n      0x4e487b7100000000000000000000000000000000000000000000000000000000\n        /* \"#utility.yul\":10328:10329   */\n      0x00\n        /* \"#utility.yul\":10321:10409   */\n      mstore\n        /* \"#utility.yul\":10428:10432   */\n      0x41\n        /* \"#utility.yul\":10425:10426   */\n      0x04\n        /* \"#utility.yul\":10418:10433   */\n      mstore\n        /* \"#utility.yul\":10452:10456   */\n      0x24\n        /* \"#utility.yul\":10449:10450   */\n      0x00\n        /* \"#utility.yul\":10442:10457   */\n      revert\n        /* \"#utility.yul\":10469:10610   */\n    tag_103:\n        /* \"#utility.yul\":10518:10522   */\n      0x00\n        /* \"#utility.yul\":10541:10544   */\n      dup2\n        /* \"#utility.yul\":10533:10544   */\n      swap1\n      pop\n        /* \"#utility.yul\":10564:10567   */\n      dup2\n        /* \"#utility.yul\":10561:10562   */\n      0x00\n        /* \"#utility.yul\":10554:10568   */\n      mstore\n        /* \"#utility.yul\":10598:10602   */\n      0x20\n        /* \"#utility.yul\":10595:10596   */\n      0x00\n        /* \"#utility.yul\":10585:10603   */\n      keccak256\n        /* \"#utility.yul\":10577:10603   */\n      swap1\n      pop\n        /* \"#utility.yul\":10469:10610   */\n      swap2\n      swap1\n      pop\n      jump\t// out\n        /* \"#utility.yul\":10616:10709   */\n    tag_104:\n        /* \"#utility.yul\":10653:10659   */\n      0x00\n        /* \"#utility.yul\":10700:10702   */\n      0x20\n        /* \"#utility.yul\":10695:10697   */\n      0x1f\n        /* \"#utility.yul\":10688:10693   */\n      dup4\n        /* \"#utility.yul\":10684:10698   */\n      add\n        /* \"#utility.yul\":10680:10703   */\n      div\n        /* \"#utility.yul\":10670:10703   */\n      swap1\n      pop\n        /* \"#utility.yul\":10616:10709   */\n      swap2\n      swap1\n      pop\n      jump\t// out\n        /* \"#utility.yul\":10715:10822   */\n    tag_105:\n        /* \"#utility.yul\":10759:10767   */\n      0x00\n        /* \"#utility.yul\":10809:10814   */\n      dup3\n        /* \"#utility.yul\":10803:10807   */\n      dup3\n        /* \"#utility.yul\":10799:10815   */\n      shl\n        /* \"#utility.yul\":10778:10815   */\n      swap1\n      pop\n        /* \"#utility.yul\":10715:10822   */\n      swap3\n      swap2\n      pop\n      pop\n      jump\t// out\n        /* \"#utility.yul\":10828:11221   */\n    tag_106:\n        /* \"#utility.yul\":10897:10903   */\n      0x00\n        /* \"#utility.yul\":10947:10948   */\n      0x08\n        /* \"#utility.yul\":10935:10945   */\n      dup4\n        /* \"#utility.yul\":10931:10949   */\n      mul\n        /* \"#utility.yul\":10970:11067   */\n      tag_230\n        /* \"#utility.yul\":11000:11066   */\n      0xffffffffffffffffffffffffffffffffffffffffffffffffffffffffffffffff\n        /* \"#utility.yul\":10989:10998   */\n      dup3\n        /* \"#utility.yul\":10970:11067   */\n      tag_105\n      jump\t// in\n    tag_230:\n        /* \"#utility.yul\":11088:11127   */\n      tag_231\n        /* \"#utility.yul\":11118:11126   */\n      dup7\n        /* \"#utility.yul\":11107:11116   */\n      dup4\n        /* \"#utility.yul\":11088:11127   */\n      tag_105\n      jump\t// in\n    tag_231:\n        /* \"#utility.yul\":11076:11127   */\n      swap6\n      pop\n        /* \"#utility.yul\":11160:11164   */\n      dup1\n        /* \"#utility.yul\":11156:11165   */\n      not\n        /* \"#utility.yul\":11149:11154   */\n      dup5\n        /* \"#utility.yul\":11145:11166   */\n      and\n        /* \"#utility.yul\":11136:11166   */\n      swap4\n      pop\n        /* \"#utility.yul\":11209:11213   */\n      dup1\n        /* \"#utility.yul\":11199:11207   */\n      dup7\n        /* \"#utility.yul\":11195:11214   */\n      and\n        /* \"#utility.yul\":11188:11193   */\n      dup5\n        /* \"#utility.yul\":11185:11215   */\n      or\n        /* \"#utility.yul\":11175:11215   */\n      swap3\n      pop\n        /* \"#utility.yul\":10904:11221   */\n      pop\n      pop\n        /* \"#utility.yul\":10828:11221   */\n      swap4\n      swap3\n      pop\n      pop\n      pop\n      jump\t// out\n        /* \"#utility.yul\":11227:11287   */\n    tag_107:\n        /* \"#utility.yul\":11255:11258   */\n      0x00\n        /* \"#utility.yul\":11276:11281   */\n      dup2\n        /* \"#utility.yul\":11269:11281   */\n      swap1\n      pop\n        /* \"#utility.yul\":11227:11287   */\n      swap2\n      swap1\n      pop\n      jump\t// out\n        /* \"#utility.yul\":11293:11435   */\n    tag_108:\n        /* \"#utility.yul\":11343:11352   */\n      0x00\n        /* \"#utility.yul\":11376:11429   */\n      tag_234\n        /* \"#utility.yul\":11394:11428   */\n      tag_235\n        /* \"#utility.yul\":11403:11427   */\n      tag_236\n        /* \"#utility.yul\":11421:11426   */\n      dup5\n        /* \"#utility.yul\":11403:11427   */\n      tag_89\n      jump\t// in\n    tag_236:\n        /* \"#utility.yul\":11394:11428   */\n      tag_107\n      jump\t// in\n    tag_235:\n        /* \"#utility.yul\":11376:11429   */\n      tag_89\n      jump\t// in\n    tag_234:\n        /* \"#utility.yul\":11363:11429   */\n      swap1\n      pop\n        /* \"#utility.yul\":11293:11435   */\n      swap2\n      swap1\n      pop\n      jump\t// out\n        /* \"#utility.yul\":11441:11516   */\n    tag_109:\n        /* \"#utility.yul\":11484:11487   */\n      0x00\n        /* \"#utility.yul\":11505:11510   */\n      dup2\n        /* \"#utility.yul\":11498:11510   */\n      swap1\n      pop\n        /* \"#utility.yul\":11441:11516   */\n      swap2\n      swap1\n      pop\n      jump\t// out\n        /* \"#utility.yul\":11522:11791   */\n    tag_110:\n        /* \"#utility.yul\":11632:11671   */\n      tag_239\n        /* \"#utility.yul\":11663:11670   */\n      dup4\n        /* \"#utility.yul\":11632:11671   */\n      tag_108\n      jump\t// in\n    tag_239:\n        /* \"#utility.yul\":11693:11784   */\n      tag_240\n        /* \"#utility.yul\":11742:11783   */\n      tag_241\n        /* \"#utility.yul\":11766:11782   */\n      dup3\n        /* \"#utility.yul\":11742:11783   */\n      tag_109\n      jump\t// in\n    tag_241:\n        /* \"#utility.yul\":11734:11740   */\n      dup5\n        /* \"#utility.yul\":11727:11731   */\n      dup5\n        /* \"#utility.yul\":11721:11732   */\n      sload\n        /* \"#utility.yul\":11693:11784   */\n      tag_106\n      jump\t// in\n    tag_240:\n        /* \"#utility.yul\":11687:11691   */\n      dup3\n        /* \"#utility.yul\":11680:11785   */\n      sstore\n        /* \"#utility.yul\":11598:11791   */\n      pop\n        /* \"#utility.yul\":11522:11791   */\n      pop\n      pop\n      pop\n      jump\t// out\n        /* \"#utility.yul\":11797:11870   */\n    tag_111:\n        /* \"#utility.yul\":11842:11845   */\n      0x00\n        /* \"#utility.yul\":11797:11870   */\n      swap1\n      jump\t// out\n        /* \"#utility.yul\":11876:12065   */\n    tag_112:\n        /* \"#utility.yul\":11953:11985   */\n      tag_244\n      tag_111\n      jump\t// in\n    tag_244:\n        /* \"#utility.yul\":11994:12059   */\n      tag_245\n        /* \"#utility.yul\":12052:12058   */\n      dup2\n        /* \"#utility.yul\":12044:12050   */\n      dup5\n        /* \"#utility.yul\":12038:12042   */\n      dup5\n        /* \"#utility.yul\":11994:12059   */\n      tag_110\n      jump\t// in\n    tag_245:\n        /* \"#utility.yul\":11929:12065   */\n      pop\n        /* \"#utility.yul\":11876:12065   */\n      pop\n      pop\n      jump\t// out\n        /* \"#utility.yul\":12071:12257   */\n    tag_113:\n        /* \"#utility.yul\":12131:12251   */\n    tag_247:\n        /* \"#utility.yul\":12148:12151   */\n      dup2\n        /* \"#utility.yul\":12141:12146   */\n      dup2\n        /* \"#utility.yul\":12138:12152   */\n      lt\n        /* \"#utility.yul\":12131:12251   */\n      iszero\n      tag_249\n      jumpi\n        /* \"#utility.yul\":12202:12241   */\n      tag_250\n        /* \"#utility.yul\":12239:12240   */\n      0x00\n        /* \"#utility.yul\":12232:12237   */\n      dup3\n        /* \"#utility.yul\":12202:12241   */\n      tag_112\n      jump\t// in\n    tag_250:\n        /* \"#utility.yul\":12175:12176   */\n      0x01\n        /* \"#utility.yul\":12168:12173   */\n      dup2\n        /* \"#utility.yul\":12164:12177   */\n      add\n        /* \"#utility.yul\":12155:12177   */\n      swap1\n      pop\n        /* \"#utility.yul\":12131:12251   */\n      jump(tag_247)\n    tag_249:\n        /* \"#utility.yul\":12071:12257   */\n      pop\n      pop\n      jump\t// out\n        /* \"#utility.yul\":12263:12806   */\n    tag_114:\n        /* \"#utility.yul\":12364:12366   */\n      0x1f\n        /* \"#utility.yul\":12359:12362   */\n      dup3\n        /* \"#utility.yul\":12356:12367   */\n      gt\n        /* \"#utility.yul\":12353:12799   */\n      iszero\n      tag_252\n      jumpi\n        /* \"#utility.yul\":12398:12436   */\n      tag_253\n        /* \"#utility.yul\":12430:12435   */\n      dup2\n        /* \"#utility.yul\":12398:12436   */\n      tag_103\n      jump\t// in\n    tag_253:\n        /* \"#utility.yul\":12482:12511   */\n      tag_254\n        /* \"#utility.yul\":12500:12510   */\n      dup5\n        /* \"#utility.yul\":12482:12511   */\n      tag_104\n      jump\t// in\n    tag_254:\n        /* \"#utility.yul\":12472:12480   */\n      dup2\n        /* \"#utility.yul\":12468:12512   */\n      add\n        /* \"#utility.yul\":12665:12667   */\n      0x20\n        /* \"#utility.yul\":12653:12663   */\n      dup6\n        /* \"#utility.yul\":12650:12668   */\n      lt\n        /* \"#utility.yul\":12647:12696   */\n      iszero\n      tag_255\n      jumpi\n        /* \"#utility.yul\":12686:12694   */\n      dup2\n        /* \"#utility.yul\":12671:12694   */\n      swap1\n      pop\n        /* \"#utility.yul\":12647:12696   */\n    tag_255:\n        /* \"#utility.yul\":12709:12789   */\n      tag_256\n        /* \"#utility.yul\":12765:12787   */\n      tag_257\n        /* \"#utility.yul\":12783:12786   */\n      dup6\n        /* \"#utility.yul\":12765:12787   */\n      tag_104\n      jump\t// in\n    tag_257:\n        /* \"#utility.yul\":12755:12763   */\n      dup4\n        /* \"#utility.yul\":12751:12788   */\n      add\n        /* \"#utility.yul\":12738:12749   */\n      dup3\n        /* \"#utility.yul\":12709:12789   */\n      tag_113\n      jump\t// in\n    tag_256:\n        /* \"#utility.yul\":12368:12799   */\n      pop\n      pop\n        /* \"#utility.yul\":12353:12799   */\n    tag_252:\n        /* \"#utility.yul\":12263:12806   */\n      pop\n      pop\n      pop\n      jump\t// out\n        /* \"#utility.yul\":12812:12929   */\n    tag_115:\n        /* \"#utility.yul\":12866:12874   */\n      0x00\n        /* \"#utility.yul\":12916:12921   */\n      dup3\n        /* \"#utility.yul\":12910:12914   */\n      dup3\n        /* \"#utility.yul\":12906:12922   */\n      shr\n        /* \"#utility.yul\":12885:12922   */\n      swap1\n      pop\n        /* \"#utility.yul\":12812:12929   */\n      swap3\n      swap2\n      pop\n      pop\n      jump\t// out\n        /* \"#utility.yul\":12935:13104   */\n    tag_116:\n        /* \"#utility.yul\":12979:12985   */\n      0x00\n        /* \"#utility.yul\":13012:13063   */\n      tag_260\n        /* \"#utility.yul\":13060:13061   */\n      0x00\n        /* \"#utility.yul\":13056:13062   */\n      not\n        /* \"#utility.yul\":13048:13053   */\n      dup5\n        /* \"#utility.yul\":13045:13046   */\n      0x08\n        /* \"#utility.yul\":13041:13054   */\n      mul\n        /* \"#utility.yul\":13012:13063   */\n      tag_115\n      jump\t// in\n    tag_260:\n        /* \"#utility.yul\":13008:13064   */\n      not\n        /* \"#utility.yul\":13093:13097   */\n      dup1\n        /* \"#utility.yul\":13087:13091   */\n      dup4\n        /* \"#utility.yul\":13083:13098   */\n      and\n        /* \"#utility.yul\":13073:13098   */\n      swap2\n      pop\n        /* \"#utility.yul\":12986:13104   */\n      pop\n        /* \"#utility.yul\":12935:13104   */\n      swap3\n      swap2\n      pop\n      pop\n      jump\t// out\n        /* \"#utility.yul\":13109:13404   */\n    tag_117:\n        /* \"#utility.yul\":13185:13189   */\n      0x00\n        /* \"#utility.yul\":13331:13360   */\n      tag_262\n        /* \"#utility.yul\":13356:13359   */\n      dup4\n        /* \"#utility.yul\":13350:13354   */\n      dup4\n        /* \"#utility.yul\":13331:13360   */\n      tag_116\n      jump\t// in\n    tag_262:\n        /* \"#utility.yul\":13323:13360   */\n      swap2\n      pop\n        /* \"#utility.yul\":13393:13396   */\n      dup3\n        /* \"#utility.yul\":13390:13391   */\n      0x02\n        /* \"#utility.yul\":13386:13397   */\n      mul\n        /* \"#utility.yul\":13380:13384   */\n      dup3\n        /* \"#utility.yul\":13377:13398   */\n      or\n        /* \"#utility.yul\":13369:13398   */\n      swap1\n      pop\n        /* \"#utility.yul\":13109:13404   */\n      swap3\n      swap2\n      pop\n      pop\n      jump\t// out\n        /* \"#utility.yul\":13409:14804   */\n    tag_63:\n        /* \"#utility.yul\":13526:13563   */\n      tag_264\n        /* \"#utility.yul\":13559:13562   */\n      dup3\n        /* \"#utility.yul\":13526:13563   */\n      tag_74\n      jump\t// in\n    tag_264:\n        /* \"#utility.yul\":13628:13646   */\n      0xffffffffffffffff\n        /* \"#utility.yul\":13620:13626   */\n      dup2\n        /* \"#utility.yul\":13617:13647   */\n      gt\n        /* \"#utility.yul\":13614:13670   */\n      iszero\n      tag_265\n      jumpi\n        /* \"#utility.yul\":13650:13668   */\n      tag_266\n      tag_102\n      jump\t// in\n    tag_266:\n        /* \"#utility.yul\":13614:13670   */\n    tag_265:\n        /* \"#utility.yul\":13694:13732   */\n      tag_267\n        /* \"#utility.yul\":13726:13730   */\n      dup3\n        /* \"#utility.yul\":13720:13731   */\n      sload\n        /* \"#utility.yul\":13694:13732   */\n      tag_39\n      jump\t// in\n    tag_267:\n        /* \"#utility.yul\":13779:13846   */\n      tag_268\n        /* \"#utility.yul\":13839:13845   */\n      dup3\n        /* \"#utility.yul\":13831:13837   */\n      dup3\n        /* \"#utility.yul\":13825:13829   */\n      dup6\n        /* \"#utility.yul\":13779:13846   */\n      tag_114\n      jump\t// in\n    tag_268:\n        /* \"#utility.yul\":13873:13874   */\n      0x00\n        /* \"#utility.yul\":13897:13901   */\n      0x20\n        /* \"#utility.yul\":13884:13901   */\n      swap1\n      pop\n        /* \"#utility.yul\":13929:13931   */\n      0x1f\n        /* \"#utility.yul\":13921:13927   */\n      dup4\n        /* \"#utility.yul\":13918:13932   */\n      gt\n        /* \"#utility.yul\":13946:13947   */\n      0x01\n        /* \"#utility.yul\":13941:14559   */\n      dup2\n      eq\n      tag_270\n      jumpi\n        /* \"#utility.yul\":14603:14604   */\n      0x00\n        /* \"#utility.yul\":14620:14626   */\n      dup5\n        /* \"#utility.yul\":14617:14694   */\n      iszero\n      tag_271\n      jumpi\n        /* \"#utility.yul\":14669:14678   */\n      dup3\n        /* \"#utility.yul\":14664:14667   */\n      dup8\n        /* \"#utility.yul\":14660:14679   */\n      add\n        /* \"#utility.yul\":14654:14680   */\n      mload\n        /* \"#utility.yul\":14645:14680   */\n      swap1\n      pop\n        /* \"#utility.yul\":14617:14694   */\n    tag_271:\n        /* \"#utility.yul\":14720:14787   */\n      tag_272\n        /* \"#utility.yul\":14780:14786   */\n      dup6\n        /* \"#utility.yul\":14773:14778   */\n      dup3\n        /* \"#utility.yul\":14720:14787   */\n      tag_117\n      jump\t// in\n    tag_272:\n        /* \"#utility.yul\":14714:14718   */\n      dup7\n        /* \"#utility.yul\":14707:14788   */\n      sstore\n        /* \"#utility.yul\":14576:14798   */\n      pop\n        /* \"#utility.yul\":13911:14798   */\n      jump(tag_269)\n        /* \"#utility.yul\":13941:14559   */\n    tag_270:\n        /* \"#utility.yul\":13993:13997   */\n      0x1f\n        /* \"#utility.yul\":13989:13998   */\n      not\n        /* \"#utility.yul\":13981:13987   */\n      dup5\n        /* \"#utility.yul\":13977:13999   */\n      and\n        /* \"#utility.yul\":14027:14064   */\n      tag_273\n        /* \"#utility.yul\":14059:14063   */\n      dup7\n        /* \"#utility.yul\":14027:14064   */\n      tag_103\n      jump\t// in\n    tag_273:\n        /* \"#utility.yul\":14086:14087   */\n      0x00\n        /* \"#utility.yul\":14100:14308   */\n    tag_274:\n        /* \"#utility.yul\":14114:14121   */\n      dup3\n        /* \"#utility.yul\":14111:14112   */\n      dup2\n        /* \"#utility.yul\":14108:14122   */\n      lt\n        /* \"#utility.yul\":14100:14308   */\n      iszero\n      tag_276\n      jumpi\n        /* \"#utility.yul\":14193:14202   */\n      dup5\n        /* \"#utility.yul\":14188:14191   */\n      dup10\n        /* \"#utility.yul\":14184:14203   */\n      add\n        /* \"#utility.yul\":14178:14204   */\n      mload\n        /* \"#utility.yul\":14170:14176   */\n      dup3\n        /* \"#utility.yul\":14163:14205   */\n      sstore\n        /* \"#utility.yul\":14244:14245   */\n      0x01\n        /* \"#utility.yul\":14236:14242   */\n      dup3\n        /* \"#utility.yul\":14232:14246   */\n      add\n        /* \"#utility.yul\":14222:14246   */\n      swap2\n      pop\n        /* \"#utility.yul\":14291:14293   */\n      0x20\n        /* \"#utility.yul\":14280:14289   */\n      dup6\n        /* \"#utility.yul\":14276:14294   */\n      add\n        /* \"#utility.yul\":14263:14294   */\n      swap5\n      pop\n        /* \"#utility.yul\":14137:14141   */\n      0x20\n        /* \"#utility.yul\":14134:14135   */\n      dup2\n        /* \"#utility.yul\":14130:14142   */\n      add\n        /* \"#utility.yul\":14125:14142   */\n      swap1\n      pop\n        /* \"#utility.yul\":14100:14308   */\n      jump(tag_274)\n    tag_276:\n        /* \"#utility.yul\":14336:14342   */\n      dup7\n        /* \"#utility.yul\":14327:14334   */\n      dup4\n        /* \"#utility.yul\":14324:14343   */\n      lt\n        /* \"#utility.yul\":14321:14500   */\n      iszero\n      tag_277\n      jumpi\n        /* \"#utility.yul\":14394:14403   */\n      dup5\n        /* \"#utility.yul\":14389:14392   */\n      dup10\n        /* \"#utility.yul\":14385:14404   */\n      add\n        /* \"#utility.yul\":14379:14405   */\n      mload\n        /* \"#utility.yul\":14437:14485   */\n      tag_278\n        /* \"#utility.yul\":14479:14483   */\n      0x1f\n        /* \"#utility.yul\":14471:14477   */\n      dup10\n        /* \"#utility.yul\":14467:14484   */\n      and\n        /* \"#utility.yul\":14456:14465   */\n      dup3\n        /* \"#utility.yul\":14437:14485   */\n      tag_116\n      jump\t// in\n    tag_278:\n        /* \"#utility.yul\":14429:14435   */\n      dup4\n        /* \"#utility.yul\":14422:14486   */\n      sstore\n        /* \"#utility.yul\":14344:14500   */\n      pop\n        /* \"#utility.yul\":14321:14500   */\n    tag_277:\n        /* \"#utility.yul\":14546:14547   */\n      0x01\n        /* \"#utility.yul\":14542:14543   */\n      0x02\n        /* \"#utility.yul\":14534:14540   */\n      dup9\n        /* \"#utility.yul\":14530:14544   */\n      mul\n        /* \"#utility.yul\":14526:14548   */\n      add\n        /* \"#utility.yul\":14520:14524   */\n      dup9\n        /* \"#utility.yul\":14513:14549   */\n      sstore\n        /* \"#utility.yul\":13948:14559   */\n      pop\n      pop\n      pop\n        /* \"#utility.yul\":13911:14798   */\n    tag_269:\n      pop\n        /* \"#utility.yul\":13501:14804   */\n      pop\n      pop\n      pop\n        /* \"#utility.yul\":13409:14804   */\n      pop\n      pop\n      jump\t// out\n        /* \"#utility.yul\":14810:14956   */\n    tag_118:\n        /* \"#utility.yul\":14907:14913   */\n      dup3\n        /* \"#utility.yul\":14902:14905   */\n      dup2\n        /* \"#utility.yul\":14897:14900   */\n      dup4\n        /* \"#utility.yul\":14884:14914   */\n      calldatacopy\n        /* \"#utility.yul\":14948:14949   */\n      0x00\n        /* \"#utility.yul\":14939:14945   */\n      dup4\n        /* \"#utility.yul\":14934:14937   */\n      dup4\n        /* \"#utility.yul\":14930:14946   */\n      add\n        /* \"#utility.yul\":14923:14950   */\n      mstore\n        /* \"#utility.yul\":14810:14956   */\n      pop\n      pop\n      pop\n      jump\t// out\n        /* \"#utility.yul\":14986:15303   */\n    tag_119:\n        /* \"#utility.yul\":15084:15087   */\n      0x00\n        /* \"#utility.yul\":15105:15176   */\n      tag_281\n        /* \"#utility.yul\":15169:15175   */\n      dup4\n        /* \"#utility.yul\":15164:15167   */\n      dup6\n        /* \"#utility.yul\":15105:15176   */\n      tag_75\n      jump\t// in\n    tag_281:\n        /* \"#utility.yul\":15098:15176   */\n      swap4\n      pop\n        /* \"#utility.yul\":15186:15242   */\n      tag_282\n        /* \"#utility.yul\":15235:15241   */\n      dup4\n        /* \"#utility.yul\":15230:15233   */\n      dup6\n        /* \"#utility.yul\":15223:15228   */\n      dup5\n        /* \"#utility.yul\":15186:15242   */\n      tag_118\n      jump\t// in\n    tag_282:\n        /* \"#utility.yul\":15267:15296   */\n      tag_283\n        /* \"#utility.yul\":15289:15295   */\n      dup4\n        /* \"#utility.yul\":15267:15296   */\n      tag_77\n      jump\t// in\n    tag_283:\n        /* \"#utility.yul\":15262:15265   */\n      dup5\n        /* \"#utility.yul\":15258:15297   */\n      add\n        /* \"#utility.yul\":15251:15297   */\n      swap1\n      pop\n        /* \"#utility.yul\":14986:15303   */\n      swap4\n      swap3\n      pop\n      pop\n      pop\n      jump\t// out\n        /* \"#utility.yul\":15309:15642   */\n    tag_66:\n        /* \"#utility.yul\":15432:15436   */\n      0x00\n        /* \"#utility.yul\":15470:15472   */\n      0x20\n        /* \"#utility.yul\":15459:15468   */\n      dup3\n        /* \"#utility.yul\":15455:15473   */\n      add\n        /* \"#utility.yul\":15447:15473   */\n      swap1\n      pop\n        /* \"#utility.yul\":15519:15528   */\n      dup2\n        /* \"#utility.yul\":15513:15517   */\n      dup2\n        /* \"#utility.yul\":15509:15529   */\n      sub\n        /* \"#utility.yul\":15505:15506   */\n      0x00\n        /* \"#utility.yul\":15494:15503   */\n      dup4\n        /* \"#utility.yul\":15490:15507   */\n      add\n        /* \"#utility.yul\":15483:15530   */\n      mstore\n        /* \"#utility.yul\":15547:15635   */\n      tag_285\n        /* \"#utility.yul\":15630:15634   */\n      dup2\n        /* \"#utility.yul\":15621:15627   */\n      dup5\n        /* \"#utility.yul\":15613:15619   */\n      dup7\n        /* \"#utility.yul\":15547:15635   */\n      tag_119\n      jump\t// in\n    tag_285:\n        /* \"#utility.yul\":15539:15635   */\n      swap1\n      pop\n        /* \"#utility.yul\":15309:15642   */\n      swap4\n      swap3\n      pop\n      pop\n      pop\n      jump\t// out\n\n    auxdata: 0xa26469706673582212207166f53239cc33990af654685a07d8f0014ee972a259a7b966984c77be49cd9864736f6c63430008160033\n}\n",
				"bytecode": {
					"linkReferences": {},
					"object": "608060405234801561000f575f80fd5b50610eb98061001d5f395ff3fe608060405234801561000f575f80fd5b5060043610610060575f3560e01c80636f77926b146100645780637073c072146100965780637259e0f8146100b45780639be572f6146100e4578063a87430ba14610102578063f2c298be14610134575b5f80fd5b61007e60048036038101906100799190610725565b610150565b60405161008d93929190610803565b60405180910390f35b61009e610264565b6040516100ab91906108f6565b60405180910390f35b6100ce60048036038101906100c99190610949565b6102ef565b6040516100db9190610974565b60405180910390f35b6100ec61032a565b6040516100f9919061099c565b60405180910390f35b61011c60048036038101906101179190610725565b610336565b60405161012b93929190610803565b60405180910390f35b61014e60048036038101906101499190610a16565b61040d565b005b60605f805f805f8673ffffffffffffffffffffffffffffffffffffffff1673ffffffffffffffffffffffffffffffffffffffff1681526020019081526020015f209050805f01816001015f9054906101000a900473ffffffffffffffffffffffffffffffffffffffff168260010160149054906101000a900460ff168280546101d890610a8e565b80601f016020809104026020016040519081016040528092919081815260200182805461020490610a8e565b801561024f5780601f106102265761010080835404028352916020019161024f565b820191905f5260205f20905b81548152906001019060200180831161023257829003601f168201915b50505050509250935093509350509193909250565b606060018054806020026020016040519081016040528092919081815260200182805480156102e557602002820191905f5260205f20905b815f9054906101000a900473ffffffffffffffffffffffffffffffffffffffff1673ffffffffffffffffffffffffffffffffffffffff168152602001906001019080831161029c575b5050505050905090565b600181815481106102fe575f80fd5b905f5260205f20015f915054906101000a900473ffffffffffffffffffffffffffffffffffffffff1681565b5f600180549050905090565b5f602052805f5260405f205f91509050805f01805461035490610a8e565b80601f016020809104026020016040519081016040528092919081815260200182805461038090610a8e565b80156103cb5780601f106103a2576101008083540402835291602001916103cb565b820191905f5260205f20905b8154815290600101906020018083116103ae57829003601f168201915b505050505090806001015f9054906101000a900473ffffffffffffffffffffffffffffffffffffffff16908060010160149054906101000a900460ff16905083565b5f8282905011610452576040517f08c379a000000000000000000000000000000000000000000000000000000000815260040161044990610b08565b60405180910390fd5b5f803373ffffffffffffffffffffffffffffffffffffffff1673ffffffffffffffffffffffffffffffffffffffff1681526020019081526020015f2060010160149054906101000a900460ff16156104df576040517f08c379a00000000000000000000000000000000000000000000000000000000081526004016104d690610b70565b60405180910390fd5b604051806060016040528083838080601f0160208091040260200160405190810160405280939291908181526020018383808284375f81840152601f19601f8201169050808301925050505050505081526020013373ffffffffffffffffffffffffffffffffffffffff168152602001600115158152505f803373ffffffffffffffffffffffffffffffffffffffff1673ffffffffffffffffffffffffffffffffffffffff1681526020019081526020015f205f820151815f0190816105a59190610d58565b506020820151816001015f6101000a81548173ffffffffffffffffffffffffffffffffffffffff021916908373ffffffffffffffffffffffffffffffffffffffff16021790555060408201518160010160146101000a81548160ff021916908315150217905550905050600133908060018154018082558091505060019003905f5260205f20015f9091909190916101000a81548173ffffffffffffffffffffffffffffffffffffffff021916908373ffffffffffffffffffffffffffffffffffffffff1602179055503373ffffffffffffffffffffffffffffffffffffffff167f48cac28ad4dc618e15f4c2dd5e97751182f166de97b25618318b2112aa951a2f83836040516106b7929190610e61565b60405180910390a25050565b5f80fd5b5f80fd5b5f73ffffffffffffffffffffffffffffffffffffffff82169050919050565b5f6106f4826106cb565b9050919050565b610704816106ea565b811461070e575f80fd5b50565b5f8135905061071f816106fb565b92915050565b5f6020828403121561073a576107396106c3565b5b5f61074784828501610711565b91505092915050565b5f81519050919050565b5f82825260208201905092915050565b5f5b8381101561078757808201518184015260208101905061076c565b5f8484015250505050565b5f601f19601f8301169050919050565b5f6107ac82610750565b6107b6818561075a565b93506107c681856020860161076a565b6107cf81610792565b840191505092915050565b6107e3816106ea565b82525050565b5f8115159050919050565b6107fd816107e9565b82525050565b5f6060820190508181035f83015261081b81866107a2565b905061082a60208301856107da565b61083760408301846107f4565b949350505050565b5f81519050919050565b5f82825260208201905092915050565b5f819050602082019050919050565b610871816106ea565b82525050565b5f6108828383610868565b60208301905092915050565b5f602082019050919050565b5f6108a48261083f565b6108ae8185610849565b93506108b983610859565b805f5b838110156108e95781516108d08882610877565b97506108db8361088e565b9250506001810190506108bc565b5085935050505092915050565b5f6020820190508181035f83015261090e818461089a565b905092915050565b5f819050919050565b61092881610916565b8114610932575f80fd5b50565b5f813590506109438161091f565b92915050565b5f6020828403121561095e5761095d6106c3565b5b5f61096b84828501610935565b91505092915050565b5f6020820190506109875f8301846107da565b92915050565b61099681610916565b82525050565b5f6020820190506109af5f83018461098d565b92915050565b5f80fd5b5f80fd5b5f80fd5b5f8083601f8401126109d6576109d56109b5565b5b8235905067ffffffffffffffff8111156109f3576109f26109b9565b5b602083019150836001820283011115610a0f57610a0e6109bd565b5b9250929050565b5f8060208385031215610a2c57610a2b6106c3565b5b5f83013567ffffffffffffffff811115610a4957610a486106c7565b5b610a55858286016109c1565b92509250509250929050565b7f4e487b71000000000000000000000000000000000000000000000000000000005f52602260045260245ffd5b5f6002820490506001821680610aa557607f821691505b602082108103610ab857610ab7610a61565b5b50919050565b7f4e616d652063616e6e6f7420626520656d7074790000000000000000000000005f82015250565b5f610af260148361075a565b9150610afd82610abe565b602082019050919050565b5f6020820190508181035f830152610b1f81610ae6565b9050919050565b7f5573657220616c726561647920726567697374657265640000000000000000005f82015250565b5f610b5a60178361075a565b9150610b6582610b26565b602082019050919050565b5f6020820190508181035f830152610b8781610b4e565b9050919050565b7f4e487b71000000000000000000000000000000000000000000000000000000005f52604160045260245ffd5b5f819050815f5260205f209050919050565b5f6020601f8301049050919050565b5f82821b905092915050565b5f60088302610c177fffffffffffffffffffffffffffffffffffffffffffffffffffffffffffffffff82610bdc565b610c218683610bdc565b95508019841693508086168417925050509392505050565b5f819050919050565b5f610c5c610c57610c5284610916565b610c39565b610916565b9050919050565b5f819050919050565b610c7583610c42565b610c89610c8182610c63565b848454610be8565b825550505050565b5f90565b610c9d610c91565b610ca8818484610c6c565b505050565b5b81811015610ccb57610cc05f82610c95565b600181019050610cae565b5050565b601f821115610d1057610ce181610bbb565b610cea84610bcd565b81016020851015610cf9578190505b610d0d610d0585610bcd565b830182610cad565b50505b505050565b5f82821c905092915050565b5f610d305f1984600802610d15565b1980831691505092915050565b5f610d488383610d21565b9150826002028217905092915050565b610d6182610750565b67ffffffffffffffff811115610d7a57610d79610b8e565b5b610d848254610a8e565b610d8f828285610ccf565b5f60209050601f831160018114610dc0575f8415610dae578287015190505b610db88582610d3d565b865550610e1f565b601f198416610dce86610bbb565b5f5b82811015610df557848901518255600182019150602085019450602081019050610dd0565b86831015610e125784890151610e0e601f891682610d21565b8355505b6001600288020188555050505b505050505050565b828183375f83830152505050565b5f610e40838561075a565b9350610e4d838584610e27565b610e5683610792565b840190509392505050565b5f6020820190508181035f830152610e7a818486610e35565b9050939250505056fea26469706673582212207166f53239cc33990af654685a07d8f0014ee972a259a7b966984c77be49cd9864736f6c63430008160033",
					"opcodes": "PUSH1 0x80 PUSH1 0x40 MSTORE CALLVALUE DUP1 ISZERO PUSH2 0xF JUMPI PUSH0 DUP1 REVERT JUMPDEST POP PUSH2 0xEB9 DUP1 PUSH2 0x1D PUSH0 CODECOPY PUSH0 RETURN INVALID PUSH1 0x80 PUSH1 0x40 MSTORE CALLVALUE DUP1 ISZERO PUSH2 0xF JUMPI PUSH0 DUP1 REVERT JUMPDEST POP PUSH1 0x4 CALLDATASIZE LT PUSH2 0x60 JUMPI PUSH0 CALLDATALOAD PUSH1 0xE0 SHR DUP1 PUSH4 0x6F77926B EQ PUSH2 0x64 JUMPI DUP1 PUSH4 0x7073C072 EQ PUSH2 0x96 JUMPI DUP1 PUSH4 0x7259E0F8 EQ PUSH2 0xB4 JUMPI DUP1 PUSH4 0x9BE572F6 EQ PUSH2 0xE4 JUMPI DUP1 PUSH4 0xA87430BA EQ PUSH2 0x102 JUMPI DUP1 PUSH4 0xF2C298BE EQ PUSH2 0x134 JUMPI JUMPDEST PUSH0 DUP1 REVERT JUMPDEST PUSH2 0x7E PUSH1 0x4 DUP1 CALLDATASIZE SUB DUP2 ADD SWAP1 PUSH2 0x79 SWAP2 SWAP1 PUSH2 0x725 JUMP JUMPDEST PUSH2 0x150 JUMP JUMPDEST PUSH1 0x40 MLOAD PUSH2 0x8D SWAP4 SWAP3 SWAP2 SWAP1 PUSH2 0x803 JUMP JUMPDEST PUSH1 0x40 MLOAD DUP1 SWAP2 SUB SWAP1 RETURN JUMPDEST PUSH2 0x9E PUSH2 0x264 JUMP JUMPDEST PUSH1 0x40 MLOAD PUSH2 0xAB SWAP2 SWAP1 PUSH2 0x8F6 JUMP JUMPDEST PUSH1 0x40 MLOAD DUP1 SWAP2 SUB SWAP1 RETURN JUMPDEST PUSH2 0xCE PUSH1 0x4 DUP1 CALLDATASIZE SUB DUP2 ADD SWAP1 PUSH2 0xC9 SWAP2 SWAP1 PUSH2 0x949 JUMP JUMPDEST PUSH2 0x2EF JUMP JUMPDEST PUSH1 0x40 MLOAD PUSH2 0xDB SWAP2 SWAP1 PUSH2 0x974 JUMP JUMPDEST PUSH1 0x40 MLOAD DUP1 SWAP2 SUB SWAP1 RETURN JUMPDEST PUSH2 0xEC PUSH2 0x32A JUMP JUMPDEST PUSH1 0x40 MLOAD PUSH2 0xF9 SWAP2 SWAP1 PUSH2 0x99C JUMP JUMPDEST PUSH1 0x40 MLOAD DUP1 SWAP2 SUB SWAP1 RETURN JUMPDEST PUSH2 0x11C PUSH1 0x4 DUP1 CALLDATASIZE SUB DUP2 ADD SWAP1 PUSH2 0x117 SWAP2 SWAP1 PUSH2 0x725 JUMP JUMPDEST PUSH2 0x336 JUMP JUMPDEST PUSH1 0x40 MLOAD PUSH2 0x12B SWAP4 SWAP3 SWAP2 SWAP1 PUSH2 0x803 JUMP JUMPDEST PUSH1 0x40 MLOAD DUP1 SWAP2 SUB SWAP1 RETURN JUMPDEST PUSH2 0x14E PUSH1 0x4 DUP1 CALLDATASIZE SUB DUP2 ADD SWAP1 PUSH2 0x149 SWAP2 SWAP1 PUSH2 0xA16 JUMP JUMPDEST PUSH2 0x40D JUMP JUMPDEST STOP JUMPDEST PUSH1 0x60 PUSH0 DUP1 PUSH0 DUP1 PUSH0 DUP7 PUSH20 0xFFFFFFFFFFFFFFFFFFFFFFFFFFFFFFFFFFFFFFFF AND PUSH20 0xFFFFFFFFFFFFFFFFFFFFFFFFFFFFFFFFFFFFFFFF AND DUP2 MSTORE PUSH1 0x20 ADD SWAP1 DUP2 MSTORE PUSH1 0x20 ADD PUSH0 KECCAK256 SWAP1 POP DUP1 PUSH0 ADD DUP2 PUSH1 0x1 ADD PUSH0 SWAP1 SLOAD SWAP1 PUSH2 0x100 EXP SWAP1 DIV PUSH20 0xFFFFFFFFFFFFFFFFFFFFFFFFFFFFFFFFFFFFFFFF AND DUP3 PUSH1 0x1 ADD PUSH1 0x14 SWAP1 SLOAD SWAP1 PUSH2 0x100 EXP SWAP1 DIV PUSH1 0xFF AND DUP3 DUP1 SLOAD PUSH2 0x1D8 SWAP1 PUSH2 0xA8E JUMP JUMPDEST DUP1 PUSH1 0x1F ADD PUSH1 0x20 DUP1 SWAP2 DIV MUL PUSH1 0x20 ADD PUSH1 0x40 MLOAD SWAP1 DUP2 ADD PUSH1 0x40 MSTORE DUP1 SWAP3 SWAP2 SWAP1 DUP2 DUP2 MSTORE PUSH1 0x20 ADD DUP3 DUP1 SLOAD PUSH2 0x204 SWAP1 PUSH2 0xA8E JUMP JUMPDEST DUP1 ISZERO PUSH2 0x24F JUMPI DUP1 PUSH1 0x1F LT PUSH2 0x226 JUMPI PUSH2 0x100 DUP1 DUP4 SLOAD DIV MUL DUP4 MSTORE SWAP2 PUSH1 0x20 ADD SWAP2 PUSH2 0x24F JUMP JUMPDEST DUP3 ADD SWAP2 SWAP1 PUSH0 MSTORE PUSH1 0x20 PUSH0 KECCAK256 SWAP1 JUMPDEST DUP2 SLOAD DUP2 MSTORE SWAP1 PUSH1 0x1 ADD SWAP1 PUSH1 0x20 ADD DUP1 DUP4 GT PUSH2 0x232 JUMPI DUP3 SWAP1 SUB PUSH1 0x1F AND DUP3 ADD SWAP2 JUMPDEST POP POP POP POP POP SWAP3 POP SWAP4 POP SWAP4 POP SWAP4 POP POP SWAP2 SWAP4 SWAP1 SWAP3 POP JUMP JUMPDEST PUSH1 0x60 PUSH1 0x1 DUP1 SLOAD DUP1 PUSH1 0x20 MUL PUSH1 0x20 ADD PUSH1 0x40 MLOAD SWAP1 DUP2 ADD PUSH1 0x40 MSTORE DUP1 SWAP3 SWAP2 SWAP1 DUP2 DUP2 MSTORE PUSH1 0x20 ADD DUP3 DUP1 SLOAD DUP1 ISZERO PUSH2 0x2E5 JUMPI PUSH1 0x20 MUL DUP3 ADD SWAP2 SWAP1 PUSH0 MSTORE PUSH1 0x20 PUSH0 KECCAK256 SWAP1 JUMPDEST DUP2 PUSH0 SWAP1 SLOAD SWAP1 PUSH2 0x100 EXP SWAP1 DIV PUSH20 0xFFFFFFFFFFFFFFFFFFFFFFFFFFFFFFFFFFFFFFFF AND PUSH20 0xFFFFFFFFFFFFFFFFFFFFFFFFFFFFFFFFFFFFFFFF AND DUP2 MSTORE PUSH1 0x20 ADD SWAP1 PUSH1 0x1 ADD SWAP1 DUP1 DUP4 GT PUSH2 0x29C JUMPI JUMPDEST POP POP POP POP POP SWAP1 POP SWAP1 JUMP JUMPDEST PUSH1 0x1 DUP2 DUP2 SLOAD DUP2 LT PUSH2 0x2FE JUMPI PUSH0 DUP1 REVERT JUMPDEST SWAP1 PUSH0 MSTORE PUSH1 0x20 PUSH0 KECCAK256 ADD PUSH0 SWAP2 POP SLOAD SWAP1 PUSH2 0x100 EXP SWAP1 DIV PUSH20 0xFFFFFFFFFFFFFFFFFFFFFFFFFFFFFFFFFFFFFFFF AND DUP2 JUMP JUMPDEST PUSH0 PUSH1 0x1 DUP1 SLOAD SWAP1 POP SWAP1 POP SWAP1 JUMP JUMPDEST PUSH0 PUSH1 0x20 MSTORE DUP1 PUSH0 MSTORE PUSH1 0x40 PUSH0 KECCAK256 PUSH0 SWAP2 POP SWAP1 POP DUP1 PUSH0 ADD DUP1 SLOAD PUSH2 0x354 SWAP1 PUSH2 0xA8E JUMP JUMPDEST DUP1 PUSH1 0x1F ADD PUSH1 0x20 DUP1 SWAP2 DIV MUL PUSH1 0x20 ADD PUSH1 0x40 MLOAD SWAP1 DUP2 ADD PUSH1 0x40 MSTORE DUP1 SWAP3 SWAP2 SWAP1 DUP2 DUP2 MSTORE PUSH1 0x20 ADD DUP3 DUP1 SLOAD PUSH2 0x380 SWAP1 PUSH2 0xA8E JUMP JUMPDEST DUP1 ISZERO PUSH2 0x3CB JUMPI DUP1 PUSH1 0x1F LT PUSH2 0x3A2 JUMPI PUSH2 0x100 DUP1 DUP4 SLOAD DIV MUL DUP4 MSTORE SWAP2 PUSH1 0x20 ADD SWAP2 PUSH2 0x3CB JUMP JUMPDEST DUP3 ADD SWAP2 SWAP1 PUSH0 MSTORE PUSH1 0x20 PUSH0 KECCAK256 SWAP1 JUMPDEST DUP2 SLOAD DUP2 MSTORE SWAP1 PUSH1 0x1 ADD SWAP1 PUSH1 0x20 ADD DUP1 DUP4 GT PUSH2 0x3AE JUMPI DUP3 SWAP1 SUB PUSH1 0x1F AND DUP3 ADD SWAP2 JUMPDEST POP POP POP POP POP SWAP1 DUP1 PUSH1 0x1 ADD PUSH0 SWAP1 SLOAD SWAP1 PUSH2 0x100 EXP SWAP1 DIV PUSH20 0xFFFFFFFFFFFFFFFFFFFFFFFFFFFFFFFFFFFFFFFF AND SWAP1 DUP1 PUSH1 0x1 ADD PUSH1 0x14 SWAP1 SLOAD SWAP1 PUSH2 0x100 EXP SWAP1 DIV PUSH1 0xFF AND SWAP1 POP DUP4 JUMP JUMPDEST PUSH0 DUP3 DUP3 SWAP1 POP GT PUSH2 0x452 JUMPI PUSH1 0x40 MLOAD PUSH32 0x8C379A000000000000000000000000000000000000000000000000000000000 DUP2 MSTORE PUSH1 0x4 ADD PUSH2 0x449 SWAP1 PUSH2 0xB08 JUMP JUMPDEST PUSH1 0x40 MLOAD DUP1 SWAP2 SUB SWAP1 REVERT JUMPDEST PUSH0 DUP1 CALLER PUSH20 0xFFFFFFFFFFFFFFFFFFFFFFFFFFFFFFFFFFFFFFFF AND PUSH20 0xFFFFFFFFFFFFFFFFFFFFFFFFFFFFFFFFFFFFFFFF AND DUP2 MSTORE PUSH1 0x20 ADD SWAP1 DUP2 MSTORE PUSH1 0x20 ADD PUSH0 KECCAK256 PUSH1 0x1 ADD PUSH1 0x14 SWAP1 SLOAD SWAP1 PUSH2 0x100 EXP SWAP1 DIV PUSH1 0xFF AND ISZERO PUSH2 0x4DF JUMPI PUSH1 0x40 MLOAD PUSH32 0x8C379A000000000000000000000000000000000000000000000000000000000 DUP2 MSTORE PUSH1 0x4 ADD PUSH2 0x4D6 SWAP1 PUSH2 0xB70 JUMP JUMPDEST PUSH1 0x40 MLOAD DUP1 SWAP2 SUB SWAP1 REVERT JUMPDEST PUSH1 0x40 MLOAD DUP1 PUSH1 0x60 ADD PUSH1 0x40 MSTORE DUP1 DUP4 DUP4 DUP1 DUP1 PUSH1 0x1F ADD PUSH1 0x20 DUP1 SWAP2 DIV MUL PUSH1 0x20 ADD PUSH1 0x40 MLOAD SWAP1 DUP2 ADD PUSH1 0x40 MSTORE DUP1 SWAP4 SWAP3 SWAP2 SWAP1 DUP2 DUP2 MSTORE PUSH1 0x20 ADD DUP4 DUP4 DUP1 DUP3 DUP5 CALLDATACOPY PUSH0 DUP2 DUP5 ADD MSTORE PUSH1 0x1F NOT PUSH1 0x1F DUP3 ADD AND SWAP1 POP DUP1 DUP4 ADD SWAP3 POP POP POP POP POP POP POP DUP2 MSTORE PUSH1 0x20 ADD CALLER PUSH20 0xFFFFFFFFFFFFFFFFFFFFFFFFFFFFFFFFFFFFFFFF AND DUP2 MSTORE PUSH1 0x20 ADD PUSH1 0x1 ISZERO ISZERO DUP2 MSTORE POP PUSH0 DUP1 CALLER PUSH20 0xFFFFFFFFFFFFFFFFFFFFFFFFFFFFFFFFFFFFFFFF AND PUSH20 0xFFFFFFFFFFFFFFFFFFFFFFFFFFFFFFFFFFFFFFFF AND DUP2 MSTORE PUSH1 0x20 ADD SWAP1 DUP2 MSTORE PUSH1 0x20 ADD PUSH0 KECCAK256 PUSH0 DUP3 ADD MLOAD DUP2 PUSH0 ADD SWAP1 DUP2 PUSH2 0x5A5 SWAP2 SWAP1 PUSH2 0xD58 JUMP JUMPDEST POP PUSH1 0x20 DUP3 ADD MLOAD DUP2 PUSH1 0x1 ADD PUSH0 PUSH2 0x100 EXP DUP2 SLOAD DUP2 PUSH20 0xFFFFFFFFFFFFFFFFFFFFFFFFFFFFFFFFFFFFFFFF MUL NOT AND SWAP1 DUP4 PUSH20 0xFFFFFFFFFFFFFFFFFFFFFFFFFFFFFFFFFFFFFFFF AND MUL OR SWAP1 SSTORE POP PUSH1 0x40 DUP3 ADD MLOAD DUP2 PUSH1 0x1 ADD PUSH1 0x14 PUSH2 0x100 EXP DUP2 SLOAD DUP2 PUSH1 0xFF MUL NOT AND SWAP1 DUP4 ISZERO ISZERO MUL OR SWAP1 SSTORE POP SWAP1 POP POP PUSH1 0x1 CALLER SWAP1 DUP1 PUSH1 0x1 DUP2 SLOAD ADD DUP1 DUP3 SSTORE DUP1 SWAP2 POP POP PUSH1 0x1 SWAP1 SUB SWAP1 PUSH0 MSTORE PUSH1 0x20 PUSH0 KECCAK256 ADD PUSH0 SWAP1 SWAP2 SWAP1 SWAP2 SWAP1 SWAP2 PUSH2 0x100 EXP DUP2 SLOAD DUP2 PUSH20 0xFFFFFFFFFFFFFFFFFFFFFFFFFFFFFFFFFFFFFFFF MUL NOT AND SWAP1 DUP4 PUSH20 0xFFFFFFFFFFFFFFFFFFFFFFFFFFFFFFFFFFFFFFFF AND MUL OR SWAP1 SSTORE POP CALLER PUSH20 0xFFFFFFFFFFFFFFFFFFFFFFFFFFFFFFFFFFFFFFFF AND PUSH32 0x48CAC28AD4DC618E15F4C2DD5E97751182F166DE97B25618318B2112AA951A2F DUP4 DUP4 PUSH1 0x40 MLOAD PUSH2 0x6B7 SWAP3 SWAP2 SWAP1 PUSH2 0xE61 JUMP JUMPDEST PUSH1 0x40 MLOAD DUP1 SWAP2 SUB SWAP1 LOG2 POP POP JUMP JUMPDEST PUSH0 DUP1 REVERT JUMPDEST PUSH0 DUP1 REVERT JUMPDEST PUSH0 PUSH20 0xFFFFFFFFFFFFFFFFFFFFFFFFFFFFFFFFFFFFFFFF DUP3 AND SWAP1 POP SWAP2 SWAP1 POP JUMP JUMPDEST PUSH0 PUSH2 0x6F4 DUP3 PUSH2 0x6CB JUMP JUMPDEST SWAP1 POP SWAP2 SWAP1 POP JUMP JUMPDEST PUSH2 0x704 DUP2 PUSH2 0x6EA JUMP JUMPDEST DUP2 EQ PUSH2 0x70E JUMPI PUSH0 DUP1 REVERT JUMPDEST POP JUMP JUMPDEST PUSH0 DUP2 CALLDATALOAD SWAP1 POP PUSH2 0x71F DUP2 PUSH2 0x6FB JUMP JUMPDEST SWAP3 SWAP2 POP POP JUMP JUMPDEST PUSH0 PUSH1 0x20 DUP3 DUP5 SUB SLT ISZERO PUSH2 0x73A JUMPI PUSH2 0x739 PUSH2 0x6C3 JUMP JUMPDEST JUMPDEST PUSH0 PUSH2 0x747 DUP5 DUP3 DUP6 ADD PUSH2 0x711 JUMP JUMPDEST SWAP2 POP POP SWAP3 SWAP2 POP POP JUMP JUMPDEST PUSH0 DUP2 MLOAD SWAP1 POP SWAP2 SWAP1 POP JUMP JUMPDEST PUSH0 DUP3 DUP3 MSTORE PUSH1 0x20 DUP3 ADD SWAP1 POP SWAP3 SWAP2 POP POP JUMP JUMPDEST PUSH0 JUMPDEST DUP4 DUP2 LT ISZERO PUSH2 0x787 JUMPI DUP1 DUP3 ADD MLOAD DUP2 DUP5 ADD MSTORE PUSH1 0x20 DUP2 ADD SWAP1 POP PUSH2 0x76C JUMP JUMPDEST PUSH0 DUP5 DUP5 ADD MSTORE POP POP POP POP JUMP JUMPDEST PUSH0 PUSH1 0x1F NOT PUSH1 0x1F DUP4 ADD AND SWAP1 POP SWAP2 SWAP1 POP JUMP JUMPDEST PUSH0 PUSH2 0x7AC DUP3 PUSH2 0x750 JUMP JUMPDEST PUSH2 0x7B6 DUP2 DUP6 PUSH2 0x75A JUMP JUMPDEST SWAP4 POP PUSH2 0x7C6 DUP2 DUP6 PUSH1 0x20 DUP7 ADD PUSH2 0x76A JUMP JUMPDEST PUSH2 0x7CF DUP2 PUSH2 0x792 JUMP JUMPDEST DUP5 ADD SWAP2 POP POP SWAP3 SWAP2 POP POP JUMP JUMPDEST PUSH2 0x7E3 DUP2 PUSH2 0x6EA JUMP JUMPDEST DUP3 MSTORE POP POP JUMP JUMPDEST PUSH0 DUP2 ISZERO ISZERO SWAP1 POP SWAP2 SWAP1 POP JUMP JUMPDEST PUSH2 0x7FD DUP2 PUSH2 0x7E9 JUMP JUMPDEST DUP3 MSTORE POP POP JUMP JUMPDEST PUSH0 PUSH1 0x60 DUP3 ADD SWAP1 POP DUP2 DUP2 SUB PUSH0 DUP4 ADD MSTORE PUSH2 0x81B DUP2 DUP7 PUSH2 0x7A2 JUMP JUMPDEST SWAP1 POP PUSH2 0x82A PUSH1 0x20 DUP4 ADD DUP6 PUSH2 0x7DA JUMP JUMPDEST PUSH2 0x837 PUSH1 0x40 DUP4 ADD DUP5 PUSH2 0x7F4 JUMP JUMPDEST SWAP5 SWAP4 POP POP POP POP JUMP JUMPDEST PUSH0 DUP2 MLOAD SWAP1 POP SWAP2 SWAP1 POP JUMP JUMPDEST PUSH0 DUP3 DUP3 MSTORE PUSH1 0x20 DUP3 ADD SWAP1 POP SWAP3 SWAP2 POP POP JUMP JUMPDEST PUSH0 DUP2 SWAP1 POP PUSH1 0x20 DUP3 ADD SWAP1 POP SWAP2 SWAP1 POP JUMP JUMPDEST PUSH2 0x871 DUP2 PUSH2 0x6EA JUMP JUMPDEST DUP3 MSTORE POP POP JUMP JUMPDEST PUSH0 PUSH2 0x882 DUP4 DUP4 PUSH2 0x868 JUMP JUMPDEST PUSH1 0x20 DUP4 ADD SWAP1 POP SWAP3 SWAP2 POP POP JUMP JUMPDEST PUSH0 PUSH1 0x20 DUP3 ADD SWAP1 POP SWAP2 SWAP1 POP JUMP JUMPDEST PUSH0 PUSH2 0x8A4 DUP3 PUSH2 0x83F JUMP JUMPDEST PUSH2 0x8AE DUP2 DUP6 PUSH2 0x849 JUMP JUMPDEST SWAP4 POP PUSH2 0x8B9 DUP4 PUSH2 0x859 JUMP JUMPDEST DUP1 PUSH0 JUMPDEST DUP4 DUP2 LT ISZERO PUSH2 0x8E9 JUMPI DUP2 MLOAD PUSH2 0x8D0 DUP9 DUP3 PUSH2 0x877 JUMP JUMPDEST SWAP8 POP PUSH2 0x8DB DUP4 PUSH2 0x88E JUMP JUMPDEST SWAP3 POP POP PUSH1 0x1 DUP2 ADD SWAP1 POP PUSH2 0x8BC JUMP JUMPDEST POP DUP6 SWAP4 POP POP POP POP SWAP3 SWAP2 POP POP JUMP JUMPDEST PUSH0 PUSH1 0x20 DUP3 ADD SWAP1 POP DUP2 DUP2 SUB PUSH0 DUP4 ADD MSTORE PUSH2 0x90E DUP2 DUP5 PUSH2 0x89A JUMP JUMPDEST SWAP1 POP SWAP3 SWAP2 POP POP JUMP JUMPDEST PUSH0 DUP2 SWAP1 POP SWAP2 SWAP1 POP JUMP JUMPDEST PUSH2 0x928 DUP2 PUSH2 0x916 JUMP JUMPDEST DUP2 EQ PUSH2 0x932 JUMPI PUSH0 DUP1 REVERT JUMPDEST POP JUMP JUMPDEST PUSH0 DUP2 CALLDATALOAD SWAP1 POP PUSH2 0x943 DUP2 PUSH2 0x91F JUMP JUMPDEST SWAP3 SWAP2 POP POP JUMP JUMPDEST PUSH0 PUSH1 0x20 DUP3 DUP5 SUB SLT ISZERO PUSH2 0x95E JUMPI PUSH2 0x95D PUSH2 0x6C3 JUMP JUMPDEST JUMPDEST PUSH0 PUSH2 0x96B DUP5 DUP3 DUP6 ADD PUSH2 0x935 JUMP JUMPDEST SWAP2 POP POP SWAP3 SWAP2 POP POP JUMP JUMPDEST PUSH0 PUSH1 0x20 DUP3 ADD SWAP1 POP PUSH2 0x987 PUSH0 DUP4 ADD DUP5 PUSH2 0x7DA JUMP JUMPDEST SWAP3 SWAP2 POP POP JUMP JUMPDEST PUSH2 0x996 DUP2 PUSH2 0x916 JUMP JUMPDEST DUP3 MSTORE POP POP JUMP JUMPDEST PUSH0 PUSH1 0x20 DUP3 ADD SWAP1 POP PUSH2 0x9AF PUSH0 DUP4 ADD DUP5 PUSH2 0x98D JUMP JUMPDEST SWAP3 SWAP2 POP POP JUMP JUMPDEST PUSH0 DUP1 REVERT JUMPDEST PUSH0 DUP1 REVERT JUMPDEST PUSH0 DUP1 REVERT JUMPDEST PUSH0 DUP1 DUP4 PUSH1 0x1F DUP5 ADD SLT PUSH2 0x9D6 JUMPI PUSH2 0x9D5 PUSH2 0x9B5 JUMP JUMPDEST JUMPDEST DUP3 CALLDATALOAD SWAP1 POP PUSH8 0xFFFFFFFFFFFFFFFF DUP2 GT ISZERO PUSH2 0x9F3 JUMPI PUSH2 0x9F2 PUSH2 0x9B9 JUMP JUMPDEST JUMPDEST PUSH1 0x20 DUP4 ADD SWAP2 POP DUP4 PUSH1 0x1 DUP3 MUL DUP4 ADD GT ISZERO PUSH2 0xA0F JUMPI PUSH2 0xA0E PUSH2 0x9BD JUMP JUMPDEST JUMPDEST SWAP3 POP SWAP3 SWAP1 POP JUMP JUMPDEST PUSH0 DUP1 PUSH1 0x20 DUP4 DUP6 SUB SLT ISZERO PUSH2 0xA2C JUMPI PUSH2 0xA2B PUSH2 0x6C3 JUMP JUMPDEST JUMPDEST PUSH0 DUP4 ADD CALLDATALOAD PUSH8 0xFFFFFFFFFFFFFFFF DUP2 GT ISZERO PUSH2 0xA49 JUMPI PUSH2 0xA48 PUSH2 0x6C7 JUMP JUMPDEST JUMPDEST PUSH2 0xA55 DUP6 DUP3 DUP7 ADD PUSH2 0x9C1 JUMP JUMPDEST SWAP3 POP SWAP3 POP POP SWAP3 POP SWAP3 SWAP1 POP JUMP JUMPDEST PUSH32 0x4E487B7100000000000000000000000000000000000000000000000000000000 PUSH0 MSTORE PUSH1 0x22 PUSH1 0x4 MSTORE PUSH1 0x24 PUSH0 REVERT JUMPDEST PUSH0 PUSH1 0x2 DUP3 DIV SWAP1 POP PUSH1 0x1 DUP3 AND DUP1 PUSH2 0xAA5 JUMPI PUSH1 0x7F DUP3 AND SWAP2 POP JUMPDEST PUSH1 0x20 DUP3 LT DUP2 SUB PUSH2 0xAB8 JUMPI PUSH2 0xAB7 PUSH2 0xA61 JUMP JUMPDEST JUMPDEST POP SWAP2 SWAP1 POP JUMP JUMPDEST PUSH32 0x4E616D652063616E6E6F7420626520656D707479000000000000000000000000 PUSH0 DUP3 ADD MSTORE POP JUMP JUMPDEST PUSH0 PUSH2 0xAF2 PUSH1 0x14 DUP4 PUSH2 0x75A JUMP JUMPDEST SWAP2 POP PUSH2 0xAFD DUP3 PUSH2 0xABE JUMP JUMPDEST PUSH1 0x20 DUP3 ADD SWAP1 POP SWAP2 SWAP1 POP JUMP JUMPDEST PUSH0 PUSH1 0x20 DUP3 ADD SWAP1 POP DUP2 DUP2 SUB PUSH0 DUP4 ADD MSTORE PUSH2 0xB1F DUP2 PUSH2 0xAE6 JUMP JUMPDEST SWAP1 POP SWAP2 SWAP1 POP JUMP JUMPDEST PUSH32 0x5573657220616C72656164792072656769737465726564000000000000000000 PUSH0 DUP3 ADD MSTORE POP JUMP JUMPDEST PUSH0 PUSH2 0xB5A PUSH1 0x17 DUP4 PUSH2 0x75A JUMP JUMPDEST SWAP2 POP PUSH2 0xB65 DUP3 PUSH2 0xB26 JUMP JUMPDEST PUSH1 0x20 DUP3 ADD SWAP1 POP SWAP2 SWAP1 POP JUMP JUMPDEST PUSH0 PUSH1 0x20 DUP3 ADD SWAP1 POP DUP2 DUP2 SUB PUSH0 DUP4 ADD MSTORE PUSH2 0xB87 DUP2 PUSH2 0xB4E JUMP JUMPDEST SWAP1 POP SWAP2 SWAP1 POP JUMP JUMPDEST PUSH32 0x4E487B7100000000000000000000000000000000000000000000000000000000 PUSH0 MSTORE PUSH1 0x41 PUSH1 0x4 MSTORE PUSH1 0x24 PUSH0 REVERT JUMPDEST PUSH0 DUP2 SWAP1 POP DUP2 PUSH0 MSTORE PUSH1 0x20 PUSH0 KECCAK256 SWAP1 POP SWAP2 SWAP1 POP JUMP JUMPDEST PUSH0 PUSH1 0x20 PUSH1 0x1F DUP4 ADD DIV SWAP1 POP SWAP2 SWAP1 POP JUMP JUMPDEST PUSH0 DUP3 DUP3 SHL SWAP1 POP SWAP3 SWAP2 POP POP JUMP JUMPDEST PUSH0 PUSH1 0x8 DUP4 MUL PUSH2 0xC17 PUSH32 0xFFFFFFFFFFFFFFFFFFFFFFFFFFFFFFFFFFFFFFFFFFFFFFFFFFFFFFFFFFFFFFFF DUP3 PUSH2 0xBDC JUMP JUMPDEST PUSH2 0xC21 DUP7 DUP4 PUSH2 0xBDC JUMP JUMPDEST SWAP6 POP DUP1 NOT DUP5 AND SWAP4 POP DUP1 DUP7 AND DUP5 OR SWAP3 POP POP POP SWAP4 SWAP3 POP POP POP JUMP JUMPDEST PUSH0 DUP2 SWAP1 POP SWAP2 SWAP1 POP JUMP JUMPDEST PUSH0 PUSH2 0xC5C PUSH2 0xC57 PUSH2 0xC52 DUP5 PUSH2 0x916 JUMP JUMPDEST PUSH2 0xC39 JUMP JUMPDEST PUSH2 0x916 JUMP JUMPDEST SWAP1 POP SWAP2 SWAP1 POP JUMP JUMPDEST PUSH0 DUP2 SWAP1 POP SWAP2 SWAP1 POP JUMP JUMPDEST PUSH2 0xC75 DUP4 PUSH2 0xC42 JUMP JUMPDEST PUSH2 0xC89 PUSH2 0xC81 DUP3 PUSH2 0xC63 JUMP JUMPDEST DUP5 DUP5 SLOAD PUSH2 0xBE8 JUMP JUMPDEST DUP3 SSTORE POP POP POP POP JUMP JUMPDEST PUSH0 SWAP1 JUMP JUMPDEST PUSH2 0xC9D PUSH2 0xC91 JUMP JUMPDEST PUSH2 0xCA8 DUP2 DUP5 DUP5 PUSH2 0xC6C JUMP JUMPDEST POP POP POP JUMP JUMPDEST JUMPDEST DUP2 DUP2 LT ISZERO PUSH2 0xCCB JUMPI PUSH2 0xCC0 PUSH0 DUP3 PUSH2 0xC95 JUMP JUMPDEST PUSH1 0x1 DUP2 ADD SWAP1 POP PUSH2 0xCAE JUMP JUMPDEST POP POP JUMP JUMPDEST PUSH1 0x1F DUP3 GT ISZERO PUSH2 0xD10 JUMPI PUSH2 0xCE1 DUP2 PUSH2 0xBBB JUMP JUMPDEST PUSH2 0xCEA DUP5 PUSH2 0xBCD JUMP JUMPDEST DUP2 ADD PUSH1 0x20 DUP6 LT ISZERO PUSH2 0xCF9 JUMPI DUP2 SWAP1 POP JUMPDEST PUSH2 0xD0D PUSH2 0xD05 DUP6 PUSH2 0xBCD JUMP JUMPDEST DUP4 ADD DUP3 PUSH2 0xCAD JUMP JUMPDEST POP POP JUMPDEST POP POP POP JUMP JUMPDEST PUSH0 DUP3 DUP3 SHR SWAP1 POP SWAP3 SWAP2 POP POP JUMP JUMPDEST PUSH0 PUSH2 0xD30 PUSH0 NOT DUP5 PUSH1 0x8 MUL PUSH2 0xD15 JUMP JUMPDEST NOT DUP1 DUP4 AND SWAP2 POP POP SWAP3 SWAP2 POP POP JUMP JUMPDEST PUSH0 PUSH2 0xD48 DUP4 DUP4 PUSH2 0xD21 JUMP JUMPDEST SWAP2 POP DUP3 PUSH1 0x2 MUL DUP3 OR SWAP1 POP SWAP3 SWAP2 POP POP JUMP JUMPDEST PUSH2 0xD61 DUP3 PUSH2 0x750 JUMP JUMPDEST PUSH8 0xFFFFFFFFFFFFFFFF DUP2 GT ISZERO PUSH2 0xD7A JUMPI PUSH2 0xD79 PUSH2 0xB8E JUMP JUMPDEST JUMPDEST PUSH2 0xD84 DUP3 SLOAD PUSH2 0xA8E JUMP JUMPDEST PUSH2 0xD8F DUP3 DUP3 DUP6 PUSH2 0xCCF JUMP JUMPDEST PUSH0 PUSH1 0x20 SWAP1 POP PUSH1 0x1F DUP4 GT PUSH1 0x1 DUP2 EQ PUSH2 0xDC0 JUMPI PUSH0 DUP5 ISZERO PUSH2 0xDAE JUMPI DUP3 DUP8 ADD MLOAD SWAP1 POP JUMPDEST PUSH2 0xDB8 DUP6 DUP3 PUSH2 0xD3D JUMP JUMPDEST DUP7 SSTORE POP PUSH2 0xE1F JUMP JUMPDEST PUSH1 0x1F NOT DUP5 AND PUSH2 0xDCE DUP7 PUSH2 0xBBB JUMP JUMPDEST PUSH0 JUMPDEST DUP3 DUP2 LT ISZERO PUSH2 0xDF5 JUMPI DUP5 DUP10 ADD MLOAD DUP3 SSTORE PUSH1 0x1 DUP3 ADD SWAP2 POP PUSH1 0x20 DUP6 ADD SWAP5 POP PUSH1 0x20 DUP2 ADD SWAP1 POP PUSH2 0xDD0 JUMP JUMPDEST DUP7 DUP4 LT ISZERO PUSH2 0xE12 JUMPI DUP5 DUP10 ADD MLOAD PUSH2 0xE0E PUSH1 0x1F DUP10 AND DUP3 PUSH2 0xD21 JUMP JUMPDEST DUP4 SSTORE POP JUMPDEST PUSH1 0x1 PUSH1 0x2 DUP9 MUL ADD DUP9 SSTORE POP POP POP JUMPDEST POP POP POP POP POP POP JUMP JUMPDEST DUP3 DUP2 DUP4 CALLDATACOPY PUSH0 DUP4 DUP4 ADD MSTORE POP POP POP JUMP JUMPDEST PUSH0 PUSH2 0xE40 DUP4 DUP6 PUSH2 0x75A JUMP JUMPDEST SWAP4 POP PUSH2 0xE4D DUP4 DUP6 DUP5 PUSH2 0xE27 JUMP JUMPDEST PUSH2 0xE56 DUP4 PUSH2 0x792 JUMP JUMPDEST DUP5 ADD SWAP1 POP SWAP4 SWAP3 POP POP POP JUMP JUMPDEST PUSH0 PUSH1 0x20 DUP3 ADD SWAP1 POP DUP2 DUP2 SUB PUSH0 DUP4 ADD MSTORE PUSH2 0xE7A DUP2 DUP5 DUP7 PUSH2 0xE35 JUMP JUMPDEST SWAP1 POP SWAP4 SWAP3 POP POP POP JUMP INVALID LOG2 PUSH5 0x6970667358 0x22 SLT KECCAK256 PUSH18 0x66F53239CC33990AF654685A07D8F0014EE9 PUSH19 0xA259A7B966984C77BE49CD9864736F6C634300 ADDMOD AND STOP CALLER "
				},
				"gasEstimates": {
					"creation": {
						"codeDepositCost": "753800",
						"executionCost": "784",
						"totalCost": "754584"
					},
					"external": {
						"getRegisteredUsers()": "infinite",
						"getTotalUsers()": "2484",
						"getUser(address)": "infinite",
						"register(string)": "infinite",
						"registeredUsers(uint256)": "4966",
						"users(address)": "infinite"
					}
				},
				"methodIdentifiers": {
					"getRegisteredUsers()": "7073c072",
					"getTotalUsers()": "9be572f6",
					"getUser(address)": "6f77926b",
					"register(string)": "f2c298be",
					"registeredUsers(uint256)": "7259e0f8",
					"users(address)": "a87430ba"
				}
			},
			"storageLayout": {
				"storage": [
					{
						"astId": 13,
						"contract": "500 problems/SimpleRegistry.sol:SimpleRegistry",
						"label": "users",
						"offset": 0,
						"slot": "0",
						"type": "t_mapping(t_address,t_struct(User)8_storage)"
					},
					{
						"astId": 16,
						"contract": "500 problems/SimpleRegistry.sol:SimpleRegistry",
						"label": "registeredUsers",
						"offset": 0,
						"slot": "1",
						"type": "t_array(t_address)dyn_storage"
					}
				],
				"types": {
					"t_address": {
						"encoding": "inplace",
						"label": "address",
						"numberOfBytes": "20"
					},
					"t_array(t_address)dyn_storage": {
						"base": "t_address",
						"encoding": "dynamic_array",
						"label": "address[]",
						"numberOfBytes": "32"
					},
					"t_bool": {
						"encoding": "inplace",
						"label": "bool",
						"numberOfBytes": "1"
					},
					"t_mapping(t_address,t_struct(User)8_storage)": {
						"encoding": "mapping",
						"key": "t_address",
						"label": "mapping(address => struct SimpleRegistry.User)",
						"numberOfBytes": "32",
						"value": "t_struct(User)8_storage"
					},
					"t_string_storage": {
						"encoding": "bytes",
						"label": "string",
						"numberOfBytes": "32"
					},
					"t_struct(User)8_storage": {
						"encoding": "inplace",
						"label": "struct SimpleRegistry.User",
						"members": [
							{
								"astId": 3,
								"contract": "500 problems/SimpleRegistry.sol:SimpleRegistry",
								"label": "name",
								"offset": 0,
								"slot": "0",
								"type": "t_string_storage"
							},
							{
								"astId": 5,
								"contract": "500 problems/SimpleRegistry.sol:SimpleRegistry",
								"label": "wallet",
								"offset": 0,
								"slot": "1",
								"type": "t_address"
							},
							{
								"astId": 7,
								"contract": "500 problems/SimpleRegistry.sol:SimpleRegistry",
								"label": "registered",
								"offset": 20,
								"slot": "1",
								"type": "t_bool"
							}
						],
						"numberOfBytes": "64"
					}
				}
			},
			"userdoc": {
				"kind": "user",
				"methods": {},
				"version": 1
			}
		}
	}
}